{
	"contracts/Counter.sol": {
		"Counter": {
			"abi": [
				{
					"anonymous": false,
					"inputs": [
						{
							"indexed": false,
							"internalType": "address",
							"name": "owner",
							"type": "address"
						},
						{
							"indexed": false,
							"internalType": "uint256",
							"name": "currentValue",
							"type": "uint256"
						}
					],
					"name": "Reset",
					"type": "event"
				},
				{
					"inputs": [],
					"name": "getValue",
					"outputs": [
						{
							"internalType": "uint256",
							"name": "",
							"type": "uint256"
						}
					],
					"stateMutability": "view",
					"type": "function"
				},
				{
					"inputs": [],
					"name": "increment",
					"outputs": [],
					"stateMutability": "payable",
					"type": "function"
				},
				{
					"inputs": [],
					"name": "owner",
					"outputs": [
						{
							"internalType": "address",
							"name": "",
							"type": "address"
						}
					],
					"stateMutability": "view",
					"type": "function"
				},
				{
					"inputs": [],
					"name": "reset",
					"outputs": [],
					"stateMutability": "nonpayable",
					"type": "function"
				},
				{
					"inputs": [],
					"name": "widthdraw",
					"outputs": [],
					"stateMutability": "nonpayable",
					"type": "function"
				}
			],
			"devdoc": {
				"kind": "dev",
				"methods": {},
				"version": 1
			},
			"evm": {
				"assembly": "    /* \"contracts/Counter.sol\":243:1408  contract Counter is Ownable {... */\n  mstore(0x40, 0x80)\n    /* \"contracts/Counter.sol\":843:844  0 */\n  0x00\n    /* \"contracts/Counter.sol\":822:844  uint private value = 0 */\n  0x01\n  sstore\n    /* \"contracts/Counter.sol\":243:1408  contract Counter is Ownable {... */\n  callvalue\n  dup1\n  iszero\n  tag_1\n  jumpi\n  0x00\n  dup1\n  revert\ntag_1:\n  pop\n    /* \"contracts/Counter.sol\":139:149  msg.sender */\n  caller\n    /* \"contracts/Counter.sol\":131:136  owner */\n  0x00\n  dup1\n    /* \"contracts/Counter.sol\":131:149  owner = msg.sender */\n  0x0100\n  exp\n  dup2\n  sload\n  dup2\n  0xffffffffffffffffffffffffffffffffffffffff\n  mul\n  not\n  and\n  swap1\n  dup4\n  0xffffffffffffffffffffffffffffffffffffffff\n  and\n  mul\n  or\n  swap1\n  sstore\n  pop\n    /* \"contracts/Counter.sol\":243:1408  contract Counter is Ownable {... */\n  dataSize(sub_0)\n  dup1\n  dataOffset(sub_0)\n  0x00\n  codecopy\n  0x00\n  return\nstop\n\nsub_0: assembly {\n        /* \"contracts/Counter.sol\":243:1408  contract Counter is Ownable {... */\n      mstore(0x40, 0x80)\n      jumpi(tag_1, lt(calldatasize, 0x04))\n      shr(0xe0, calldataload(0x00))\n      dup1\n      0x20965255\n      eq\n      tag_2\n      jumpi\n      dup1\n      0x52b50a2a\n      eq\n      tag_3\n      jumpi\n      dup1\n      0x8da5cb5b\n      eq\n      tag_4\n      jumpi\n      dup1\n      0xd09de08a\n      eq\n      tag_5\n      jumpi\n      dup1\n      0xd826f88f\n      eq\n      tag_6\n      jumpi\n    tag_1:\n      0x00\n      dup1\n      revert\n        /* \"contracts/Counter.sol\":1038:1113  function getValue() public view returns (uint){... */\n    tag_2:\n      callvalue\n      dup1\n      iszero\n      tag_7\n      jumpi\n      0x00\n      dup1\n      revert\n    tag_7:\n      pop\n      tag_8\n      tag_9\n      jump\t// in\n    tag_8:\n      mload(0x40)\n      tag_10\n      swap2\n      swap1\n      tag_11\n      jump\t// in\n    tag_10:\n      mload(0x40)\n      dup1\n      swap2\n      sub\n      swap1\n      return\n        /* \"contracts/Counter.sol\":1305:1406  function widthdraw() public onlyOwner {... */\n    tag_3:\n      callvalue\n      dup1\n      iszero\n      tag_12\n      jumpi\n      0x00\n      dup1\n      revert\n    tag_12:\n      pop\n      tag_13\n      tag_14\n      jump\t// in\n    tag_13:\n      stop\n        /* \"contracts/Counter.sol\":80:100  address public owner */\n    tag_4:\n      callvalue\n      dup1\n      iszero\n      tag_15\n      jumpi\n      0x00\n      dup1\n      revert\n    tag_15:\n      pop\n      tag_16\n      tag_17\n      jump\t// in\n    tag_16:\n      mload(0x40)\n      tag_18\n      swap2\n      swap1\n      tag_19\n      jump\t// in\n    tag_18:\n      mload(0x40)\n      dup1\n      swap2\n      sub\n      swap1\n      return\n        /* \"contracts/Counter.sol\":1119:1194  function increment() public payable minimumCost(1) {... */\n    tag_5:\n      tag_20\n      tag_21\n      jump\t// in\n    tag_20:\n      stop\n        /* \"contracts/Counter.sol\":1200:1299  function reset() public onlyOwner {... */\n    tag_6:\n      callvalue\n      dup1\n      iszero\n      tag_22\n      jumpi\n      0x00\n      dup1\n      revert\n    tag_22:\n      pop\n      tag_23\n      tag_24\n      jump\t// in\n    tag_23:\n      stop\n        /* \"contracts/Counter.sol\":1038:1113  function getValue() public view returns (uint){... */\n    tag_9:\n        /* \"contracts/Counter.sol\":1079:1083  uint */\n      0x00\n        /* \"contracts/Counter.sol\":1101:1106  value */\n      sload(0x01)\n        /* \"contracts/Counter.sol\":1094:1106  return value */\n      swap1\n      pop\n        /* \"contracts/Counter.sol\":1038:1113  function getValue() public view returns (uint){... */\n      swap1\n      jump\t// out\n        /* \"contracts/Counter.sol\":1305:1406  function widthdraw() public onlyOwner {... */\n    tag_14:\n        /* \"contracts/Counter.sol\":215:220  owner */\n      0x00\n      dup1\n      sload\n      swap1\n      0x0100\n      exp\n      swap1\n      div\n      0xffffffffffffffffffffffffffffffffffffffff\n      and\n        /* \"contracts/Counter.sol\":201:220  msg.sender == owner */\n      0xffffffffffffffffffffffffffffffffffffffff\n      and\n        /* \"contracts/Counter.sol\":201:211  msg.sender */\n      caller\n        /* \"contracts/Counter.sol\":201:220  msg.sender == owner */\n      0xffffffffffffffffffffffffffffffffffffffff\n      and\n      eq\n        /* \"contracts/Counter.sol\":193:221  require(msg.sender == owner) */\n      tag_27\n      jumpi\n      0x00\n      dup1\n      revert\n    tag_27:\n        /* \"contracts/Counter.sol\":1361:1366  owner */\n      0x00\n      dup1\n      sload\n      swap1\n      0x0100\n      exp\n      swap1\n      div\n      0xffffffffffffffffffffffffffffffffffffffff\n      and\n        /* \"contracts/Counter.sol\":1353:1376  payable(owner).transfer */\n      0xffffffffffffffffffffffffffffffffffffffff\n      and\n        /* \"contracts/Counter.sol\":1353:1399  payable(owner).transfer(address(this).balance) */\n      0x08fc\n        /* \"contracts/Counter.sol\":1377:1398  address(this).balance */\n      selfbalance\n        /* \"contracts/Counter.sol\":1353:1399  payable(owner).transfer(address(this).balance) */\n      swap1\n      dup2\n      iszero\n      mul\n      swap1\n      mload(0x40)\n      0x00\n      mload(0x40)\n      dup1\n      dup4\n      sub\n      dup2\n      dup6\n      dup9\n      dup9\n      call\n      swap4\n      pop\n      pop\n      pop\n      pop\n      iszero\n      dup1\n      iszero\n      tag_30\n      jumpi\n      returndatasize\n      0x00\n      dup1\n      returndatacopy\n      revert(0x00, returndatasize)\n    tag_30:\n      pop\n        /* \"contracts/Counter.sol\":1305:1406  function widthdraw() public onlyOwner {... */\n      jump\t// out\n        /* \"contracts/Counter.sol\":80:100  address public owner */\n    tag_17:\n      0x00\n      dup1\n      sload\n      swap1\n      0x0100\n      exp\n      swap1\n      div\n      0xffffffffffffffffffffffffffffffffffffffff\n      and\n      dup2\n      jump\t// out\n        /* \"contracts/Counter.sol\":1119:1194  function increment() public payable minimumCost(1) {... */\n    tag_21:\n        /* \"contracts/Counter.sol\":1167:1168  1 */\n      0x01\n        /* \"contracts/Counter.sol\":977:984  1 ether */\n      0x0de0b6b3a7640000\n        /* \"contracts/Counter.sol\":970:974  cost */\n      dup2\n        /* \"contracts/Counter.sol\":970:984  cost * 1 ether */\n      tag_32\n      swap2\n      swap1\n      tag_33\n      jump\t// in\n    tag_32:\n        /* \"contracts/Counter.sol\":957:966  msg.value */\n      callvalue\n        /* \"contracts/Counter.sol\":957:984  msg.value >= cost * 1 ether */\n      lt\n      iszero\n        /* \"contracts/Counter.sol\":949:1014  require(msg.value >= cost * 1 ether, \"Should send 1 either cost\") */\n      tag_34\n      jumpi\n      mload(0x40)\n      0x08c379a000000000000000000000000000000000000000000000000000000000\n      dup2\n      mstore\n      0x04\n      add\n      tag_35\n      swap1\n      tag_36\n      jump\t// in\n    tag_35:\n      mload(0x40)\n      dup1\n      swap2\n      sub\n      swap1\n      revert\n    tag_34:\n        /* \"contracts/Counter.sol\":1180:1185  value */\n      0x01\n      0x00\n        /* \"contracts/Counter.sol\":1180:1187  value++ */\n      dup2\n      sload\n      dup1\n      swap3\n      swap2\n      swap1\n      tag_38\n      swap1\n      tag_39\n      jump\t// in\n    tag_38:\n      swap2\n      swap1\n      pop\n      sstore\n      pop\n        /* \"contracts/Counter.sol\":1119:1194  function increment() public payable minimumCost(1) {... */\n      pop\n      jump\t// out\n        /* \"contracts/Counter.sol\":1200:1299  function reset() public onlyOwner {... */\n    tag_24:\n        /* \"contracts/Counter.sol\":215:220  owner */\n      0x00\n      dup1\n      sload\n      swap1\n      0x0100\n      exp\n      swap1\n      div\n      0xffffffffffffffffffffffffffffffffffffffff\n      and\n        /* \"contracts/Counter.sol\":201:220  msg.sender == owner */\n      0xffffffffffffffffffffffffffffffffffffffff\n      and\n        /* \"contracts/Counter.sol\":201:211  msg.sender */\n      caller\n        /* \"contracts/Counter.sol\":201:220  msg.sender == owner */\n      0xffffffffffffffffffffffffffffffffffffffff\n      and\n      eq\n        /* \"contracts/Counter.sol\":193:221  require(msg.sender == owner) */\n      tag_41\n      jumpi\n      0x00\n      dup1\n      revert\n    tag_41:\n        /* \"contracts/Counter.sol\":1249:1273  Reset(msg.sender, value) */\n      0x154fa90f2d3692df165afacdcd7755b2e9d98a892a80cc1dda63f3a9cc1e64a4\n        /* \"contracts/Counter.sol\":1255:1265  msg.sender */\n      caller\n        /* \"contracts/Counter.sol\":1267:1272  value */\n      sload(0x01)\n        /* \"contracts/Counter.sol\":1249:1273  Reset(msg.sender, value) */\n      mload(0x40)\n      tag_43\n      swap3\n      swap2\n      swap1\n      tag_44\n      jump\t// in\n    tag_43:\n      mload(0x40)\n      dup1\n      swap2\n      sub\n      swap1\n      log1\n        /* \"contracts/Counter.sol\":1291:1292  0 */\n      0x00\n        /* \"contracts/Counter.sol\":1283:1288  value */\n      0x01\n        /* \"contracts/Counter.sol\":1283:1292  value = 0 */\n      dup2\n      swap1\n      sstore\n      pop\n        /* \"contracts/Counter.sol\":1200:1299  function reset() public onlyOwner {... */\n      jump\t// out\n        /* \"#utility.yul\":7:84   */\n    tag_45:\n        /* \"#utility.yul\":44:51   */\n      0x00\n        /* \"#utility.yul\":73:78   */\n      dup2\n        /* \"#utility.yul\":62:78   */\n      swap1\n      pop\n        /* \"#utility.yul\":7:84   */\n      swap2\n      swap1\n      pop\n      jump\t// out\n        /* \"#utility.yul\":90:208   */\n    tag_46:\n        /* \"#utility.yul\":177:201   */\n      tag_57\n        /* \"#utility.yul\":195:200   */\n      dup2\n        /* \"#utility.yul\":177:201   */\n      tag_45\n      jump\t// in\n    tag_57:\n        /* \"#utility.yul\":172:175   */\n      dup3\n        /* \"#utility.yul\":165:202   */\n      mstore\n        /* \"#utility.yul\":90:208   */\n      pop\n      pop\n      jump\t// out\n        /* \"#utility.yul\":214:436   */\n    tag_11:\n        /* \"#utility.yul\":307:311   */\n      0x00\n        /* \"#utility.yul\":345:347   */\n      0x20\n        /* \"#utility.yul\":334:343   */\n      dup3\n        /* \"#utility.yul\":330:348   */\n      add\n        /* \"#utility.yul\":322:348   */\n      swap1\n      pop\n        /* \"#utility.yul\":358:429   */\n      tag_59\n        /* \"#utility.yul\":426:427   */\n      0x00\n        /* \"#utility.yul\":415:424   */\n      dup4\n        /* \"#utility.yul\":411:428   */\n      add\n        /* \"#utility.yul\":402:408   */\n      dup5\n        /* \"#utility.yul\":358:429   */\n      tag_46\n      jump\t// in\n    tag_59:\n        /* \"#utility.yul\":214:436   */\n      swap3\n      swap2\n      pop\n      pop\n      jump\t// out\n        /* \"#utility.yul\":442:568   */\n    tag_47:\n        /* \"#utility.yul\":479:486   */\n      0x00\n        /* \"#utility.yul\":519:561   */\n      0xffffffffffffffffffffffffffffffffffffffff\n        /* \"#utility.yul\":512:517   */\n      dup3\n        /* \"#utility.yul\":508:562   */\n      and\n        /* \"#utility.yul\":497:562   */\n      swap1\n      pop\n        /* \"#utility.yul\":442:568   */\n      swap2\n      swap1\n      pop\n      jump\t// out\n        /* \"#utility.yul\":574:670   */\n    tag_48:\n        /* \"#utility.yul\":611:618   */\n      0x00\n        /* \"#utility.yul\":640:664   */\n      tag_62\n        /* \"#utility.yul\":658:663   */\n      dup3\n        /* \"#utility.yul\":640:664   */\n      tag_47\n      jump\t// in\n    tag_62:\n        /* \"#utility.yul\":629:664   */\n      swap1\n      pop\n        /* \"#utility.yul\":574:670   */\n      swap2\n      swap1\n      pop\n      jump\t// out\n        /* \"#utility.yul\":676:794   */\n    tag_49:\n        /* \"#utility.yul\":763:787   */\n      tag_64\n        /* \"#utility.yul\":781:786   */\n      dup2\n        /* \"#utility.yul\":763:787   */\n      tag_48\n      jump\t// in\n    tag_64:\n        /* \"#utility.yul\":758:761   */\n      dup3\n        /* \"#utility.yul\":751:788   */\n      mstore\n        /* \"#utility.yul\":676:794   */\n      pop\n      pop\n      jump\t// out\n        /* \"#utility.yul\":800:1022   */\n    tag_19:\n        /* \"#utility.yul\":893:897   */\n      0x00\n        /* \"#utility.yul\":931:933   */\n      0x20\n        /* \"#utility.yul\":920:929   */\n      dup3\n        /* \"#utility.yul\":916:934   */\n      add\n        /* \"#utility.yul\":908:934   */\n      swap1\n      pop\n        /* \"#utility.yul\":944:1015   */\n      tag_66\n        /* \"#utility.yul\":1012:1013   */\n      0x00\n        /* \"#utility.yul\":1001:1010   */\n      dup4\n        /* \"#utility.yul\":997:1014   */\n      add\n        /* \"#utility.yul\":988:994   */\n      dup5\n        /* \"#utility.yul\":944:1015   */\n      tag_49\n      jump\t// in\n    tag_66:\n        /* \"#utility.yul\":800:1022   */\n      swap3\n      swap2\n      pop\n      pop\n      jump\t// out\n        /* \"#utility.yul\":1028:1208   */\n    tag_50:\n        /* \"#utility.yul\":1076:1153   */\n      0x4e487b7100000000000000000000000000000000000000000000000000000000\n        /* \"#utility.yul\":1073:1074   */\n      0x00\n        /* \"#utility.yul\":1066:1154   */\n      mstore\n        /* \"#utility.yul\":1173:1177   */\n      0x11\n        /* \"#utility.yul\":1170:1171   */\n      0x04\n        /* \"#utility.yul\":1163:1178   */\n      mstore\n        /* \"#utility.yul\":1197:1201   */\n      0x24\n        /* \"#utility.yul\":1194:1195   */\n      0x00\n        /* \"#utility.yul\":1187:1202   */\n      revert\n        /* \"#utility.yul\":1214:1624   */\n    tag_33:\n        /* \"#utility.yul\":1254:1261   */\n      0x00\n        /* \"#utility.yul\":1277:1297   */\n      tag_69\n        /* \"#utility.yul\":1295:1296   */\n      dup3\n        /* \"#utility.yul\":1277:1297   */\n      tag_45\n      jump\t// in\n    tag_69:\n        /* \"#utility.yul\":1272:1297   */\n      swap2\n      pop\n        /* \"#utility.yul\":1311:1331   */\n      tag_70\n        /* \"#utility.yul\":1329:1330   */\n      dup4\n        /* \"#utility.yul\":1311:1331   */\n      tag_45\n      jump\t// in\n    tag_70:\n        /* \"#utility.yul\":1306:1331   */\n      swap3\n      pop\n        /* \"#utility.yul\":1366:1367   */\n      dup3\n        /* \"#utility.yul\":1363:1364   */\n      dup3\n        /* \"#utility.yul\":1359:1368   */\n      mul\n        /* \"#utility.yul\":1388:1418   */\n      tag_71\n        /* \"#utility.yul\":1406:1417   */\n      dup2\n        /* \"#utility.yul\":1388:1418   */\n      tag_45\n      jump\t// in\n    tag_71:\n        /* \"#utility.yul\":1377:1418   */\n      swap2\n      pop\n        /* \"#utility.yul\":1567:1568   */\n      dup3\n        /* \"#utility.yul\":1558:1565   */\n      dup3\n        /* \"#utility.yul\":1554:1569   */\n      div\n        /* \"#utility.yul\":1551:1552   */\n      dup5\n        /* \"#utility.yul\":1548:1570   */\n      eq\n        /* \"#utility.yul\":1528:1529   */\n      dup4\n        /* \"#utility.yul\":1521:1530   */\n      iszero\n        /* \"#utility.yul\":1501:1584   */\n      or\n        /* \"#utility.yul\":1478:1617   */\n      tag_72\n      jumpi\n        /* \"#utility.yul\":1597:1615   */\n      tag_73\n      tag_50\n      jump\t// in\n    tag_73:\n        /* \"#utility.yul\":1478:1617   */\n    tag_72:\n        /* \"#utility.yul\":1262:1624   */\n      pop\n        /* \"#utility.yul\":1214:1624   */\n      swap3\n      swap2\n      pop\n      pop\n      jump\t// out\n        /* \"#utility.yul\":1630:1799   */\n    tag_51:\n        /* \"#utility.yul\":1714:1725   */\n      0x00\n        /* \"#utility.yul\":1748:1754   */\n      dup3\n        /* \"#utility.yul\":1743:1746   */\n      dup3\n        /* \"#utility.yul\":1736:1755   */\n      mstore\n        /* \"#utility.yul\":1788:1792   */\n      0x20\n        /* \"#utility.yul\":1783:1786   */\n      dup3\n        /* \"#utility.yul\":1779:1793   */\n      add\n        /* \"#utility.yul\":1764:1793   */\n      swap1\n      pop\n        /* \"#utility.yul\":1630:1799   */\n      swap3\n      swap2\n      pop\n      pop\n      jump\t// out\n        /* \"#utility.yul\":1805:1980   */\n    tag_52:\n        /* \"#utility.yul\":1945:1972   */\n      0x53686f756c642073656e6420312065697468657220636f737400000000000000\n        /* \"#utility.yul\":1941:1942   */\n      0x00\n        /* \"#utility.yul\":1933:1939   */\n      dup3\n        /* \"#utility.yul\":1929:1943   */\n      add\n        /* \"#utility.yul\":1922:1973   */\n      mstore\n        /* \"#utility.yul\":1805:1980   */\n      pop\n      jump\t// out\n        /* \"#utility.yul\":1986:2352   */\n    tag_53:\n        /* \"#utility.yul\":2128:2131   */\n      0x00\n        /* \"#utility.yul\":2149:2216   */\n      tag_77\n        /* \"#utility.yul\":2213:2215   */\n      0x19\n        /* \"#utility.yul\":2208:2211   */\n      dup4\n        /* \"#utility.yul\":2149:2216   */\n      tag_51\n      jump\t// in\n    tag_77:\n        /* \"#utility.yul\":2142:2216   */\n      swap2\n      pop\n        /* \"#utility.yul\":2225:2318   */\n      tag_78\n        /* \"#utility.yul\":2314:2317   */\n      dup3\n        /* \"#utility.yul\":2225:2318   */\n      tag_52\n      jump\t// in\n    tag_78:\n        /* \"#utility.yul\":2343:2345   */\n      0x20\n        /* \"#utility.yul\":2338:2341   */\n      dup3\n        /* \"#utility.yul\":2334:2346   */\n      add\n        /* \"#utility.yul\":2327:2346   */\n      swap1\n      pop\n        /* \"#utility.yul\":1986:2352   */\n      swap2\n      swap1\n      pop\n      jump\t// out\n        /* \"#utility.yul\":2358:2777   */\n    tag_36:\n        /* \"#utility.yul\":2524:2528   */\n      0x00\n        /* \"#utility.yul\":2562:2564   */\n      0x20\n        /* \"#utility.yul\":2551:2560   */\n      dup3\n        /* \"#utility.yul\":2547:2565   */\n      add\n        /* \"#utility.yul\":2539:2565   */\n      swap1\n      pop\n        /* \"#utility.yul\":2611:2620   */\n      dup2\n        /* \"#utility.yul\":2605:2609   */\n      dup2\n        /* \"#utility.yul\":2601:2621   */\n      sub\n        /* \"#utility.yul\":2597:2598   */\n      0x00\n        /* \"#utility.yul\":2586:2595   */\n      dup4\n        /* \"#utility.yul\":2582:2599   */\n      add\n        /* \"#utility.yul\":2575:2622   */\n      mstore\n        /* \"#utility.yul\":2639:2770   */\n      tag_80\n        /* \"#utility.yul\":2765:2769   */\n      dup2\n        /* \"#utility.yul\":2639:2770   */\n      tag_53\n      jump\t// in\n    tag_80:\n        /* \"#utility.yul\":2631:2770   */\n      swap1\n      pop\n        /* \"#utility.yul\":2358:2777   */\n      swap2\n      swap1\n      pop\n      jump\t// out\n        /* \"#utility.yul\":2783:3016   */\n    tag_39:\n        /* \"#utility.yul\":2822:2825   */\n      0x00\n        /* \"#utility.yul\":2845:2869   */\n      tag_82\n        /* \"#utility.yul\":2863:2868   */\n      dup3\n        /* \"#utility.yul\":2845:2869   */\n      tag_45\n      jump\t// in\n    tag_82:\n        /* \"#utility.yul\":2836:2869   */\n      swap2\n      pop\n        /* \"#utility.yul\":2891:2957   */\n      0xffffffffffffffffffffffffffffffffffffffffffffffffffffffffffffffff\n        /* \"#utility.yul\":2884:2889   */\n      dup3\n        /* \"#utility.yul\":2881:2958   */\n      sub\n        /* \"#utility.yul\":2878:2981   */\n      tag_83\n      jumpi\n        /* \"#utility.yul\":2961:2979   */\n      tag_84\n      tag_50\n      jump\t// in\n    tag_84:\n        /* \"#utility.yul\":2878:2981   */\n    tag_83:\n        /* \"#utility.yul\":3008:3009   */\n      0x01\n        /* \"#utility.yul\":3001:3006   */\n      dup3\n        /* \"#utility.yul\":2997:3010   */\n      add\n        /* \"#utility.yul\":2990:3010   */\n      swap1\n      pop\n        /* \"#utility.yul\":2783:3016   */\n      swap2\n      swap1\n      pop\n      jump\t// out\n        /* \"#utility.yul\":3022:3354   */\n    tag_44:\n        /* \"#utility.yul\":3143:3147   */\n      0x00\n        /* \"#utility.yul\":3181:3183   */\n      0x40\n        /* \"#utility.yul\":3170:3179   */\n      dup3\n        /* \"#utility.yul\":3166:3184   */\n      add\n        /* \"#utility.yul\":3158:3184   */\n      swap1\n      pop\n        /* \"#utility.yul\":3194:3265   */\n      tag_86\n        /* \"#utility.yul\":3262:3263   */\n      0x00\n        /* \"#utility.yul\":3251:3260   */\n      dup4\n        /* \"#utility.yul\":3247:3264   */\n      add\n        /* \"#utility.yul\":3238:3244   */\n      dup6\n        /* \"#utility.yul\":3194:3265   */\n      tag_49\n      jump\t// in\n    tag_86:\n        /* \"#utility.yul\":3275:3347   */\n      tag_87\n        /* \"#utility.yul\":3343:3345   */\n      0x20\n        /* \"#utility.yul\":3332:3341   */\n      dup4\n        /* \"#utility.yul\":3328:3346   */\n      add\n        /* \"#utility.yul\":3319:3325   */\n      dup5\n        /* \"#utility.yul\":3275:3347   */\n      tag_46\n      jump\t// in\n    tag_87:\n        /* \"#utility.yul\":3022:3354   */\n      swap4\n      swap3\n      pop\n      pop\n      pop\n      jump\t// out\n\n    auxdata: 0xa264697066735822122044fe6c24bd0d505c82a31cdcdbe5f4ca5529dd8c48f0730a1b01c6931084c86964736f6c634300081a0033\n}\n",
				"bytecode": {
					"linkReferences": {},
					"object": "60806040525f6001553480156012575f80fd5b50335f806101000a81548173ffffffffffffffffffffffffffffffffffffffff021916908373ffffffffffffffffffffffffffffffffffffffff1602179055506104dd8061005f5f395ff3fe608060405260043610610049575f3560e01c8063209652551461004d57806352b50a2a146100775780638da5cb5b1461008d578063d09de08a146100b7578063d826f88f146100c1575b5f80fd5b348015610058575f80fd5b506100616100d7565b60405161006e91906102e2565b60405180910390f35b348015610082575f80fd5b5061008b6100e0565b005b348015610098575f80fd5b506100a161019b565b6040516100ae919061033a565b60405180910390f35b6100bf6101be565b005b3480156100cc575f80fd5b506100d5610230565b005b5f600154905090565b5f8054906101000a900473ffffffffffffffffffffffffffffffffffffffff1673ffffffffffffffffffffffffffffffffffffffff163373ffffffffffffffffffffffffffffffffffffffff1614610136575f80fd5b5f8054906101000a900473ffffffffffffffffffffffffffffffffffffffff1673ffffffffffffffffffffffffffffffffffffffff166108fc4790811502906040515f60405180830381858888f19350505050158015610198573d5f803e3d5ffd5b50565b5f8054906101000a900473ffffffffffffffffffffffffffffffffffffffff1681565b6001670de0b6b3a7640000816101d49190610380565b341015610216576040517f08c379a000000000000000000000000000000000000000000000000000000000815260040161020d9061041b565b60405180910390fd5b60015f81548092919061022890610439565b919050555050565b5f8054906101000a900473ffffffffffffffffffffffffffffffffffffffff1673ffffffffffffffffffffffffffffffffffffffff163373ffffffffffffffffffffffffffffffffffffffff1614610286575f80fd5b7f154fa90f2d3692df165afacdcd7755b2e9d98a892a80cc1dda63f3a9cc1e64a4336001546040516102b9929190610480565b60405180910390a15f600181905550565b5f819050919050565b6102dc816102ca565b82525050565b5f6020820190506102f55f8301846102d3565b92915050565b5f73ffffffffffffffffffffffffffffffffffffffff82169050919050565b5f610324826102fb565b9050919050565b6103348161031a565b82525050565b5f60208201905061034d5f83018461032b565b92915050565b7f4e487b71000000000000000000000000000000000000000000000000000000005f52601160045260245ffd5b5f61038a826102ca565b9150610395836102ca565b92508282026103a3816102ca565b915082820484148315176103ba576103b9610353565b5b5092915050565b5f82825260208201905092915050565b7f53686f756c642073656e6420312065697468657220636f7374000000000000005f82015250565b5f6104056019836103c1565b9150610410826103d1565b602082019050919050565b5f6020820190508181035f830152610432816103f9565b9050919050565b5f610443826102ca565b91507fffffffffffffffffffffffffffffffffffffffffffffffffffffffffffffffff820361047557610474610353565b5b600182019050919050565b5f6040820190506104935f83018561032b565b6104a060208301846102d3565b939250505056fea264697066735822122044fe6c24bd0d505c82a31cdcdbe5f4ca5529dd8c48f0730a1b01c6931084c86964736f6c634300081a0033",
					"opcodes": "PUSH1 0x80 PUSH1 0x40 MSTORE PUSH0 PUSH1 0x1 SSTORE CALLVALUE DUP1 ISZERO PUSH1 0x12 JUMPI PUSH0 DUP1 REVERT JUMPDEST POP CALLER PUSH0 DUP1 PUSH2 0x100 EXP DUP2 SLOAD DUP2 PUSH20 0xFFFFFFFFFFFFFFFFFFFFFFFFFFFFFFFFFFFFFFFF MUL NOT AND SWAP1 DUP4 PUSH20 0xFFFFFFFFFFFFFFFFFFFFFFFFFFFFFFFFFFFFFFFF AND MUL OR SWAP1 SSTORE POP PUSH2 0x4DD DUP1 PUSH2 0x5F PUSH0 CODECOPY PUSH0 RETURN INVALID PUSH1 0x80 PUSH1 0x40 MSTORE PUSH1 0x4 CALLDATASIZE LT PUSH2 0x49 JUMPI PUSH0 CALLDATALOAD PUSH1 0xE0 SHR DUP1 PUSH4 0x20965255 EQ PUSH2 0x4D JUMPI DUP1 PUSH4 0x52B50A2A EQ PUSH2 0x77 JUMPI DUP1 PUSH4 0x8DA5CB5B EQ PUSH2 0x8D JUMPI DUP1 PUSH4 0xD09DE08A EQ PUSH2 0xB7 JUMPI DUP1 PUSH4 0xD826F88F EQ PUSH2 0xC1 JUMPI JUMPDEST PUSH0 DUP1 REVERT JUMPDEST CALLVALUE DUP1 ISZERO PUSH2 0x58 JUMPI PUSH0 DUP1 REVERT JUMPDEST POP PUSH2 0x61 PUSH2 0xD7 JUMP JUMPDEST PUSH1 0x40 MLOAD PUSH2 0x6E SWAP2 SWAP1 PUSH2 0x2E2 JUMP JUMPDEST PUSH1 0x40 MLOAD DUP1 SWAP2 SUB SWAP1 RETURN JUMPDEST CALLVALUE DUP1 ISZERO PUSH2 0x82 JUMPI PUSH0 DUP1 REVERT JUMPDEST POP PUSH2 0x8B PUSH2 0xE0 JUMP JUMPDEST STOP JUMPDEST CALLVALUE DUP1 ISZERO PUSH2 0x98 JUMPI PUSH0 DUP1 REVERT JUMPDEST POP PUSH2 0xA1 PUSH2 0x19B JUMP JUMPDEST PUSH1 0x40 MLOAD PUSH2 0xAE SWAP2 SWAP1 PUSH2 0x33A JUMP JUMPDEST PUSH1 0x40 MLOAD DUP1 SWAP2 SUB SWAP1 RETURN JUMPDEST PUSH2 0xBF PUSH2 0x1BE JUMP JUMPDEST STOP JUMPDEST CALLVALUE DUP1 ISZERO PUSH2 0xCC JUMPI PUSH0 DUP1 REVERT JUMPDEST POP PUSH2 0xD5 PUSH2 0x230 JUMP JUMPDEST STOP JUMPDEST PUSH0 PUSH1 0x1 SLOAD SWAP1 POP SWAP1 JUMP JUMPDEST PUSH0 DUP1 SLOAD SWAP1 PUSH2 0x100 EXP SWAP1 DIV PUSH20 0xFFFFFFFFFFFFFFFFFFFFFFFFFFFFFFFFFFFFFFFF AND PUSH20 0xFFFFFFFFFFFFFFFFFFFFFFFFFFFFFFFFFFFFFFFF AND CALLER PUSH20 0xFFFFFFFFFFFFFFFFFFFFFFFFFFFFFFFFFFFFFFFF AND EQ PUSH2 0x136 JUMPI PUSH0 DUP1 REVERT JUMPDEST PUSH0 DUP1 SLOAD SWAP1 PUSH2 0x100 EXP SWAP1 DIV PUSH20 0xFFFFFFFFFFFFFFFFFFFFFFFFFFFFFFFFFFFFFFFF AND PUSH20 0xFFFFFFFFFFFFFFFFFFFFFFFFFFFFFFFFFFFFFFFF AND PUSH2 0x8FC SELFBALANCE SWAP1 DUP2 ISZERO MUL SWAP1 PUSH1 0x40 MLOAD PUSH0 PUSH1 0x40 MLOAD DUP1 DUP4 SUB DUP2 DUP6 DUP9 DUP9 CALL SWAP4 POP POP POP POP ISZERO DUP1 ISZERO PUSH2 0x198 JUMPI RETURNDATASIZE PUSH0 DUP1 RETURNDATACOPY RETURNDATASIZE PUSH0 REVERT JUMPDEST POP JUMP JUMPDEST PUSH0 DUP1 SLOAD SWAP1 PUSH2 0x100 EXP SWAP1 DIV PUSH20 0xFFFFFFFFFFFFFFFFFFFFFFFFFFFFFFFFFFFFFFFF AND DUP2 JUMP JUMPDEST PUSH1 0x1 PUSH8 0xDE0B6B3A7640000 DUP2 PUSH2 0x1D4 SWAP2 SWAP1 PUSH2 0x380 JUMP JUMPDEST CALLVALUE LT ISZERO PUSH2 0x216 JUMPI PUSH1 0x40 MLOAD PUSH32 0x8C379A000000000000000000000000000000000000000000000000000000000 DUP2 MSTORE PUSH1 0x4 ADD PUSH2 0x20D SWAP1 PUSH2 0x41B JUMP JUMPDEST PUSH1 0x40 MLOAD DUP1 SWAP2 SUB SWAP1 REVERT JUMPDEST PUSH1 0x1 PUSH0 DUP2 SLOAD DUP1 SWAP3 SWAP2 SWAP1 PUSH2 0x228 SWAP1 PUSH2 0x439 JUMP JUMPDEST SWAP2 SWAP1 POP SSTORE POP POP JUMP JUMPDEST PUSH0 DUP1 SLOAD SWAP1 PUSH2 0x100 EXP SWAP1 DIV PUSH20 0xFFFFFFFFFFFFFFFFFFFFFFFFFFFFFFFFFFFFFFFF AND PUSH20 0xFFFFFFFFFFFFFFFFFFFFFFFFFFFFFFFFFFFFFFFF AND CALLER PUSH20 0xFFFFFFFFFFFFFFFFFFFFFFFFFFFFFFFFFFFFFFFF AND EQ PUSH2 0x286 JUMPI PUSH0 DUP1 REVERT JUMPDEST PUSH32 0x154FA90F2D3692DF165AFACDCD7755B2E9D98A892A80CC1DDA63F3A9CC1E64A4 CALLER PUSH1 0x1 SLOAD PUSH1 0x40 MLOAD PUSH2 0x2B9 SWAP3 SWAP2 SWAP1 PUSH2 0x480 JUMP JUMPDEST PUSH1 0x40 MLOAD DUP1 SWAP2 SUB SWAP1 LOG1 PUSH0 PUSH1 0x1 DUP2 SWAP1 SSTORE POP JUMP JUMPDEST PUSH0 DUP2 SWAP1 POP SWAP2 SWAP1 POP JUMP JUMPDEST PUSH2 0x2DC DUP2 PUSH2 0x2CA JUMP JUMPDEST DUP3 MSTORE POP POP JUMP JUMPDEST PUSH0 PUSH1 0x20 DUP3 ADD SWAP1 POP PUSH2 0x2F5 PUSH0 DUP4 ADD DUP5 PUSH2 0x2D3 JUMP JUMPDEST SWAP3 SWAP2 POP POP JUMP JUMPDEST PUSH0 PUSH20 0xFFFFFFFFFFFFFFFFFFFFFFFFFFFFFFFFFFFFFFFF DUP3 AND SWAP1 POP SWAP2 SWAP1 POP JUMP JUMPDEST PUSH0 PUSH2 0x324 DUP3 PUSH2 0x2FB JUMP JUMPDEST SWAP1 POP SWAP2 SWAP1 POP JUMP JUMPDEST PUSH2 0x334 DUP2 PUSH2 0x31A JUMP JUMPDEST DUP3 MSTORE POP POP JUMP JUMPDEST PUSH0 PUSH1 0x20 DUP3 ADD SWAP1 POP PUSH2 0x34D PUSH0 DUP4 ADD DUP5 PUSH2 0x32B JUMP JUMPDEST SWAP3 SWAP2 POP POP JUMP JUMPDEST PUSH32 0x4E487B7100000000000000000000000000000000000000000000000000000000 PUSH0 MSTORE PUSH1 0x11 PUSH1 0x4 MSTORE PUSH1 0x24 PUSH0 REVERT JUMPDEST PUSH0 PUSH2 0x38A DUP3 PUSH2 0x2CA JUMP JUMPDEST SWAP2 POP PUSH2 0x395 DUP4 PUSH2 0x2CA JUMP JUMPDEST SWAP3 POP DUP3 DUP3 MUL PUSH2 0x3A3 DUP2 PUSH2 0x2CA JUMP JUMPDEST SWAP2 POP DUP3 DUP3 DIV DUP5 EQ DUP4 ISZERO OR PUSH2 0x3BA JUMPI PUSH2 0x3B9 PUSH2 0x353 JUMP JUMPDEST JUMPDEST POP SWAP3 SWAP2 POP POP JUMP JUMPDEST PUSH0 DUP3 DUP3 MSTORE PUSH1 0x20 DUP3 ADD SWAP1 POP SWAP3 SWAP2 POP POP JUMP JUMPDEST PUSH32 0x53686F756C642073656E6420312065697468657220636F737400000000000000 PUSH0 DUP3 ADD MSTORE POP JUMP JUMPDEST PUSH0 PUSH2 0x405 PUSH1 0x19 DUP4 PUSH2 0x3C1 JUMP JUMPDEST SWAP2 POP PUSH2 0x410 DUP3 PUSH2 0x3D1 JUMP JUMPDEST PUSH1 0x20 DUP3 ADD SWAP1 POP SWAP2 SWAP1 POP JUMP JUMPDEST PUSH0 PUSH1 0x20 DUP3 ADD SWAP1 POP DUP2 DUP2 SUB PUSH0 DUP4 ADD MSTORE PUSH2 0x432 DUP2 PUSH2 0x3F9 JUMP JUMPDEST SWAP1 POP SWAP2 SWAP1 POP JUMP JUMPDEST PUSH0 PUSH2 0x443 DUP3 PUSH2 0x2CA JUMP JUMPDEST SWAP2 POP PUSH32 0xFFFFFFFFFFFFFFFFFFFFFFFFFFFFFFFFFFFFFFFFFFFFFFFFFFFFFFFFFFFFFFFF DUP3 SUB PUSH2 0x475 JUMPI PUSH2 0x474 PUSH2 0x353 JUMP JUMPDEST JUMPDEST PUSH1 0x1 DUP3 ADD SWAP1 POP SWAP2 SWAP1 POP JUMP JUMPDEST PUSH0 PUSH1 0x40 DUP3 ADD SWAP1 POP PUSH2 0x493 PUSH0 DUP4 ADD DUP6 PUSH2 0x32B JUMP JUMPDEST PUSH2 0x4A0 PUSH1 0x20 DUP4 ADD DUP5 PUSH2 0x2D3 JUMP JUMPDEST SWAP4 SWAP3 POP POP POP JUMP INVALID LOG2 PUSH5 0x6970667358 0x22 SLT KECCAK256 PREVRANDAO INVALID PUSH13 0x24BD0D505C82A31CDCDBE5F4CA SSTORE 0x29 0xDD DUP13 BASEFEE CREATE PUSH20 0xA1B01C6931084C86964736F6C634300081A0033 "
				},
				"gasEstimates": {
					"creation": {
						"codeDepositCost": "249000",
						"executionCost": "29555",
						"totalCost": "278555"
					},
					"external": {
						"getValue()": "2410",
						"increment()": "infinite",
						"owner()": "2527",
						"reset()": "11081",
						"widthdraw()": "infinite"
					}
				},
				"methodIdentifiers": {
					"getValue()": "20965255",
					"increment()": "d09de08a",
					"owner()": "8da5cb5b",
					"reset()": "d826f88f",
					"widthdraw()": "52b50a2a"
				}
			},
			"storageLayout": {
				"storage": [
					{
						"astId": 3,
						"contract": "contracts/Counter.sol:Counter",
						"label": "owner",
						"offset": 0,
						"slot": "0",
						"type": "t_address"
					},
					{
						"astId": 29,
						"contract": "contracts/Counter.sol:Counter",
						"label": "value",
						"offset": 0,
						"slot": "1",
						"type": "t_uint256"
					}
				],
				"types": {
					"t_address": {
						"encoding": "inplace",
						"label": "address",
						"numberOfBytes": "20"
					},
					"t_uint256": {
						"encoding": "inplace",
						"label": "uint256",
						"numberOfBytes": "32"
					}
				}
			},
			"userdoc": {
				"kind": "user",
				"methods": {},
				"version": 1
			}
		}
	}
}