{
	"contracts/MyExchange.sol": {
		"MyExchange": {
			"abi": [
				{
					"inputs": [
						{
							"internalType": "address",
							"name": "_tokenAddress",
							"type": "address"
						}
					],
					"stateMutability": "nonpayable",
					"type": "constructor"
				},
				{
					"inputs": [
						{
							"internalType": "address",
							"name": "spender",
							"type": "address"
						},
						{
							"internalType": "uint256",
							"name": "allowance",
							"type": "uint256"
						},
						{
							"internalType": "uint256",
							"name": "needed",
							"type": "uint256"
						}
					],
					"name": "ERC20InsufficientAllowance",
					"type": "error"
				},
				{
					"inputs": [
						{
							"internalType": "address",
							"name": "sender",
							"type": "address"
						},
						{
							"internalType": "uint256",
							"name": "balance",
							"type": "uint256"
						},
						{
							"internalType": "uint256",
							"name": "needed",
							"type": "uint256"
						}
					],
					"name": "ERC20InsufficientBalance",
					"type": "error"
				},
				{
					"inputs": [
						{
							"internalType": "address",
							"name": "approver",
							"type": "address"
						}
					],
					"name": "ERC20InvalidApprover",
					"type": "error"
				},
				{
					"inputs": [
						{
							"internalType": "address",
							"name": "receiver",
							"type": "address"
						}
					],
					"name": "ERC20InvalidReceiver",
					"type": "error"
				},
				{
					"inputs": [
						{
							"internalType": "address",
							"name": "sender",
							"type": "address"
						}
					],
					"name": "ERC20InvalidSender",
					"type": "error"
				},
				{
					"inputs": [
						{
							"internalType": "address",
							"name": "spender",
							"type": "address"
						}
					],
					"name": "ERC20InvalidSpender",
					"type": "error"
				},
				{
					"anonymous": false,
					"inputs": [
						{
							"indexed": true,
							"internalType": "address",
							"name": "owner",
							"type": "address"
						},
						{
							"indexed": true,
							"internalType": "address",
							"name": "spender",
							"type": "address"
						},
						{
							"indexed": false,
							"internalType": "uint256",
							"name": "value",
							"type": "uint256"
						}
					],
					"name": "Approval",
					"type": "event"
				},
				{
					"anonymous": false,
					"inputs": [
						{
							"indexed": true,
							"internalType": "address",
							"name": "from",
							"type": "address"
						},
						{
							"indexed": true,
							"internalType": "address",
							"name": "to",
							"type": "address"
						},
						{
							"indexed": false,
							"internalType": "uint256",
							"name": "value",
							"type": "uint256"
						}
					],
					"name": "Transfer",
					"type": "event"
				},
				{
					"inputs": [
						{
							"internalType": "uint256",
							"name": "tokenAmount",
							"type": "uint256"
						}
					],
					"name": "addLiquidity",
					"outputs": [],
					"stateMutability": "payable",
					"type": "function"
				},
				{
					"inputs": [
						{
							"internalType": "address",
							"name": "owner",
							"type": "address"
						},
						{
							"internalType": "address",
							"name": "spender",
							"type": "address"
						}
					],
					"name": "allowance",
					"outputs": [
						{
							"internalType": "uint256",
							"name": "",
							"type": "uint256"
						}
					],
					"stateMutability": "view",
					"type": "function"
				},
				{
					"inputs": [
						{
							"internalType": "address",
							"name": "spender",
							"type": "address"
						},
						{
							"internalType": "uint256",
							"name": "value",
							"type": "uint256"
						}
					],
					"name": "approve",
					"outputs": [
						{
							"internalType": "bool",
							"name": "",
							"type": "bool"
						}
					],
					"stateMutability": "nonpayable",
					"type": "function"
				},
				{
					"inputs": [
						{
							"internalType": "address",
							"name": "account",
							"type": "address"
						}
					],
					"name": "balanceOf",
					"outputs": [
						{
							"internalType": "uint256",
							"name": "",
							"type": "uint256"
						}
					],
					"stateMutability": "view",
					"type": "function"
				},
				{
					"inputs": [],
					"name": "decimals",
					"outputs": [
						{
							"internalType": "uint8",
							"name": "",
							"type": "uint8"
						}
					],
					"stateMutability": "view",
					"type": "function"
				},
				{
					"inputs": [],
					"name": "eitherToToken",
					"outputs": [],
					"stateMutability": "payable",
					"type": "function"
				},
				{
					"inputs": [],
					"name": "name",
					"outputs": [
						{
							"internalType": "string",
							"name": "",
							"type": "string"
						}
					],
					"stateMutability": "view",
					"type": "function"
				},
				{
					"inputs": [
						{
							"internalType": "uint256",
							"name": "lpAmount",
							"type": "uint256"
						}
					],
					"name": "removeLiquidity",
					"outputs": [],
					"stateMutability": "nonpayable",
					"type": "function"
				},
				{
					"inputs": [],
					"name": "symbol",
					"outputs": [
						{
							"internalType": "string",
							"name": "",
							"type": "string"
						}
					],
					"stateMutability": "view",
					"type": "function"
				},
				{
					"inputs": [],
					"name": "tokenAddress",
					"outputs": [
						{
							"internalType": "address",
							"name": "",
							"type": "address"
						}
					],
					"stateMutability": "view",
					"type": "function"
				},
				{
					"inputs": [
						{
							"internalType": "uint256",
							"name": "tokenAmount",
							"type": "uint256"
						}
					],
					"name": "tokenToEither",
					"outputs": [],
					"stateMutability": "nonpayable",
					"type": "function"
				},
				{
					"inputs": [],
					"name": "totalSupply",
					"outputs": [
						{
							"internalType": "uint256",
							"name": "",
							"type": "uint256"
						}
					],
					"stateMutability": "view",
					"type": "function"
				},
				{
					"inputs": [
						{
							"internalType": "address",
							"name": "to",
							"type": "address"
						},
						{
							"internalType": "uint256",
							"name": "value",
							"type": "uint256"
						}
					],
					"name": "transfer",
					"outputs": [
						{
							"internalType": "bool",
							"name": "",
							"type": "bool"
						}
					],
					"stateMutability": "nonpayable",
					"type": "function"
				},
				{
					"inputs": [
						{
							"internalType": "address",
							"name": "from",
							"type": "address"
						},
						{
							"internalType": "address",
							"name": "to",
							"type": "address"
						},
						{
							"internalType": "uint256",
							"name": "value",
							"type": "uint256"
						}
					],
					"name": "transferFrom",
					"outputs": [
						{
							"internalType": "bool",
							"name": "",
							"type": "bool"
						}
					],
					"stateMutability": "nonpayable",
					"type": "function"
				}
			],
			"devdoc": {
				"errors": {
					"ERC20InsufficientAllowance(address,uint256,uint256)": [
						{
							"details": "Indicates a failure with the `spender`’s `allowance`. Used in transfers.",
							"params": {
								"allowance": "Amount of tokens a `spender` is allowed to operate with.",
								"needed": "Minimum amount required to perform a transfer.",
								"spender": "Address that may be allowed to operate on tokens without being their owner."
							}
						}
					],
					"ERC20InsufficientBalance(address,uint256,uint256)": [
						{
							"details": "Indicates an error related to the current `balance` of a `sender`. Used in transfers.",
							"params": {
								"balance": "Current balance for the interacting account.",
								"needed": "Minimum amount required to perform a transfer.",
								"sender": "Address whose tokens are being transferred."
							}
						}
					],
					"ERC20InvalidApprover(address)": [
						{
							"details": "Indicates a failure with the `approver` of a token to be approved. Used in approvals.",
							"params": {
								"approver": "Address initiating an approval operation."
							}
						}
					],
					"ERC20InvalidReceiver(address)": [
						{
							"details": "Indicates a failure with the token `receiver`. Used in transfers.",
							"params": {
								"receiver": "Address to which tokens are being transferred."
							}
						}
					],
					"ERC20InvalidSender(address)": [
						{
							"details": "Indicates a failure with the token `sender`. Used in transfers.",
							"params": {
								"sender": "Address whose tokens are being transferred."
							}
						}
					],
					"ERC20InvalidSpender(address)": [
						{
							"details": "Indicates a failure with the `spender` to be approved. Used in approvals.",
							"params": {
								"spender": "Address that may be allowed to operate on tokens without being their owner."
							}
						}
					]
				},
				"events": {
					"Approval(address,address,uint256)": {
						"details": "Emitted when the allowance of a `spender` for an `owner` is set by a call to {approve}. `value` is the new allowance."
					},
					"Transfer(address,address,uint256)": {
						"details": "Emitted when `value` tokens are moved from one account (`from`) to another (`to`). Note that `value` may be zero."
					}
				},
				"kind": "dev",
				"methods": {
					"allowance(address,address)": {
						"details": "See {IERC20-allowance}."
					},
					"approve(address,uint256)": {
						"details": "See {IERC20-approve}. NOTE: If `value` is the maximum `uint256`, the allowance is not updated on `transferFrom`. This is semantically equivalent to an infinite approval. Requirements: - `spender` cannot be the zero address."
					},
					"balanceOf(address)": {
						"details": "See {IERC20-balanceOf}."
					},
					"decimals()": {
						"details": "Returns the number of decimals used to get its user representation. For example, if `decimals` equals `2`, a balance of `505` tokens should be displayed to a user as `5.05` (`505 / 10 ** 2`). Tokens usually opt for a value of 18, imitating the relationship between Ether and Wei. This is the default value returned by this function, unless it's overridden. NOTE: This information is only used for _display_ purposes: it in no way affects any of the arithmetic of the contract, including {IERC20-balanceOf} and {IERC20-transfer}."
					},
					"name()": {
						"details": "Returns the name of the token."
					},
					"symbol()": {
						"details": "Returns the symbol of the token, usually a shorter version of the name."
					},
					"totalSupply()": {
						"details": "See {IERC20-totalSupply}."
					},
					"transfer(address,uint256)": {
						"details": "See {IERC20-transfer}. Requirements: - `to` cannot be the zero address. - the caller must have a balance of at least `value`."
					},
					"transferFrom(address,address,uint256)": {
						"details": "See {IERC20-transferFrom}. Skips emitting an {Approval} event indicating an allowance update. This is not required by the ERC. See {xref-ERC20-_approve-address-address-uint256-bool-}[_approve]. NOTE: Does not update the allowance if the current allowance is the maximum `uint256`. Requirements: - `from` and `to` cannot be the zero address. - `from` must have a balance of at least `value`. - the caller must have allowance for ``from``'s tokens of at least `value`."
					}
				},
				"version": 1
			},
			"evm": {
				"assembly": "    /* \"contracts/MyExchange.sol\":225:2168  contract MyExchange is ERC20 {... */\n  mstore(0x40, 0x80)\n    /* \"contracts/MyExchange.sol\":314:458  constructor(address _tokenAddress) ERC20(\"Exchange\", \"XCH\") {... */\n  callvalue\n  dup1\n  iszero\n  tag_1\n  jumpi\n  0x00\n  dup1\n  revert\ntag_1:\n  pop\n  mload(0x40)\n  sub(codesize, bytecodeSize)\n  dup1\n  bytecodeSize\n  dup4\n  codecopy\n  dup2\n  dup2\n  add\n  0x40\n  mstore\n  dup2\n  add\n  swap1\n  tag_2\n  swap2\n  swap1\n  tag_3\n  jump\t// in\ntag_2:\n    /* \"@openzeppelin/contracts/token/ERC20/ERC20.sol\":1601:1714  constructor(string memory name_, string memory symbol_) {... */\n  mload(0x40)\n  dup1\n  0x40\n  add\n  0x40\n  mstore\n  dup1\n  0x08\n  dup2\n  mstore\n  0x20\n  add\n  0x45786368616e6765000000000000000000000000000000000000000000000000\n  dup2\n  mstore\n  pop\n  mload(0x40)\n  dup1\n  0x40\n  add\n  0x40\n  mstore\n  dup1\n  0x03\n  dup2\n  mstore\n  0x20\n  add\n  0x5843480000000000000000000000000000000000000000000000000000000000\n  dup2\n  mstore\n  pop\n    /* \"@openzeppelin/contracts/token/ERC20/ERC20.sol\":1675:1680  name_ */\n  dup2\n    /* \"@openzeppelin/contracts/token/ERC20/ERC20.sol\":1667:1672  _name */\n  0x03\n    /* \"@openzeppelin/contracts/token/ERC20/ERC20.sol\":1667:1680  _name = name_ */\n  swap1\n  dup2\n  tag_7\n  swap2\n  swap1\n  tag_8\n  jump\t// in\ntag_7:\n  pop\n    /* \"@openzeppelin/contracts/token/ERC20/ERC20.sol\":1700:1707  symbol_ */\n  dup1\n    /* \"@openzeppelin/contracts/token/ERC20/ERC20.sol\":1690:1697  _symbol */\n  0x04\n    /* \"@openzeppelin/contracts/token/ERC20/ERC20.sol\":1690:1707  _symbol = symbol_ */\n  swap1\n  dup2\n  tag_9\n  swap2\n  swap1\n  tag_8\n  jump\t// in\ntag_9:\n  pop\n    /* \"@openzeppelin/contracts/token/ERC20/ERC20.sol\":1601:1714  constructor(string memory name_, string memory symbol_) {... */\n  pop\n  pop\n    /* \"contracts/MyExchange.sol\":399:412  _tokenAddress */\n  dup1\n    /* \"contracts/MyExchange.sol\":384:396  tokenAddress */\n  0x05\n  0x00\n    /* \"contracts/MyExchange.sol\":384:412  tokenAddress = _tokenAddress */\n  0x0100\n  exp\n  dup2\n  sload\n  dup2\n  0xffffffffffffffffffffffffffffffffffffffff\n  mul\n  not\n  and\n  swap1\n  dup4\n  0xffffffffffffffffffffffffffffffffffffffff\n  and\n  mul\n  or\n  swap1\n  sstore\n  pop\n    /* \"contracts/MyExchange.sol\":438:450  tokenAddress */\n  0x05\n  0x00\n  swap1\n  sload\n  swap1\n  0x0100\n  exp\n  swap1\n  div\n  0xffffffffffffffffffffffffffffffffffffffff\n  and\n    /* \"contracts/MyExchange.sol\":422:428  tokenA */\n  0x06\n  0x00\n    /* \"contracts/MyExchange.sol\":422:451  tokenA = TokenA(tokenAddress) */\n  0x0100\n  exp\n  dup2\n  sload\n  dup2\n  0xffffffffffffffffffffffffffffffffffffffff\n  mul\n  not\n  and\n  swap1\n  dup4\n  0xffffffffffffffffffffffffffffffffffffffff\n  and\n  mul\n  or\n  swap1\n  sstore\n  pop\n    /* \"contracts/MyExchange.sol\":314:458  constructor(address _tokenAddress) ERC20(\"Exchange\", \"XCH\") {... */\n  pop\n    /* \"contracts/MyExchange.sol\":225:2168  contract MyExchange is ERC20 {... */\n  jump(tag_11)\n    /* \"#utility.yul\":88:205   */\ntag_13:\n    /* \"#utility.yul\":197:198   */\n  0x00\n    /* \"#utility.yul\":194:195   */\n  dup1\n    /* \"#utility.yul\":187:199   */\n  revert\n    /* \"#utility.yul\":334:460   */\ntag_15:\n    /* \"#utility.yul\":371:378   */\n  0x00\n    /* \"#utility.yul\":411:453   */\n  0xffffffffffffffffffffffffffffffffffffffff\n    /* \"#utility.yul\":404:409   */\n  dup3\n    /* \"#utility.yul\":400:454   */\n  and\n    /* \"#utility.yul\":389:454   */\n  swap1\n  pop\n    /* \"#utility.yul\":334:460   */\n  swap2\n  swap1\n  pop\n  jump\t// out\n    /* \"#utility.yul\":466:562   */\ntag_16:\n    /* \"#utility.yul\":503:510   */\n  0x00\n    /* \"#utility.yul\":532:556   */\n  tag_45\n    /* \"#utility.yul\":550:555   */\n  dup3\n    /* \"#utility.yul\":532:556   */\n  tag_15\n  jump\t// in\ntag_45:\n    /* \"#utility.yul\":521:556   */\n  swap1\n  pop\n    /* \"#utility.yul\":466:562   */\n  swap2\n  swap1\n  pop\n  jump\t// out\n    /* \"#utility.yul\":568:690   */\ntag_17:\n    /* \"#utility.yul\":641:665   */\n  tag_47\n    /* \"#utility.yul\":659:664   */\n  dup2\n    /* \"#utility.yul\":641:665   */\n  tag_16\n  jump\t// in\ntag_47:\n    /* \"#utility.yul\":634:639   */\n  dup2\n    /* \"#utility.yul\":631:666   */\n  eq\n    /* \"#utility.yul\":621:684   */\n  tag_48\n  jumpi\n    /* \"#utility.yul\":680:681   */\n  0x00\n    /* \"#utility.yul\":677:678   */\n  dup1\n    /* \"#utility.yul\":670:682   */\n  revert\n    /* \"#utility.yul\":621:684   */\ntag_48:\n    /* \"#utility.yul\":568:690   */\n  pop\n  jump\t// out\n    /* \"#utility.yul\":696:839   */\ntag_18:\n    /* \"#utility.yul\":753:758   */\n  0x00\n    /* \"#utility.yul\":784:790   */\n  dup2\n    /* \"#utility.yul\":778:791   */\n  mload\n    /* \"#utility.yul\":769:791   */\n  swap1\n  pop\n    /* \"#utility.yul\":800:833   */\n  tag_50\n    /* \"#utility.yul\":827:832   */\n  dup2\n    /* \"#utility.yul\":800:833   */\n  tag_17\n  jump\t// in\ntag_50:\n    /* \"#utility.yul\":696:839   */\n  swap3\n  swap2\n  pop\n  pop\n  jump\t// out\n    /* \"#utility.yul\":845:1196   */\ntag_3:\n    /* \"#utility.yul\":915:921   */\n  0x00\n    /* \"#utility.yul\":964:966   */\n  0x20\n    /* \"#utility.yul\":952:961   */\n  dup3\n    /* \"#utility.yul\":943:950   */\n  dup5\n    /* \"#utility.yul\":939:962   */\n  sub\n    /* \"#utility.yul\":935:967   */\n  slt\n    /* \"#utility.yul\":932:1051   */\n  iszero\n  tag_52\n  jumpi\n    /* \"#utility.yul\":970:1049   */\n  tag_53\n  tag_13\n  jump\t// in\ntag_53:\n    /* \"#utility.yul\":932:1051   */\ntag_52:\n    /* \"#utility.yul\":1090:1091   */\n  0x00\n    /* \"#utility.yul\":1115:1179   */\n  tag_54\n    /* \"#utility.yul\":1171:1178   */\n  dup5\n    /* \"#utility.yul\":1162:1168   */\n  dup3\n    /* \"#utility.yul\":1151:1160   */\n  dup6\n    /* \"#utility.yul\":1147:1169   */\n  add\n    /* \"#utility.yul\":1115:1179   */\n  tag_18\n  jump\t// in\ntag_54:\n    /* \"#utility.yul\":1105:1179   */\n  swap2\n  pop\n    /* \"#utility.yul\":1061:1189   */\n  pop\n    /* \"#utility.yul\":845:1196   */\n  swap3\n  swap2\n  pop\n  pop\n  jump\t// out\n    /* \"#utility.yul\":1202:1301   */\ntag_19:\n    /* \"#utility.yul\":1254:1260   */\n  0x00\n    /* \"#utility.yul\":1288:1293   */\n  dup2\n    /* \"#utility.yul\":1282:1294   */\n  mload\n    /* \"#utility.yul\":1272:1294   */\n  swap1\n  pop\n    /* \"#utility.yul\":1202:1301   */\n  swap2\n  swap1\n  pop\n  jump\t// out\n    /* \"#utility.yul\":1307:1487   */\ntag_20:\n    /* \"#utility.yul\":1355:1432   */\n  0x4e487b7100000000000000000000000000000000000000000000000000000000\n    /* \"#utility.yul\":1352:1353   */\n  0x00\n    /* \"#utility.yul\":1345:1433   */\n  mstore\n    /* \"#utility.yul\":1452:1456   */\n  0x41\n    /* \"#utility.yul\":1449:1450   */\n  0x04\n    /* \"#utility.yul\":1442:1457   */\n  mstore\n    /* \"#utility.yul\":1476:1480   */\n  0x24\n    /* \"#utility.yul\":1473:1474   */\n  0x00\n    /* \"#utility.yul\":1466:1481   */\n  revert\n    /* \"#utility.yul\":1493:1673   */\ntag_21:\n    /* \"#utility.yul\":1541:1618   */\n  0x4e487b7100000000000000000000000000000000000000000000000000000000\n    /* \"#utility.yul\":1538:1539   */\n  0x00\n    /* \"#utility.yul\":1531:1619   */\n  mstore\n    /* \"#utility.yul\":1638:1642   */\n  0x22\n    /* \"#utility.yul\":1635:1636   */\n  0x04\n    /* \"#utility.yul\":1628:1643   */\n  mstore\n    /* \"#utility.yul\":1662:1666   */\n  0x24\n    /* \"#utility.yul\":1659:1660   */\n  0x00\n    /* \"#utility.yul\":1652:1667   */\n  revert\n    /* \"#utility.yul\":1679:1999   */\ntag_22:\n    /* \"#utility.yul\":1723:1729   */\n  0x00\n    /* \"#utility.yul\":1760:1761   */\n  0x02\n    /* \"#utility.yul\":1754:1758   */\n  dup3\n    /* \"#utility.yul\":1750:1762   */\n  div\n    /* \"#utility.yul\":1740:1762   */\n  swap1\n  pop\n    /* \"#utility.yul\":1807:1808   */\n  0x01\n    /* \"#utility.yul\":1801:1805   */\n  dup3\n    /* \"#utility.yul\":1797:1809   */\n  and\n    /* \"#utility.yul\":1828:1846   */\n  dup1\n    /* \"#utility.yul\":1818:1899   */\n  tag_59\n  jumpi\n    /* \"#utility.yul\":1884:1888   */\n  0x7f\n    /* \"#utility.yul\":1876:1882   */\n  dup3\n    /* \"#utility.yul\":1872:1889   */\n  and\n    /* \"#utility.yul\":1862:1889   */\n  swap2\n  pop\n    /* \"#utility.yul\":1818:1899   */\ntag_59:\n    /* \"#utility.yul\":1946:1948   */\n  0x20\n    /* \"#utility.yul\":1938:1944   */\n  dup3\n    /* \"#utility.yul\":1935:1949   */\n  lt\n    /* \"#utility.yul\":1915:1933   */\n  dup2\n    /* \"#utility.yul\":1912:1950   */\n  sub\n    /* \"#utility.yul\":1909:1993   */\n  tag_60\n  jumpi\n    /* \"#utility.yul\":1965:1983   */\n  tag_61\n  tag_21\n  jump\t// in\ntag_61:\n    /* \"#utility.yul\":1909:1993   */\ntag_60:\n    /* \"#utility.yul\":1730:1999   */\n  pop\n    /* \"#utility.yul\":1679:1999   */\n  swap2\n  swap1\n  pop\n  jump\t// out\n    /* \"#utility.yul\":2005:2146   */\ntag_23:\n    /* \"#utility.yul\":2054:2058   */\n  0x00\n    /* \"#utility.yul\":2077:2080   */\n  dup2\n    /* \"#utility.yul\":2069:2080   */\n  swap1\n  pop\n    /* \"#utility.yul\":2100:2103   */\n  dup2\n    /* \"#utility.yul\":2097:2098   */\n  0x00\n    /* \"#utility.yul\":2090:2104   */\n  mstore\n    /* \"#utility.yul\":2134:2138   */\n  0x20\n    /* \"#utility.yul\":2131:2132   */\n  0x00\n    /* \"#utility.yul\":2121:2139   */\n  keccak256\n    /* \"#utility.yul\":2113:2139   */\n  swap1\n  pop\n    /* \"#utility.yul\":2005:2146   */\n  swap2\n  swap1\n  pop\n  jump\t// out\n    /* \"#utility.yul\":2152:2245   */\ntag_24:\n    /* \"#utility.yul\":2189:2195   */\n  0x00\n    /* \"#utility.yul\":2236:2238   */\n  0x20\n    /* \"#utility.yul\":2231:2233   */\n  0x1f\n    /* \"#utility.yul\":2224:2229   */\n  dup4\n    /* \"#utility.yul\":2220:2234   */\n  add\n    /* \"#utility.yul\":2216:2239   */\n  div\n    /* \"#utility.yul\":2206:2239   */\n  swap1\n  pop\n    /* \"#utility.yul\":2152:2245   */\n  swap2\n  swap1\n  pop\n  jump\t// out\n    /* \"#utility.yul\":2251:2358   */\ntag_25:\n    /* \"#utility.yul\":2295:2303   */\n  0x00\n    /* \"#utility.yul\":2345:2350   */\n  dup3\n    /* \"#utility.yul\":2339:2343   */\n  dup3\n    /* \"#utility.yul\":2335:2351   */\n  shl\n    /* \"#utility.yul\":2314:2351   */\n  swap1\n  pop\n    /* \"#utility.yul\":2251:2358   */\n  swap3\n  swap2\n  pop\n  pop\n  jump\t// out\n    /* \"#utility.yul\":2364:2757   */\ntag_26:\n    /* \"#utility.yul\":2433:2439   */\n  0x00\n    /* \"#utility.yul\":2483:2484   */\n  0x08\n    /* \"#utility.yul\":2471:2481   */\n  dup4\n    /* \"#utility.yul\":2467:2485   */\n  mul\n    /* \"#utility.yul\":2506:2603   */\n  tag_66\n    /* \"#utility.yul\":2536:2602   */\n  0xffffffffffffffffffffffffffffffffffffffffffffffffffffffffffffffff\n    /* \"#utility.yul\":2525:2534   */\n  dup3\n    /* \"#utility.yul\":2506:2603   */\n  tag_25\n  jump\t// in\ntag_66:\n    /* \"#utility.yul\":2624:2663   */\n  tag_67\n    /* \"#utility.yul\":2654:2662   */\n  dup7\n    /* \"#utility.yul\":2643:2652   */\n  dup4\n    /* \"#utility.yul\":2624:2663   */\n  tag_25\n  jump\t// in\ntag_67:\n    /* \"#utility.yul\":2612:2663   */\n  swap6\n  pop\n    /* \"#utility.yul\":2696:2700   */\n  dup1\n    /* \"#utility.yul\":2692:2701   */\n  not\n    /* \"#utility.yul\":2685:2690   */\n  dup5\n    /* \"#utility.yul\":2681:2702   */\n  and\n    /* \"#utility.yul\":2672:2702   */\n  swap4\n  pop\n    /* \"#utility.yul\":2745:2749   */\n  dup1\n    /* \"#utility.yul\":2735:2743   */\n  dup7\n    /* \"#utility.yul\":2731:2750   */\n  and\n    /* \"#utility.yul\":2724:2729   */\n  dup5\n    /* \"#utility.yul\":2721:2751   */\n  or\n    /* \"#utility.yul\":2711:2751   */\n  swap3\n  pop\n    /* \"#utility.yul\":2440:2757   */\n  pop\n  pop\n    /* \"#utility.yul\":2364:2757   */\n  swap4\n  swap3\n  pop\n  pop\n  pop\n  jump\t// out\n    /* \"#utility.yul\":2763:2840   */\ntag_27:\n    /* \"#utility.yul\":2800:2807   */\n  0x00\n    /* \"#utility.yul\":2829:2834   */\n  dup2\n    /* \"#utility.yul\":2818:2834   */\n  swap1\n  pop\n    /* \"#utility.yul\":2763:2840   */\n  swap2\n  swap1\n  pop\n  jump\t// out\n    /* \"#utility.yul\":2846:2906   */\ntag_28:\n    /* \"#utility.yul\":2874:2877   */\n  0x00\n    /* \"#utility.yul\":2895:2900   */\n  dup2\n    /* \"#utility.yul\":2888:2900   */\n  swap1\n  pop\n    /* \"#utility.yul\":2846:2906   */\n  swap2\n  swap1\n  pop\n  jump\t// out\n    /* \"#utility.yul\":2912:3054   */\ntag_29:\n    /* \"#utility.yul\":2962:2971   */\n  0x00\n    /* \"#utility.yul\":2995:3048   */\n  tag_71\n    /* \"#utility.yul\":3013:3047   */\n  tag_72\n    /* \"#utility.yul\":3022:3046   */\n  tag_73\n    /* \"#utility.yul\":3040:3045   */\n  dup5\n    /* \"#utility.yul\":3022:3046   */\n  tag_27\n  jump\t// in\ntag_73:\n    /* \"#utility.yul\":3013:3047   */\n  tag_28\n  jump\t// in\ntag_72:\n    /* \"#utility.yul\":2995:3048   */\n  tag_27\n  jump\t// in\ntag_71:\n    /* \"#utility.yul\":2982:3048   */\n  swap1\n  pop\n    /* \"#utility.yul\":2912:3054   */\n  swap2\n  swap1\n  pop\n  jump\t// out\n    /* \"#utility.yul\":3060:3135   */\ntag_30:\n    /* \"#utility.yul\":3103:3106   */\n  0x00\n    /* \"#utility.yul\":3124:3129   */\n  dup2\n    /* \"#utility.yul\":3117:3129   */\n  swap1\n  pop\n    /* \"#utility.yul\":3060:3135   */\n  swap2\n  swap1\n  pop\n  jump\t// out\n    /* \"#utility.yul\":3141:3410   */\ntag_31:\n    /* \"#utility.yul\":3251:3290   */\n  tag_76\n    /* \"#utility.yul\":3282:3289   */\n  dup4\n    /* \"#utility.yul\":3251:3290   */\n  tag_29\n  jump\t// in\ntag_76:\n    /* \"#utility.yul\":3312:3403   */\n  tag_77\n    /* \"#utility.yul\":3361:3402   */\n  tag_78\n    /* \"#utility.yul\":3385:3401   */\n  dup3\n    /* \"#utility.yul\":3361:3402   */\n  tag_30\n  jump\t// in\ntag_78:\n    /* \"#utility.yul\":3353:3359   */\n  dup5\n    /* \"#utility.yul\":3346:3350   */\n  dup5\n    /* \"#utility.yul\":3340:3351   */\n  sload\n    /* \"#utility.yul\":3312:3403   */\n  tag_26\n  jump\t// in\ntag_77:\n    /* \"#utility.yul\":3306:3310   */\n  dup3\n    /* \"#utility.yul\":3299:3404   */\n  sstore\n    /* \"#utility.yul\":3217:3410   */\n  pop\n    /* \"#utility.yul\":3141:3410   */\n  pop\n  pop\n  pop\n  jump\t// out\n    /* \"#utility.yul\":3416:3489   */\ntag_32:\n    /* \"#utility.yul\":3461:3464   */\n  0x00\n    /* \"#utility.yul\":3416:3489   */\n  swap1\n  jump\t// out\n    /* \"#utility.yul\":3495:3684   */\ntag_33:\n    /* \"#utility.yul\":3572:3604   */\n  tag_81\n  tag_32\n  jump\t// in\ntag_81:\n    /* \"#utility.yul\":3613:3678   */\n  tag_82\n    /* \"#utility.yul\":3671:3677   */\n  dup2\n    /* \"#utility.yul\":3663:3669   */\n  dup5\n    /* \"#utility.yul\":3657:3661   */\n  dup5\n    /* \"#utility.yul\":3613:3678   */\n  tag_31\n  jump\t// in\ntag_82:\n    /* \"#utility.yul\":3548:3684   */\n  pop\n    /* \"#utility.yul\":3495:3684   */\n  pop\n  pop\n  jump\t// out\n    /* \"#utility.yul\":3690:3876   */\ntag_34:\n    /* \"#utility.yul\":3750:3870   */\ntag_84:\n    /* \"#utility.yul\":3767:3770   */\n  dup2\n    /* \"#utility.yul\":3760:3765   */\n  dup2\n    /* \"#utility.yul\":3757:3771   */\n  lt\n    /* \"#utility.yul\":3750:3870   */\n  iszero\n  tag_86\n  jumpi\n    /* \"#utility.yul\":3821:3860   */\n  tag_87\n    /* \"#utility.yul\":3858:3859   */\n  0x00\n    /* \"#utility.yul\":3851:3856   */\n  dup3\n    /* \"#utility.yul\":3821:3860   */\n  tag_33\n  jump\t// in\ntag_87:\n    /* \"#utility.yul\":3794:3795   */\n  0x01\n    /* \"#utility.yul\":3787:3792   */\n  dup2\n    /* \"#utility.yul\":3783:3796   */\n  add\n    /* \"#utility.yul\":3774:3796   */\n  swap1\n  pop\n    /* \"#utility.yul\":3750:3870   */\n  jump(tag_84)\ntag_86:\n    /* \"#utility.yul\":3690:3876   */\n  pop\n  pop\n  jump\t// out\n    /* \"#utility.yul\":3882:4425   */\ntag_35:\n    /* \"#utility.yul\":3983:3985   */\n  0x1f\n    /* \"#utility.yul\":3978:3981   */\n  dup3\n    /* \"#utility.yul\":3975:3986   */\n  gt\n    /* \"#utility.yul\":3972:4418   */\n  iszero\n  tag_89\n  jumpi\n    /* \"#utility.yul\":4017:4055   */\n  tag_90\n    /* \"#utility.yul\":4049:4054   */\n  dup2\n    /* \"#utility.yul\":4017:4055   */\n  tag_23\n  jump\t// in\ntag_90:\n    /* \"#utility.yul\":4101:4130   */\n  tag_91\n    /* \"#utility.yul\":4119:4129   */\n  dup5\n    /* \"#utility.yul\":4101:4130   */\n  tag_24\n  jump\t// in\ntag_91:\n    /* \"#utility.yul\":4091:4099   */\n  dup2\n    /* \"#utility.yul\":4087:4131   */\n  add\n    /* \"#utility.yul\":4284:4286   */\n  0x20\n    /* \"#utility.yul\":4272:4282   */\n  dup6\n    /* \"#utility.yul\":4269:4287   */\n  lt\n    /* \"#utility.yul\":4266:4315   */\n  iszero\n  tag_92\n  jumpi\n    /* \"#utility.yul\":4305:4313   */\n  dup2\n    /* \"#utility.yul\":4290:4313   */\n  swap1\n  pop\n    /* \"#utility.yul\":4266:4315   */\ntag_92:\n    /* \"#utility.yul\":4328:4408   */\n  tag_93\n    /* \"#utility.yul\":4384:4406   */\n  tag_94\n    /* \"#utility.yul\":4402:4405   */\n  dup6\n    /* \"#utility.yul\":4384:4406   */\n  tag_24\n  jump\t// in\ntag_94:\n    /* \"#utility.yul\":4374:4382   */\n  dup4\n    /* \"#utility.yul\":4370:4407   */\n  add\n    /* \"#utility.yul\":4357:4368   */\n  dup3\n    /* \"#utility.yul\":4328:4408   */\n  tag_34\n  jump\t// in\ntag_93:\n    /* \"#utility.yul\":3987:4418   */\n  pop\n  pop\n    /* \"#utility.yul\":3972:4418   */\ntag_89:\n    /* \"#utility.yul\":3882:4425   */\n  pop\n  pop\n  pop\n  jump\t// out\n    /* \"#utility.yul\":4431:4548   */\ntag_36:\n    /* \"#utility.yul\":4485:4493   */\n  0x00\n    /* \"#utility.yul\":4535:4540   */\n  dup3\n    /* \"#utility.yul\":4529:4533   */\n  dup3\n    /* \"#utility.yul\":4525:4541   */\n  shr\n    /* \"#utility.yul\":4504:4541   */\n  swap1\n  pop\n    /* \"#utility.yul\":4431:4548   */\n  swap3\n  swap2\n  pop\n  pop\n  jump\t// out\n    /* \"#utility.yul\":4554:4723   */\ntag_37:\n    /* \"#utility.yul\":4598:4604   */\n  0x00\n    /* \"#utility.yul\":4631:4682   */\n  tag_97\n    /* \"#utility.yul\":4679:4680   */\n  0x00\n    /* \"#utility.yul\":4675:4681   */\n  not\n    /* \"#utility.yul\":4667:4672   */\n  dup5\n    /* \"#utility.yul\":4664:4665   */\n  0x08\n    /* \"#utility.yul\":4660:4673   */\n  mul\n    /* \"#utility.yul\":4631:4682   */\n  tag_36\n  jump\t// in\ntag_97:\n    /* \"#utility.yul\":4627:4683   */\n  not\n    /* \"#utility.yul\":4712:4716   */\n  dup1\n    /* \"#utility.yul\":4706:4710   */\n  dup4\n    /* \"#utility.yul\":4702:4717   */\n  and\n    /* \"#utility.yul\":4692:4717   */\n  swap2\n  pop\n    /* \"#utility.yul\":4605:4723   */\n  pop\n    /* \"#utility.yul\":4554:4723   */\n  swap3\n  swap2\n  pop\n  pop\n  jump\t// out\n    /* \"#utility.yul\":4728:5023   */\ntag_38:\n    /* \"#utility.yul\":4804:4808   */\n  0x00\n    /* \"#utility.yul\":4950:4979   */\n  tag_99\n    /* \"#utility.yul\":4975:4978   */\n  dup4\n    /* \"#utility.yul\":4969:4973   */\n  dup4\n    /* \"#utility.yul\":4950:4979   */\n  tag_37\n  jump\t// in\ntag_99:\n    /* \"#utility.yul\":4942:4979   */\n  swap2\n  pop\n    /* \"#utility.yul\":5012:5015   */\n  dup3\n    /* \"#utility.yul\":5009:5010   */\n  0x02\n    /* \"#utility.yul\":5005:5016   */\n  mul\n    /* \"#utility.yul\":4999:5003   */\n  dup3\n    /* \"#utility.yul\":4996:5017   */\n  or\n    /* \"#utility.yul\":4988:5017   */\n  swap1\n  pop\n    /* \"#utility.yul\":4728:5023   */\n  swap3\n  swap2\n  pop\n  pop\n  jump\t// out\n    /* \"#utility.yul\":5028:6423   */\ntag_8:\n    /* \"#utility.yul\":5145:5182   */\n  tag_101\n    /* \"#utility.yul\":5178:5181   */\n  dup3\n    /* \"#utility.yul\":5145:5182   */\n  tag_19\n  jump\t// in\ntag_101:\n    /* \"#utility.yul\":5247:5265   */\n  0xffffffffffffffff\n    /* \"#utility.yul\":5239:5245   */\n  dup2\n    /* \"#utility.yul\":5236:5266   */\n  gt\n    /* \"#utility.yul\":5233:5289   */\n  iszero\n  tag_102\n  jumpi\n    /* \"#utility.yul\":5269:5287   */\n  tag_103\n  tag_20\n  jump\t// in\ntag_103:\n    /* \"#utility.yul\":5233:5289   */\ntag_102:\n    /* \"#utility.yul\":5313:5351   */\n  tag_104\n    /* \"#utility.yul\":5345:5349   */\n  dup3\n    /* \"#utility.yul\":5339:5350   */\n  sload\n    /* \"#utility.yul\":5313:5351   */\n  tag_22\n  jump\t// in\ntag_104:\n    /* \"#utility.yul\":5398:5465   */\n  tag_105\n    /* \"#utility.yul\":5458:5464   */\n  dup3\n    /* \"#utility.yul\":5450:5456   */\n  dup3\n    /* \"#utility.yul\":5444:5448   */\n  dup6\n    /* \"#utility.yul\":5398:5465   */\n  tag_35\n  jump\t// in\ntag_105:\n    /* \"#utility.yul\":5492:5493   */\n  0x00\n    /* \"#utility.yul\":5516:5520   */\n  0x20\n    /* \"#utility.yul\":5503:5520   */\n  swap1\n  pop\n    /* \"#utility.yul\":5548:5550   */\n  0x1f\n    /* \"#utility.yul\":5540:5546   */\n  dup4\n    /* \"#utility.yul\":5537:5551   */\n  gt\n    /* \"#utility.yul\":5565:5566   */\n  0x01\n    /* \"#utility.yul\":5560:6178   */\n  dup2\n  eq\n  tag_107\n  jumpi\n    /* \"#utility.yul\":6222:6223   */\n  0x00\n    /* \"#utility.yul\":6239:6245   */\n  dup5\n    /* \"#utility.yul\":6236:6313   */\n  iszero\n  tag_108\n  jumpi\n    /* \"#utility.yul\":6288:6297   */\n  dup3\n    /* \"#utility.yul\":6283:6286   */\n  dup8\n    /* \"#utility.yul\":6279:6298   */\n  add\n    /* \"#utility.yul\":6273:6299   */\n  mload\n    /* \"#utility.yul\":6264:6299   */\n  swap1\n  pop\n    /* \"#utility.yul\":6236:6313   */\ntag_108:\n    /* \"#utility.yul\":6339:6406   */\n  tag_109\n    /* \"#utility.yul\":6399:6405   */\n  dup6\n    /* \"#utility.yul\":6392:6397   */\n  dup3\n    /* \"#utility.yul\":6339:6406   */\n  tag_38\n  jump\t// in\ntag_109:\n    /* \"#utility.yul\":6333:6337   */\n  dup7\n    /* \"#utility.yul\":6326:6407   */\n  sstore\n    /* \"#utility.yul\":6195:6417   */\n  pop\n    /* \"#utility.yul\":5530:6417   */\n  jump(tag_106)\n    /* \"#utility.yul\":5560:6178   */\ntag_107:\n    /* \"#utility.yul\":5612:5616   */\n  0x1f\n    /* \"#utility.yul\":5608:5617   */\n  not\n    /* \"#utility.yul\":5600:5606   */\n  dup5\n    /* \"#utility.yul\":5596:5618   */\n  and\n    /* \"#utility.yul\":5646:5683   */\n  tag_110\n    /* \"#utility.yul\":5678:5682   */\n  dup7\n    /* \"#utility.yul\":5646:5683   */\n  tag_23\n  jump\t// in\ntag_110:\n    /* \"#utility.yul\":5705:5706   */\n  0x00\n    /* \"#utility.yul\":5719:5927   */\ntag_111:\n    /* \"#utility.yul\":5733:5740   */\n  dup3\n    /* \"#utility.yul\":5730:5731   */\n  dup2\n    /* \"#utility.yul\":5727:5741   */\n  lt\n    /* \"#utility.yul\":5719:5927   */\n  iszero\n  tag_113\n  jumpi\n    /* \"#utility.yul\":5812:5821   */\n  dup5\n    /* \"#utility.yul\":5807:5810   */\n  dup10\n    /* \"#utility.yul\":5803:5822   */\n  add\n    /* \"#utility.yul\":5797:5823   */\n  mload\n    /* \"#utility.yul\":5789:5795   */\n  dup3\n    /* \"#utility.yul\":5782:5824   */\n  sstore\n    /* \"#utility.yul\":5863:5864   */\n  0x01\n    /* \"#utility.yul\":5855:5861   */\n  dup3\n    /* \"#utility.yul\":5851:5865   */\n  add\n    /* \"#utility.yul\":5841:5865   */\n  swap2\n  pop\n    /* \"#utility.yul\":5910:5912   */\n  0x20\n    /* \"#utility.yul\":5899:5908   */\n  dup6\n    /* \"#utility.yul\":5895:5913   */\n  add\n    /* \"#utility.yul\":5882:5913   */\n  swap5\n  pop\n    /* \"#utility.yul\":5756:5760   */\n  0x20\n    /* \"#utility.yul\":5753:5754   */\n  dup2\n    /* \"#utility.yul\":5749:5761   */\n  add\n    /* \"#utility.yul\":5744:5761   */\n  swap1\n  pop\n    /* \"#utility.yul\":5719:5927   */\n  jump(tag_111)\ntag_113:\n    /* \"#utility.yul\":5955:5961   */\n  dup7\n    /* \"#utility.yul\":5946:5953   */\n  dup4\n    /* \"#utility.yul\":5943:5962   */\n  lt\n    /* \"#utility.yul\":5940:6119   */\n  iszero\n  tag_114\n  jumpi\n    /* \"#utility.yul\":6013:6022   */\n  dup5\n    /* \"#utility.yul\":6008:6011   */\n  dup10\n    /* \"#utility.yul\":6004:6023   */\n  add\n    /* \"#utility.yul\":5998:6024   */\n  mload\n    /* \"#utility.yul\":6056:6104   */\n  tag_115\n    /* \"#utility.yul\":6098:6102   */\n  0x1f\n    /* \"#utility.yul\":6090:6096   */\n  dup10\n    /* \"#utility.yul\":6086:6103   */\n  and\n    /* \"#utility.yul\":6075:6084   */\n  dup3\n    /* \"#utility.yul\":6056:6104   */\n  tag_37\n  jump\t// in\ntag_115:\n    /* \"#utility.yul\":6048:6054   */\n  dup4\n    /* \"#utility.yul\":6041:6105   */\n  sstore\n    /* \"#utility.yul\":5963:6119   */\n  pop\n    /* \"#utility.yul\":5940:6119   */\ntag_114:\n    /* \"#utility.yul\":6165:6166   */\n  0x01\n    /* \"#utility.yul\":6161:6162   */\n  0x02\n    /* \"#utility.yul\":6153:6159   */\n  dup9\n    /* \"#utility.yul\":6149:6163   */\n  mul\n    /* \"#utility.yul\":6145:6167   */\n  add\n    /* \"#utility.yul\":6139:6143   */\n  dup9\n    /* \"#utility.yul\":6132:6168   */\n  sstore\n    /* \"#utility.yul\":5567:6178   */\n  pop\n  pop\n  pop\n    /* \"#utility.yul\":5530:6417   */\ntag_106:\n  pop\n    /* \"#utility.yul\":5120:6423   */\n  pop\n  pop\n  pop\n    /* \"#utility.yul\":5028:6423   */\n  pop\n  pop\n  jump\t// out\n    /* \"contracts/MyExchange.sol\":225:2168  contract MyExchange is ERC20 {... */\ntag_11:\n  dataSize(sub_0)\n  dup1\n  dataOffset(sub_0)\n  0x00\n  codecopy\n  0x00\n  return\nstop\n\nsub_0: assembly {\n        /* \"contracts/MyExchange.sol\":225:2168  contract MyExchange is ERC20 {... */\n      mstore(0x40, 0x80)\n      jumpi(tag_1, lt(calldatasize, 0x04))\n      shr(0xe0, calldataload(0x00))\n      dup1\n      0x51c6590a\n      gt\n      tag_16\n      jumpi\n      dup1\n      0x9c8f9f23\n      gt\n      tag_17\n      jumpi\n      dup1\n      0x9c8f9f23\n      eq\n      tag_12\n      jumpi\n      dup1\n      0x9d76ea58\n      eq\n      tag_13\n      jumpi\n      dup1\n      0xa9059cbb\n      eq\n      tag_14\n      jumpi\n      dup1\n      0xdd62ed3e\n      eq\n      tag_15\n      jumpi\n      jump(tag_1)\n    tag_17:\n      dup1\n      0x51c6590a\n      eq\n      tag_9\n      jumpi\n      dup1\n      0x70a08231\n      eq\n      tag_10\n      jumpi\n      dup1\n      0x95d89b41\n      eq\n      tag_11\n      jumpi\n      jump(tag_1)\n    tag_16:\n      dup1\n      0x23b872dd\n      gt\n      tag_18\n      jumpi\n      dup1\n      0x23b872dd\n      eq\n      tag_5\n      jumpi\n      dup1\n      0x2f80e48c\n      eq\n      tag_6\n      jumpi\n      dup1\n      0x313ce567\n      eq\n      tag_7\n      jumpi\n      dup1\n      0x4e2a43d9\n      eq\n      tag_8\n      jumpi\n      jump(tag_1)\n    tag_18:\n      dup1\n      0x06fdde03\n      eq\n      tag_2\n      jumpi\n      dup1\n      0x095ea7b3\n      eq\n      tag_3\n      jumpi\n      dup1\n      0x18160ddd\n      eq\n      tag_4\n      jumpi\n    tag_1:\n      0x00\n      dup1\n      revert\n        /* \"@openzeppelin/contracts/token/ERC20/ERC20.sol\":1779:1868  function name() public view virtual returns (string memory) {... */\n    tag_2:\n      callvalue\n      dup1\n      iszero\n      tag_19\n      jumpi\n      0x00\n      dup1\n      revert\n    tag_19:\n      pop\n      tag_20\n      tag_21\n      jump\t// in\n    tag_20:\n      mload(0x40)\n      tag_22\n      swap2\n      swap1\n      tag_23\n      jump\t// in\n    tag_22:\n      mload(0x40)\n      dup1\n      swap2\n      sub\n      swap1\n      return\n        /* \"@openzeppelin/contracts/token/ERC20/ERC20.sol\":3998:4184  function approve(address spender, uint256 value) public virtual returns (bool) {... */\n    tag_3:\n      callvalue\n      dup1\n      iszero\n      tag_24\n      jumpi\n      0x00\n      dup1\n      revert\n    tag_24:\n      pop\n      tag_25\n      0x04\n      dup1\n      calldatasize\n      sub\n      dup2\n      add\n      swap1\n      tag_26\n      swap2\n      swap1\n      tag_27\n      jump\t// in\n    tag_26:\n      tag_28\n      jump\t// in\n    tag_25:\n      mload(0x40)\n      tag_29\n      swap2\n      swap1\n      tag_30\n      jump\t// in\n    tag_29:\n      mload(0x40)\n      dup1\n      swap2\n      sub\n      swap1\n      return\n        /* \"@openzeppelin/contracts/token/ERC20/ERC20.sol\":2849:2946  function totalSupply() public view virtual returns (uint256) {... */\n    tag_4:\n      callvalue\n      dup1\n      iszero\n      tag_31\n      jumpi\n      0x00\n      dup1\n      revert\n    tag_31:\n      pop\n      tag_32\n      tag_33\n      jump\t// in\n    tag_32:\n      mload(0x40)\n      tag_34\n      swap2\n      swap1\n      tag_35\n      jump\t// in\n    tag_34:\n      mload(0x40)\n      dup1\n      swap2\n      sub\n      swap1\n      return\n        /* \"@openzeppelin/contracts/token/ERC20/ERC20.sol\":4776:5020  function transferFrom(address from, address to, uint256 value) public virtual returns (bool) {... */\n    tag_5:\n      callvalue\n      dup1\n      iszero\n      tag_36\n      jumpi\n      0x00\n      dup1\n      revert\n    tag_36:\n      pop\n      tag_37\n      0x04\n      dup1\n      calldatasize\n      sub\n      dup2\n      add\n      swap1\n      tag_38\n      swap2\n      swap1\n      tag_39\n      jump\t// in\n    tag_38:\n      tag_40\n      jump\t// in\n    tag_37:\n      mload(0x40)\n      tag_41\n      swap2\n      swap1\n      tag_30\n      jump\t// in\n    tag_41:\n      mload(0x40)\n      dup1\n      swap2\n      sub\n      swap1\n      return\n        /* \"contracts/MyExchange.sol\":932:1247  function tokenToEither(uint tokenAmount) public {... */\n    tag_6:\n      callvalue\n      dup1\n      iszero\n      tag_42\n      jumpi\n      0x00\n      dup1\n      revert\n    tag_42:\n      pop\n      tag_43\n      0x04\n      dup1\n      calldatasize\n      sub\n      dup2\n      add\n      swap1\n      tag_44\n      swap2\n      swap1\n      tag_45\n      jump\t// in\n    tag_44:\n      tag_46\n      jump\t// in\n    tag_43:\n      stop\n        /* \"@openzeppelin/contracts/token/ERC20/ERC20.sol\":2707:2789  function decimals() public view virtual returns (uint8) {... */\n    tag_7:\n      callvalue\n      dup1\n      iszero\n      tag_47\n      jumpi\n      0x00\n      dup1\n      revert\n    tag_47:\n      pop\n      tag_48\n      tag_49\n      jump\t// in\n    tag_48:\n      mload(0x40)\n      tag_50\n      swap2\n      swap1\n      tag_51\n      jump\t// in\n    tag_50:\n      mload(0x40)\n      dup1\n      swap2\n      sub\n      swap1\n      return\n        /* \"contracts/MyExchange.sol\":543:850  function eitherToToken() public payable {... */\n    tag_8:\n      tag_52\n      tag_53\n      jump\t// in\n    tag_52:\n      stop\n        /* \"contracts/MyExchange.sol\":1253:1746  function addLiquidity(uint tokenAmount) payable public {... */\n    tag_9:\n      tag_54\n      0x04\n      dup1\n      calldatasize\n      sub\n      dup2\n      add\n      swap1\n      tag_55\n      swap2\n      swap1\n      tag_45\n      jump\t// in\n    tag_55:\n      tag_56\n      jump\t// in\n    tag_54:\n      stop\n        /* \"@openzeppelin/contracts/token/ERC20/ERC20.sol\":3004:3120  function balanceOf(address account) public view virtual returns (uint256) {... */\n    tag_10:\n      callvalue\n      dup1\n      iszero\n      tag_57\n      jumpi\n      0x00\n      dup1\n      revert\n    tag_57:\n      pop\n      tag_58\n      0x04\n      dup1\n      calldatasize\n      sub\n      dup2\n      add\n      swap1\n      tag_59\n      swap2\n      swap1\n      tag_60\n      jump\t// in\n    tag_59:\n      tag_61\n      jump\t// in\n    tag_58:\n      mload(0x40)\n      tag_62\n      swap2\n      swap1\n      tag_35\n      jump\t// in\n    tag_62:\n      mload(0x40)\n      dup1\n      swap2\n      sub\n      swap1\n      return\n        /* \"@openzeppelin/contracts/token/ERC20/ERC20.sol\":1981:2074  function symbol() public view virtual returns (string memory) {... */\n    tag_11:\n      callvalue\n      dup1\n      iszero\n      tag_63\n      jumpi\n      0x00\n      dup1\n      revert\n    tag_63:\n      pop\n      tag_64\n      tag_65\n      jump\t// in\n    tag_64:\n      mload(0x40)\n      tag_66\n      swap2\n      swap1\n      tag_23\n      jump\t// in\n    tag_66:\n      mload(0x40)\n      dup1\n      swap2\n      sub\n      swap1\n      return\n        /* \"contracts/MyExchange.sol\":1752:2166  function removeLiquidity(uint lpAmount) public {... */\n    tag_12:\n      callvalue\n      dup1\n      iszero\n      tag_67\n      jumpi\n      0x00\n      dup1\n      revert\n    tag_67:\n      pop\n      tag_68\n      0x04\n      dup1\n      calldatasize\n      sub\n      dup2\n      add\n      swap1\n      tag_69\n      swap2\n      swap1\n      tag_45\n      jump\t// in\n    tag_69:\n      tag_70\n      jump\t// in\n    tag_68:\n      stop\n        /* \"contracts/MyExchange.sol\":261:288  address public tokenAddress */\n    tag_13:\n      callvalue\n      dup1\n      iszero\n      tag_71\n      jumpi\n      0x00\n      dup1\n      revert\n    tag_71:\n      pop\n      tag_72\n      tag_73\n      jump\t// in\n    tag_72:\n      mload(0x40)\n      tag_74\n      swap2\n      swap1\n      tag_75\n      jump\t// in\n    tag_74:\n      mload(0x40)\n      dup1\n      swap2\n      sub\n      swap1\n      return\n        /* \"@openzeppelin/contracts/token/ERC20/ERC20.sol\":3315:3493  function transfer(address to, uint256 value) public virtual returns (bool) {... */\n    tag_14:\n      callvalue\n      dup1\n      iszero\n      tag_76\n      jumpi\n      0x00\n      dup1\n      revert\n    tag_76:\n      pop\n      tag_77\n      0x04\n      dup1\n      calldatasize\n      sub\n      dup2\n      add\n      swap1\n      tag_78\n      swap2\n      swap1\n      tag_27\n      jump\t// in\n    tag_78:\n      tag_79\n      jump\t// in\n    tag_77:\n      mload(0x40)\n      tag_80\n      swap2\n      swap1\n      tag_30\n      jump\t// in\n    tag_80:\n      mload(0x40)\n      dup1\n      swap2\n      sub\n      swap1\n      return\n        /* \"@openzeppelin/contracts/token/ERC20/ERC20.sol\":3551:3691  function allowance(address owner, address spender) public view virtual returns (uint256) {... */\n    tag_15:\n      callvalue\n      dup1\n      iszero\n      tag_81\n      jumpi\n      0x00\n      dup1\n      revert\n    tag_81:\n      pop\n      tag_82\n      0x04\n      dup1\n      calldatasize\n      sub\n      dup2\n      add\n      swap1\n      tag_83\n      swap2\n      swap1\n      tag_84\n      jump\t// in\n    tag_83:\n      tag_85\n      jump\t// in\n    tag_82:\n      mload(0x40)\n      tag_86\n      swap2\n      swap1\n      tag_35\n      jump\t// in\n    tag_86:\n      mload(0x40)\n      dup1\n      swap2\n      sub\n      swap1\n      return\n        /* \"@openzeppelin/contracts/token/ERC20/ERC20.sol\":1779:1868  function name() public view virtual returns (string memory) {... */\n    tag_21:\n        /* \"@openzeppelin/contracts/token/ERC20/ERC20.sol\":1824:1837  string memory */\n      0x60\n        /* \"@openzeppelin/contracts/token/ERC20/ERC20.sol\":1856:1861  _name */\n      0x03\n        /* \"@openzeppelin/contracts/token/ERC20/ERC20.sol\":1849:1861  return _name */\n      dup1\n      sload\n      tag_88\n      swap1\n      tag_89\n      jump\t// in\n    tag_88:\n      dup1\n      0x1f\n      add\n      0x20\n      dup1\n      swap2\n      div\n      mul\n      0x20\n      add\n      mload(0x40)\n      swap1\n      dup2\n      add\n      0x40\n      mstore\n      dup1\n      swap3\n      swap2\n      swap1\n      dup2\n      dup2\n      mstore\n      0x20\n      add\n      dup3\n      dup1\n      sload\n      tag_90\n      swap1\n      tag_89\n      jump\t// in\n    tag_90:\n      dup1\n      iszero\n      tag_91\n      jumpi\n      dup1\n      0x1f\n      lt\n      tag_92\n      jumpi\n      0x0100\n      dup1\n      dup4\n      sload\n      div\n      mul\n      dup4\n      mstore\n      swap2\n      0x20\n      add\n      swap2\n      jump(tag_91)\n    tag_92:\n      dup3\n      add\n      swap2\n      swap1\n      0x00\n      mstore\n      keccak256(0x00, 0x20)\n      swap1\n    tag_93:\n      dup2\n      sload\n      dup2\n      mstore\n      swap1\n      0x01\n      add\n      swap1\n      0x20\n      add\n      dup1\n      dup4\n      gt\n      tag_93\n      jumpi\n      dup3\n      swap1\n      sub\n      0x1f\n      and\n      dup3\n      add\n      swap2\n    tag_91:\n      pop\n      pop\n      pop\n      pop\n      pop\n      swap1\n      pop\n        /* \"@openzeppelin/contracts/token/ERC20/ERC20.sol\":1779:1868  function name() public view virtual returns (string memory) {... */\n      swap1\n      jump\t// out\n        /* \"@openzeppelin/contracts/token/ERC20/ERC20.sol\":3998:4184  function approve(address spender, uint256 value) public virtual returns (bool) {... */\n    tag_28:\n        /* \"@openzeppelin/contracts/token/ERC20/ERC20.sol\":4071:4075  bool */\n      0x00\n        /* \"@openzeppelin/contracts/token/ERC20/ERC20.sol\":4087:4100  address owner */\n      dup1\n        /* \"@openzeppelin/contracts/token/ERC20/ERC20.sol\":4103:4115  _msgSender() */\n      tag_95\n        /* \"@openzeppelin/contracts/token/ERC20/ERC20.sol\":4103:4113  _msgSender */\n      tag_96\n        /* \"@openzeppelin/contracts/token/ERC20/ERC20.sol\":4103:4115  _msgSender() */\n      jump\t// in\n    tag_95:\n        /* \"@openzeppelin/contracts/token/ERC20/ERC20.sol\":4087:4115  address owner = _msgSender() */\n      swap1\n      pop\n        /* \"@openzeppelin/contracts/token/ERC20/ERC20.sol\":4125:4156  _approve(owner, spender, value) */\n      tag_97\n        /* \"@openzeppelin/contracts/token/ERC20/ERC20.sol\":4134:4139  owner */\n      dup2\n        /* \"@openzeppelin/contracts/token/ERC20/ERC20.sol\":4141:4148  spender */\n      dup6\n        /* \"@openzeppelin/contracts/token/ERC20/ERC20.sol\":4150:4155  value */\n      dup6\n        /* \"@openzeppelin/contracts/token/ERC20/ERC20.sol\":4125:4133  _approve */\n      tag_98\n        /* \"@openzeppelin/contracts/token/ERC20/ERC20.sol\":4125:4156  _approve(owner, spender, value) */\n      jump\t// in\n    tag_97:\n        /* \"@openzeppelin/contracts/token/ERC20/ERC20.sol\":4173:4177  true */\n      0x01\n        /* \"@openzeppelin/contracts/token/ERC20/ERC20.sol\":4166:4177  return true */\n      swap2\n      pop\n      pop\n        /* \"@openzeppelin/contracts/token/ERC20/ERC20.sol\":3998:4184  function approve(address spender, uint256 value) public virtual returns (bool) {... */\n      swap3\n      swap2\n      pop\n      pop\n      jump\t// out\n        /* \"@openzeppelin/contracts/token/ERC20/ERC20.sol\":2849:2946  function totalSupply() public view virtual returns (uint256) {... */\n    tag_33:\n        /* \"@openzeppelin/contracts/token/ERC20/ERC20.sol\":2901:2908  uint256 */\n      0x00\n        /* \"@openzeppelin/contracts/token/ERC20/ERC20.sol\":2927:2939  _totalSupply */\n      sload(0x02)\n        /* \"@openzeppelin/contracts/token/ERC20/ERC20.sol\":2920:2939  return _totalSupply */\n      swap1\n      pop\n        /* \"@openzeppelin/contracts/token/ERC20/ERC20.sol\":2849:2946  function totalSupply() public view virtual returns (uint256) {... */\n      swap1\n      jump\t// out\n        /* \"@openzeppelin/contracts/token/ERC20/ERC20.sol\":4776:5020  function transferFrom(address from, address to, uint256 value) public virtual returns (bool) {... */\n    tag_40:\n        /* \"@openzeppelin/contracts/token/ERC20/ERC20.sol\":4863:4867  bool */\n      0x00\n        /* \"@openzeppelin/contracts/token/ERC20/ERC20.sol\":4879:4894  address spender */\n      dup1\n        /* \"@openzeppelin/contracts/token/ERC20/ERC20.sol\":4897:4909  _msgSender() */\n      tag_101\n        /* \"@openzeppelin/contracts/token/ERC20/ERC20.sol\":4897:4907  _msgSender */\n      tag_96\n        /* \"@openzeppelin/contracts/token/ERC20/ERC20.sol\":4897:4909  _msgSender() */\n      jump\t// in\n    tag_101:\n        /* \"@openzeppelin/contracts/token/ERC20/ERC20.sol\":4879:4909  address spender = _msgSender() */\n      swap1\n      pop\n        /* \"@openzeppelin/contracts/token/ERC20/ERC20.sol\":4919:4956  _spendAllowance(from, spender, value) */\n      tag_102\n        /* \"@openzeppelin/contracts/token/ERC20/ERC20.sol\":4935:4939  from */\n      dup6\n        /* \"@openzeppelin/contracts/token/ERC20/ERC20.sol\":4941:4948  spender */\n      dup3\n        /* \"@openzeppelin/contracts/token/ERC20/ERC20.sol\":4950:4955  value */\n      dup6\n        /* \"@openzeppelin/contracts/token/ERC20/ERC20.sol\":4919:4934  _spendAllowance */\n      tag_103\n        /* \"@openzeppelin/contracts/token/ERC20/ERC20.sol\":4919:4956  _spendAllowance(from, spender, value) */\n      jump\t// in\n    tag_102:\n        /* \"@openzeppelin/contracts/token/ERC20/ERC20.sol\":4966:4992  _transfer(from, to, value) */\n      tag_104\n        /* \"@openzeppelin/contracts/token/ERC20/ERC20.sol\":4976:4980  from */\n      dup6\n        /* \"@openzeppelin/contracts/token/ERC20/ERC20.sol\":4982:4984  to */\n      dup6\n        /* \"@openzeppelin/contracts/token/ERC20/ERC20.sol\":4986:4991  value */\n      dup6\n        /* \"@openzeppelin/contracts/token/ERC20/ERC20.sol\":4966:4975  _transfer */\n      tag_105\n        /* \"@openzeppelin/contracts/token/ERC20/ERC20.sol\":4966:4992  _transfer(from, to, value) */\n      jump\t// in\n    tag_104:\n        /* \"@openzeppelin/contracts/token/ERC20/ERC20.sol\":5009:5013  true */\n      0x01\n        /* \"@openzeppelin/contracts/token/ERC20/ERC20.sol\":5002:5013  return true */\n      swap2\n      pop\n      pop\n        /* \"@openzeppelin/contracts/token/ERC20/ERC20.sol\":4776:5020  function transferFrom(address from, address to, uint256 value) public virtual returns (bool) {... */\n      swap4\n      swap3\n      pop\n      pop\n      pop\n      jump\t// out\n        /* \"contracts/MyExchange.sol\":932:1247  function tokenToEither(uint tokenAmount) public {... */\n    tag_46:\n        /* \"contracts/MyExchange.sol\":990:1006  address swapUser */\n      0x00\n        /* \"contracts/MyExchange.sol\":1009:1019  msg.sender */\n      caller\n        /* \"contracts/MyExchange.sol\":990:1019  address swapUser = msg.sender */\n      swap1\n      pop\n        /* \"contracts/MyExchange.sol\":1029:1046  uint eitherAmount */\n      0x00\n        /* \"contracts/MyExchange.sol\":1063:1070  1 ether */\n      0x0de0b6b3a7640000\n        /* \"contracts/MyExchange.sol\":1049:1060  tokenAmount */\n      dup4\n        /* \"contracts/MyExchange.sol\":1049:1070  tokenAmount * 1 ether */\n      tag_107\n      swap2\n      swap1\n      tag_108\n      jump\t// in\n    tag_107:\n        /* \"contracts/MyExchange.sol\":1029:1070  uint eitherAmount = tokenAmount * 1 ether */\n      swap1\n      pop\n        /* \"contracts/MyExchange.sol\":1124:1130  tokenA */\n      0x06\n      0x00\n      swap1\n      sload\n      swap1\n      0x0100\n      exp\n      swap1\n      div\n      0xffffffffffffffffffffffffffffffffffffffff\n      and\n        /* \"contracts/MyExchange.sol\":1124:1143  tokenA.transferFrom */\n      0xffffffffffffffffffffffffffffffffffffffff\n      and\n      0x23b872dd\n        /* \"contracts/MyExchange.sol\":1144:1152  swapUser */\n      dup4\n        /* \"contracts/MyExchange.sol\":1162:1166  this */\n      address\n        /* \"contracts/MyExchange.sol\":1169:1180  tokenAmount */\n      dup7\n        /* \"contracts/MyExchange.sol\":1124:1181  tokenA.transferFrom(swapUser, address(this), tokenAmount) */\n      mload(0x40)\n      dup5\n      0xffffffff\n      and\n      0xe0\n      shl\n      dup2\n      mstore\n      0x04\n      add\n      tag_109\n      swap4\n      swap3\n      swap2\n      swap1\n      tag_110\n      jump\t// in\n    tag_109:\n      0x20\n      mload(0x40)\n      dup1\n      dup4\n      sub\n      dup2\n      0x00\n      dup8\n      gas\n      call\n      iszero\n      dup1\n      iszero\n      tag_112\n      jumpi\n      returndatasize\n      0x00\n      dup1\n      returndatacopy\n      revert(0x00, returndatasize)\n    tag_112:\n      pop\n      pop\n      pop\n      pop\n      mload(0x40)\n      returndatasize\n      not(0x1f)\n      0x1f\n      dup3\n      add\n      and\n      dup3\n      add\n      dup1\n      0x40\n      mstore\n      pop\n      dup2\n      add\n      swap1\n      tag_113\n      swap2\n      swap1\n      tag_114\n      jump\t// in\n    tag_113:\n      pop\n        /* \"contracts/MyExchange.sol\":1208:1216  swapUser */\n      dup2\n        /* \"contracts/MyExchange.sol\":1200:1226  payable(swapUser).transfer */\n      0xffffffffffffffffffffffffffffffffffffffff\n      and\n        /* \"contracts/MyExchange.sol\":1200:1240  payable(swapUser).transfer(eitherAmount) */\n      0x08fc\n        /* \"contracts/MyExchange.sol\":1227:1239  eitherAmount */\n      dup3\n        /* \"contracts/MyExchange.sol\":1200:1240  payable(swapUser).transfer(eitherAmount) */\n      swap1\n      dup2\n      iszero\n      mul\n      swap1\n      mload(0x40)\n      0x00\n      mload(0x40)\n      dup1\n      dup4\n      sub\n      dup2\n      dup6\n      dup9\n      dup9\n      call\n      swap4\n      pop\n      pop\n      pop\n      pop\n      iszero\n      dup1\n      iszero\n      tag_116\n      jumpi\n      returndatasize\n      0x00\n      dup1\n      returndatacopy\n      revert(0x00, returndatasize)\n    tag_116:\n      pop\n        /* \"contracts/MyExchange.sol\":980:1247  {... */\n      pop\n      pop\n        /* \"contracts/MyExchange.sol\":932:1247  function tokenToEither(uint tokenAmount) public {... */\n      pop\n      jump\t// out\n        /* \"@openzeppelin/contracts/token/ERC20/ERC20.sol\":2707:2789  function decimals() public view virtual returns (uint8) {... */\n    tag_49:\n        /* \"@openzeppelin/contracts/token/ERC20/ERC20.sol\":2756:2761  uint8 */\n      0x00\n        /* \"@openzeppelin/contracts/token/ERC20/ERC20.sol\":2780:2782  18 */\n      0x12\n        /* \"@openzeppelin/contracts/token/ERC20/ERC20.sol\":2773:2782  return 18 */\n      swap1\n      pop\n        /* \"@openzeppelin/contracts/token/ERC20/ERC20.sol\":2707:2789  function decimals() public view virtual returns (uint8) {... */\n      swap1\n      jump\t// out\n        /* \"contracts/MyExchange.sol\":543:850  function eitherToToken() public payable {... */\n    tag_53:\n        /* \"contracts/MyExchange.sol\":593:609  address swapUser */\n      0x00\n        /* \"contracts/MyExchange.sol\":612:622  msg.sender */\n      caller\n        /* \"contracts/MyExchange.sol\":593:622  address swapUser = msg.sender */\n      swap1\n      pop\n        /* \"contracts/MyExchange.sol\":632:649  uint eitherAmount */\n      0x00\n        /* \"contracts/MyExchange.sol\":664:671  1 ether */\n      0x0de0b6b3a7640000\n        /* \"contracts/MyExchange.sol\":652:661  msg.value */\n      callvalue\n        /* \"contracts/MyExchange.sol\":652:671  msg.value / 1 ether */\n      tag_119\n      swap2\n      swap1\n      tag_120\n      jump\t// in\n    tag_119:\n        /* \"contracts/MyExchange.sol\":632:671  uint eitherAmount = msg.value / 1 ether */\n      swap1\n      pop\n        /* \"contracts/MyExchange.sol\":725:741  uint tokenAmount */\n      0x00\n        /* \"contracts/MyExchange.sol\":744:756  eitherAmount */\n      dup2\n        /* \"contracts/MyExchange.sol\":725:756  uint tokenAmount = eitherAmount */\n      swap1\n      pop\n        /* \"contracts/MyExchange.sol\":805:811  tokenA */\n      0x06\n      0x00\n      swap1\n      sload\n      swap1\n      0x0100\n      exp\n      swap1\n      div\n      0xffffffffffffffffffffffffffffffffffffffff\n      and\n        /* \"contracts/MyExchange.sol\":805:820  tokenA.transfer */\n      0xffffffffffffffffffffffffffffffffffffffff\n      and\n      0xa9059cbb\n        /* \"contracts/MyExchange.sol\":821:829  swapUser */\n      dup5\n        /* \"contracts/MyExchange.sol\":831:842  tokenAmount */\n      dup4\n        /* \"contracts/MyExchange.sol\":805:843  tokenA.transfer(swapUser, tokenAmount) */\n      mload(0x40)\n      dup4\n      0xffffffff\n      and\n      0xe0\n      shl\n      dup2\n      mstore\n      0x04\n      add\n      tag_121\n      swap3\n      swap2\n      swap1\n      tag_122\n      jump\t// in\n    tag_121:\n      0x20\n      mload(0x40)\n      dup1\n      dup4\n      sub\n      dup2\n      0x00\n      dup8\n      gas\n      call\n      iszero\n      dup1\n      iszero\n      tag_124\n      jumpi\n      returndatasize\n      0x00\n      dup1\n      returndatacopy\n      revert(0x00, returndatasize)\n    tag_124:\n      pop\n      pop\n      pop\n      pop\n      mload(0x40)\n      returndatasize\n      not(0x1f)\n      0x1f\n      dup3\n      add\n      and\n      dup3\n      add\n      dup1\n      0x40\n      mstore\n      pop\n      dup2\n      add\n      swap1\n      tag_125\n      swap2\n      swap1\n      tag_114\n      jump\t// in\n    tag_125:\n      pop\n        /* \"contracts/MyExchange.sol\":583:850  {... */\n      pop\n      pop\n      pop\n        /* \"contracts/MyExchange.sol\":543:850  function eitherToToken() public payable {... */\n      jump\t// out\n        /* \"contracts/MyExchange.sol\":1253:1746  function addLiquidity(uint tokenAmount) payable public {... */\n    tag_56:\n        /* \"contracts/MyExchange.sol\":1318:1335  uint eitherAmount */\n      0x00\n        /* \"contracts/MyExchange.sol\":1338:1347  msg.value */\n      callvalue\n        /* \"contracts/MyExchange.sol\":1318:1347  uint eitherAmount = msg.value */\n      swap1\n      pop\n        /* \"contracts/MyExchange.sol\":1395:1402  1 ether */\n      0x0de0b6b3a7640000\n        /* \"contracts/MyExchange.sol\":1381:1392  tokenAmount */\n      dup3\n        /* \"contracts/MyExchange.sol\":1381:1402  tokenAmount * 1 ether */\n      tag_127\n      swap2\n      swap1\n      tag_108\n      jump\t// in\n    tag_127:\n        /* \"contracts/MyExchange.sol\":1365:1377  eitherAmount */\n      dup2\n        /* \"contracts/MyExchange.sol\":1365:1402  eitherAmount == tokenAmount * 1 ether */\n      eq\n        /* \"contracts/MyExchange.sol\":1357:1428  require(eitherAmount == tokenAmount * 1 ether, \"Should Ether = TokenA\") */\n      tag_128\n      jumpi\n      mload(0x40)\n      0x08c379a000000000000000000000000000000000000000000000000000000000\n      dup2\n      mstore\n      0x04\n      add\n      tag_129\n      swap1\n      tag_130\n      jump\t// in\n    tag_129:\n      mload(0x40)\n      dup1\n      swap2\n      sub\n      swap1\n      revert\n    tag_128:\n        /* \"contracts/MyExchange.sol\":1438:1454  address provider */\n      0x00\n        /* \"contracts/MyExchange.sol\":1457:1467  msg.sender */\n      caller\n        /* \"contracts/MyExchange.sol\":1438:1467  address provider = msg.sender */\n      swap1\n      pop\n        /* \"contracts/MyExchange.sol\":1557:1563  tokenA */\n      0x06\n      0x00\n      swap1\n      sload\n      swap1\n      0x0100\n      exp\n      swap1\n      div\n      0xffffffffffffffffffffffffffffffffffffffff\n      and\n        /* \"contracts/MyExchange.sol\":1557:1576  tokenA.transferFrom */\n      0xffffffffffffffffffffffffffffffffffffffff\n      and\n      0x23b872dd\n        /* \"contracts/MyExchange.sol\":1577:1585  provider */\n      dup3\n        /* \"contracts/MyExchange.sol\":1595:1599  this */\n      address\n        /* \"contracts/MyExchange.sol\":1602:1613  tokenAmount */\n      dup7\n        /* \"contracts/MyExchange.sol\":1557:1614  tokenA.transferFrom(provider, address(this), tokenAmount) */\n      mload(0x40)\n      dup5\n      0xffffffff\n      and\n      0xe0\n      shl\n      dup2\n      mstore\n      0x04\n      add\n      tag_131\n      swap4\n      swap3\n      swap2\n      swap1\n      tag_110\n      jump\t// in\n    tag_131:\n      0x20\n      mload(0x40)\n      dup1\n      dup4\n      sub\n      dup2\n      0x00\n      dup8\n      gas\n      call\n      iszero\n      dup1\n      iszero\n      tag_133\n      jumpi\n      returndatasize\n      0x00\n      dup1\n      returndatacopy\n      revert(0x00, returndatasize)\n    tag_133:\n      pop\n      pop\n      pop\n      pop\n      mload(0x40)\n      returndatasize\n      not(0x1f)\n      0x1f\n      dup3\n      add\n      and\n      dup3\n      add\n      dup1\n      0x40\n      mstore\n      pop\n      dup2\n      add\n      swap1\n      tag_134\n      swap2\n      swap1\n      tag_114\n      jump\t// in\n    tag_134:\n      pop\n        /* \"contracts/MyExchange.sol\":1624:1637  uint lpAmount */\n      0x00\n        /* \"contracts/MyExchange.sol\":1640:1651  tokenAmount */\n      dup4\n        /* \"contracts/MyExchange.sol\":1624:1651  uint lpAmount = tokenAmount */\n      swap1\n      pop\n        /* \"contracts/MyExchange.sol\":1714:1739  _mint(provider, lpAmount) */\n      tag_135\n        /* \"contracts/MyExchange.sol\":1720:1728  provider */\n      dup3\n        /* \"contracts/MyExchange.sol\":1730:1738  lpAmount */\n      dup3\n        /* \"contracts/MyExchange.sol\":1714:1719  _mint */\n      tag_136\n        /* \"contracts/MyExchange.sol\":1714:1739  _mint(provider, lpAmount) */\n      jump\t// in\n    tag_135:\n        /* \"contracts/MyExchange.sol\":1308:1746  {... */\n      pop\n      pop\n      pop\n        /* \"contracts/MyExchange.sol\":1253:1746  function addLiquidity(uint tokenAmount) payable public {... */\n      pop\n      jump\t// out\n        /* \"@openzeppelin/contracts/token/ERC20/ERC20.sol\":3004:3120  function balanceOf(address account) public view virtual returns (uint256) {... */\n    tag_61:\n        /* \"@openzeppelin/contracts/token/ERC20/ERC20.sol\":3069:3076  uint256 */\n      0x00\n        /* \"@openzeppelin/contracts/token/ERC20/ERC20.sol\":3095:3104  _balances */\n      dup1\n        /* \"@openzeppelin/contracts/token/ERC20/ERC20.sol\":3095:3113  _balances[account] */\n      0x00\n        /* \"@openzeppelin/contracts/token/ERC20/ERC20.sol\":3105:3112  account */\n      dup4\n        /* \"@openzeppelin/contracts/token/ERC20/ERC20.sol\":3095:3113  _balances[account] */\n      0xffffffffffffffffffffffffffffffffffffffff\n      and\n      0xffffffffffffffffffffffffffffffffffffffff\n      and\n      dup2\n      mstore\n      0x20\n      add\n      swap1\n      dup2\n      mstore\n      0x20\n      add\n      0x00\n      keccak256\n      sload\n        /* \"@openzeppelin/contracts/token/ERC20/ERC20.sol\":3088:3113  return _balances[account] */\n      swap1\n      pop\n        /* \"@openzeppelin/contracts/token/ERC20/ERC20.sol\":3004:3120  function balanceOf(address account) public view virtual returns (uint256) {... */\n      swap2\n      swap1\n      pop\n      jump\t// out\n        /* \"@openzeppelin/contracts/token/ERC20/ERC20.sol\":1981:2074  function symbol() public view virtual returns (string memory) {... */\n    tag_65:\n        /* \"@openzeppelin/contracts/token/ERC20/ERC20.sol\":2028:2041  string memory */\n      0x60\n        /* \"@openzeppelin/contracts/token/ERC20/ERC20.sol\":2060:2067  _symbol */\n      0x04\n        /* \"@openzeppelin/contracts/token/ERC20/ERC20.sol\":2053:2067  return _symbol */\n      dup1\n      sload\n      tag_139\n      swap1\n      tag_89\n      jump\t// in\n    tag_139:\n      dup1\n      0x1f\n      add\n      0x20\n      dup1\n      swap2\n      div\n      mul\n      0x20\n      add\n      mload(0x40)\n      swap1\n      dup2\n      add\n      0x40\n      mstore\n      dup1\n      swap3\n      swap2\n      swap1\n      dup2\n      dup2\n      mstore\n      0x20\n      add\n      dup3\n      dup1\n      sload\n      tag_140\n      swap1\n      tag_89\n      jump\t// in\n    tag_140:\n      dup1\n      iszero\n      tag_141\n      jumpi\n      dup1\n      0x1f\n      lt\n      tag_142\n      jumpi\n      0x0100\n      dup1\n      dup4\n      sload\n      div\n      mul\n      dup4\n      mstore\n      swap2\n      0x20\n      add\n      swap2\n      jump(tag_141)\n    tag_142:\n      dup3\n      add\n      swap2\n      swap1\n      0x00\n      mstore\n      keccak256(0x00, 0x20)\n      swap1\n    tag_143:\n      dup2\n      sload\n      dup2\n      mstore\n      swap1\n      0x01\n      add\n      swap1\n      0x20\n      add\n      dup1\n      dup4\n      gt\n      tag_143\n      jumpi\n      dup3\n      swap1\n      sub\n      0x1f\n      and\n      dup3\n      add\n      swap2\n    tag_141:\n      pop\n      pop\n      pop\n      pop\n      pop\n      swap1\n      pop\n        /* \"@openzeppelin/contracts/token/ERC20/ERC20.sol\":1981:2074  function symbol() public view virtual returns (string memory) {... */\n      swap1\n      jump\t// out\n        /* \"contracts/MyExchange.sol\":1752:2166  function removeLiquidity(uint lpAmount) public {... */\n    tag_70:\n        /* \"contracts/MyExchange.sol\":1809:1825  address provider */\n      0x00\n        /* \"contracts/MyExchange.sol\":1828:1838  msg.sender */\n      caller\n        /* \"contracts/MyExchange.sol\":1809:1838  address provider = msg.sender */\n      swap1\n      pop\n        /* \"contracts/MyExchange.sol\":1848:1873  _burn(provider, lpAmount) */\n      tag_145\n        /* \"contracts/MyExchange.sol\":1854:1862  provider */\n      dup2\n        /* \"contracts/MyExchange.sol\":1864:1872  lpAmount */\n      dup4\n        /* \"contracts/MyExchange.sol\":1848:1853  _burn */\n      tag_146\n        /* \"contracts/MyExchange.sol\":1848:1873  _burn(provider, lpAmount) */\n      jump\t// in\n    tag_145:\n        /* \"contracts/MyExchange.sol\":1883:1899  uint tokenAmount */\n      0x00\n        /* \"contracts/MyExchange.sol\":1902:1910  lpAmount */\n      dup3\n        /* \"contracts/MyExchange.sol\":1883:1910  uint tokenAmount = lpAmount */\n      swap1\n      pop\n        /* \"contracts/MyExchange.sol\":1920:1937  uint eitherAmount */\n      0x00\n        /* \"contracts/MyExchange.sol\":1951:1958  1 ether */\n      0x0de0b6b3a7640000\n        /* \"contracts/MyExchange.sol\":1940:1948  lpAmount */\n      dup5\n        /* \"contracts/MyExchange.sol\":1940:1958  lpAmount * 1 ether */\n      tag_147\n      swap2\n      swap1\n      tag_108\n      jump\t// in\n    tag_147:\n        /* \"contracts/MyExchange.sol\":1920:1958  uint eitherAmount = lpAmount * 1 ether */\n      swap1\n      pop\n        /* \"contracts/MyExchange.sol\":2026:2034  provider */\n      dup3\n        /* \"contracts/MyExchange.sol\":2018:2044  payable(provider).transfer */\n      0xffffffffffffffffffffffffffffffffffffffff\n      and\n        /* \"contracts/MyExchange.sol\":2018:2058  payable(provider).transfer(eitherAmount) */\n      0x08fc\n        /* \"contracts/MyExchange.sol\":2045:2057  eitherAmount */\n      dup3\n        /* \"contracts/MyExchange.sol\":2018:2058  payable(provider).transfer(eitherAmount) */\n      swap1\n      dup2\n      iszero\n      mul\n      swap1\n      mload(0x40)\n      0x00\n      mload(0x40)\n      dup1\n      dup4\n      sub\n      dup2\n      dup6\n      dup9\n      dup9\n      call\n      swap4\n      pop\n      pop\n      pop\n      pop\n      iszero\n      dup1\n      iszero\n      tag_149\n      jumpi\n      returndatasize\n      0x00\n      dup1\n      returndatacopy\n      revert(0x00, returndatasize)\n    tag_149:\n      pop\n        /* \"contracts/MyExchange.sol\":2121:2127  tokenA */\n      0x06\n      0x00\n      swap1\n      sload\n      swap1\n      0x0100\n      exp\n      swap1\n      div\n      0xffffffffffffffffffffffffffffffffffffffff\n      and\n        /* \"contracts/MyExchange.sol\":2121:2136  tokenA.transfer */\n      0xffffffffffffffffffffffffffffffffffffffff\n      and\n      0xa9059cbb\n        /* \"contracts/MyExchange.sol\":2137:2145  provider */\n      dup5\n        /* \"contracts/MyExchange.sol\":2147:2158  tokenAmount */\n      dup5\n        /* \"contracts/MyExchange.sol\":2121:2159  tokenA.transfer(provider, tokenAmount) */\n      mload(0x40)\n      dup4\n      0xffffffff\n      and\n      0xe0\n      shl\n      dup2\n      mstore\n      0x04\n      add\n      tag_150\n      swap3\n      swap2\n      swap1\n      tag_122\n      jump\t// in\n    tag_150:\n      0x20\n      mload(0x40)\n      dup1\n      dup4\n      sub\n      dup2\n      0x00\n      dup8\n      gas\n      call\n      iszero\n      dup1\n      iszero\n      tag_152\n      jumpi\n      returndatasize\n      0x00\n      dup1\n      returndatacopy\n      revert(0x00, returndatasize)\n    tag_152:\n      pop\n      pop\n      pop\n      pop\n      mload(0x40)\n      returndatasize\n      not(0x1f)\n      0x1f\n      dup3\n      add\n      and\n      dup3\n      add\n      dup1\n      0x40\n      mstore\n      pop\n      dup2\n      add\n      swap1\n      tag_153\n      swap2\n      swap1\n      tag_114\n      jump\t// in\n    tag_153:\n      pop\n        /* \"contracts/MyExchange.sol\":1799:2166  {... */\n      pop\n      pop\n      pop\n        /* \"contracts/MyExchange.sol\":1752:2166  function removeLiquidity(uint lpAmount) public {... */\n      pop\n      jump\t// out\n        /* \"contracts/MyExchange.sol\":261:288  address public tokenAddress */\n    tag_73:\n      0x05\n      0x00\n      swap1\n      sload\n      swap1\n      0x0100\n      exp\n      swap1\n      div\n      0xffffffffffffffffffffffffffffffffffffffff\n      and\n      dup2\n      jump\t// out\n        /* \"@openzeppelin/contracts/token/ERC20/ERC20.sol\":3315:3493  function transfer(address to, uint256 value) public virtual returns (bool) {... */\n    tag_79:\n        /* \"@openzeppelin/contracts/token/ERC20/ERC20.sol\":3384:3388  bool */\n      0x00\n        /* \"@openzeppelin/contracts/token/ERC20/ERC20.sol\":3400:3413  address owner */\n      dup1\n        /* \"@openzeppelin/contracts/token/ERC20/ERC20.sol\":3416:3428  _msgSender() */\n      tag_155\n        /* \"@openzeppelin/contracts/token/ERC20/ERC20.sol\":3416:3426  _msgSender */\n      tag_96\n        /* \"@openzeppelin/contracts/token/ERC20/ERC20.sol\":3416:3428  _msgSender() */\n      jump\t// in\n    tag_155:\n        /* \"@openzeppelin/contracts/token/ERC20/ERC20.sol\":3400:3428  address owner = _msgSender() */\n      swap1\n      pop\n        /* \"@openzeppelin/contracts/token/ERC20/ERC20.sol\":3438:3465  _transfer(owner, to, value) */\n      tag_156\n        /* \"@openzeppelin/contracts/token/ERC20/ERC20.sol\":3448:3453  owner */\n      dup2\n        /* \"@openzeppelin/contracts/token/ERC20/ERC20.sol\":3455:3457  to */\n      dup6\n        /* \"@openzeppelin/contracts/token/ERC20/ERC20.sol\":3459:3464  value */\n      dup6\n        /* \"@openzeppelin/contracts/token/ERC20/ERC20.sol\":3438:3447  _transfer */\n      tag_105\n        /* \"@openzeppelin/contracts/token/ERC20/ERC20.sol\":3438:3465  _transfer(owner, to, value) */\n      jump\t// in\n    tag_156:\n        /* \"@openzeppelin/contracts/token/ERC20/ERC20.sol\":3482:3486  true */\n      0x01\n        /* \"@openzeppelin/contracts/token/ERC20/ERC20.sol\":3475:3486  return true */\n      swap2\n      pop\n      pop\n        /* \"@openzeppelin/contracts/token/ERC20/ERC20.sol\":3315:3493  function transfer(address to, uint256 value) public virtual returns (bool) {... */\n      swap3\n      swap2\n      pop\n      pop\n      jump\t// out\n        /* \"@openzeppelin/contracts/token/ERC20/ERC20.sol\":3551:3691  function allowance(address owner, address spender) public view virtual returns (uint256) {... */\n    tag_85:\n        /* \"@openzeppelin/contracts/token/ERC20/ERC20.sol\":3631:3638  uint256 */\n      0x00\n        /* \"@openzeppelin/contracts/token/ERC20/ERC20.sol\":3657:3668  _allowances */\n      0x01\n        /* \"@openzeppelin/contracts/token/ERC20/ERC20.sol\":3657:3675  _allowances[owner] */\n      0x00\n        /* \"@openzeppelin/contracts/token/ERC20/ERC20.sol\":3669:3674  owner */\n      dup5\n        /* \"@openzeppelin/contracts/token/ERC20/ERC20.sol\":3657:3675  _allowances[owner] */\n      0xffffffffffffffffffffffffffffffffffffffff\n      and\n      0xffffffffffffffffffffffffffffffffffffffff\n      and\n      dup2\n      mstore\n      0x20\n      add\n      swap1\n      dup2\n      mstore\n      0x20\n      add\n      0x00\n      keccak256\n        /* \"@openzeppelin/contracts/token/ERC20/ERC20.sol\":3657:3684  _allowances[owner][spender] */\n      0x00\n        /* \"@openzeppelin/contracts/token/ERC20/ERC20.sol\":3676:3683  spender */\n      dup4\n        /* \"@openzeppelin/contracts/token/ERC20/ERC20.sol\":3657:3684  _allowances[owner][spender] */\n      0xffffffffffffffffffffffffffffffffffffffff\n      and\n      0xffffffffffffffffffffffffffffffffffffffff\n      and\n      dup2\n      mstore\n      0x20\n      add\n      swap1\n      dup2\n      mstore\n      0x20\n      add\n      0x00\n      keccak256\n      sload\n        /* \"@openzeppelin/contracts/token/ERC20/ERC20.sol\":3650:3684  return _allowances[owner][spender] */\n      swap1\n      pop\n        /* \"@openzeppelin/contracts/token/ERC20/ERC20.sol\":3551:3691  function allowance(address owner, address spender) public view virtual returns (uint256) {... */\n      swap3\n      swap2\n      pop\n      pop\n      jump\t// out\n        /* \"@openzeppelin/contracts/utils/Context.sol\":656:752  function _msgSender() internal view virtual returns (address) {... */\n    tag_96:\n        /* \"@openzeppelin/contracts/utils/Context.sol\":709:716  address */\n      0x00\n        /* \"@openzeppelin/contracts/utils/Context.sol\":735:745  msg.sender */\n      caller\n        /* \"@openzeppelin/contracts/utils/Context.sol\":728:745  return msg.sender */\n      swap1\n      pop\n        /* \"@openzeppelin/contracts/utils/Context.sol\":656:752  function _msgSender() internal view virtual returns (address) {... */\n      swap1\n      jump\t// out\n        /* \"@openzeppelin/contracts/token/ERC20/ERC20.sol\":8726:8854  function _approve(address owner, address spender, uint256 value) internal {... */\n    tag_98:\n        /* \"@openzeppelin/contracts/token/ERC20/ERC20.sol\":8810:8847  _approve(owner, spender, value, true) */\n      tag_160\n        /* \"@openzeppelin/contracts/token/ERC20/ERC20.sol\":8819:8824  owner */\n      dup4\n        /* \"@openzeppelin/contracts/token/ERC20/ERC20.sol\":8826:8833  spender */\n      dup4\n        /* \"@openzeppelin/contracts/token/ERC20/ERC20.sol\":8835:8840  value */\n      dup4\n        /* \"@openzeppelin/contracts/token/ERC20/ERC20.sol\":8842:8846  true */\n      0x01\n        /* \"@openzeppelin/contracts/token/ERC20/ERC20.sol\":8810:8818  _approve */\n      tag_161\n        /* \"@openzeppelin/contracts/token/ERC20/ERC20.sol\":8810:8847  _approve(owner, spender, value, true) */\n      jump\t// in\n    tag_160:\n        /* \"@openzeppelin/contracts/token/ERC20/ERC20.sol\":8726:8854  function _approve(address owner, address spender, uint256 value) internal {... */\n      pop\n      pop\n      pop\n      jump\t// out\n        /* \"@openzeppelin/contracts/token/ERC20/ERC20.sol\":10415:10891  function _spendAllowance(address owner, address spender, uint256 value) internal virtual {... */\n    tag_103:\n        /* \"@openzeppelin/contracts/token/ERC20/ERC20.sol\":10514:10538  uint256 currentAllowance */\n      0x00\n        /* \"@openzeppelin/contracts/token/ERC20/ERC20.sol\":10541:10566  allowance(owner, spender) */\n      tag_163\n        /* \"@openzeppelin/contracts/token/ERC20/ERC20.sol\":10551:10556  owner */\n      dup5\n        /* \"@openzeppelin/contracts/token/ERC20/ERC20.sol\":10558:10565  spender */\n      dup5\n        /* \"@openzeppelin/contracts/token/ERC20/ERC20.sol\":10541:10550  allowance */\n      tag_85\n        /* \"@openzeppelin/contracts/token/ERC20/ERC20.sol\":10541:10566  allowance(owner, spender) */\n      jump\t// in\n    tag_163:\n        /* \"@openzeppelin/contracts/token/ERC20/ERC20.sol\":10514:10566  uint256 currentAllowance = allowance(owner, spender) */\n      swap1\n      pop\n        /* \"@openzeppelin/contracts/token/ERC20/ERC20.sol\":10599:10616  type(uint256).max */\n      0xffffffffffffffffffffffffffffffffffffffffffffffffffffffffffffffff\n        /* \"@openzeppelin/contracts/token/ERC20/ERC20.sol\":10580:10596  currentAllowance */\n      dup2\n        /* \"@openzeppelin/contracts/token/ERC20/ERC20.sol\":10580:10616  currentAllowance < type(uint256).max */\n      lt\n        /* \"@openzeppelin/contracts/token/ERC20/ERC20.sol\":10576:10885  if (currentAllowance < type(uint256).max) {... */\n      iszero\n      tag_164\n      jumpi\n        /* \"@openzeppelin/contracts/token/ERC20/ERC20.sol\":10655:10660  value */\n      dup2\n        /* \"@openzeppelin/contracts/token/ERC20/ERC20.sol\":10636:10652  currentAllowance */\n      dup2\n        /* \"@openzeppelin/contracts/token/ERC20/ERC20.sol\":10636:10660  currentAllowance < value */\n      lt\n        /* \"@openzeppelin/contracts/token/ERC20/ERC20.sol\":10632:10762  if (currentAllowance < value) {... */\n      iszero\n      tag_165\n      jumpi\n        /* \"@openzeppelin/contracts/token/ERC20/ERC20.sol\":10714:10721  spender */\n      dup3\n        /* \"@openzeppelin/contracts/token/ERC20/ERC20.sol\":10723:10739  currentAllowance */\n      dup2\n        /* \"@openzeppelin/contracts/token/ERC20/ERC20.sol\":10741:10746  value */\n      dup4\n        /* \"@openzeppelin/contracts/token/ERC20/ERC20.sol\":10687:10747  ERC20InsufficientAllowance(spender, currentAllowance, value) */\n      mload(0x40)\n      0xfb8f41b200000000000000000000000000000000000000000000000000000000\n      dup2\n      mstore\n      0x04\n      add\n      tag_166\n      swap4\n      swap3\n      swap2\n      swap1\n      tag_167\n      jump\t// in\n    tag_166:\n      mload(0x40)\n      dup1\n      swap2\n      sub\n      swap1\n      revert\n        /* \"@openzeppelin/contracts/token/ERC20/ERC20.sol\":10632:10762  if (currentAllowance < value) {... */\n    tag_165:\n        /* \"@openzeppelin/contracts/token/ERC20/ERC20.sol\":10803:10860  _approve(owner, spender, currentAllowance - value, false) */\n      tag_168\n        /* \"@openzeppelin/contracts/token/ERC20/ERC20.sol\":10812:10817  owner */\n      dup5\n        /* \"@openzeppelin/contracts/token/ERC20/ERC20.sol\":10819:10826  spender */\n      dup5\n        /* \"@openzeppelin/contracts/token/ERC20/ERC20.sol\":10847:10852  value */\n      dup5\n        /* \"@openzeppelin/contracts/token/ERC20/ERC20.sol\":10828:10844  currentAllowance */\n      dup5\n        /* \"@openzeppelin/contracts/token/ERC20/ERC20.sol\":10828:10852  currentAllowance - value */\n      sub\n        /* \"@openzeppelin/contracts/token/ERC20/ERC20.sol\":10854:10859  false */\n      0x00\n        /* \"@openzeppelin/contracts/token/ERC20/ERC20.sol\":10803:10811  _approve */\n      tag_161\n        /* \"@openzeppelin/contracts/token/ERC20/ERC20.sol\":10803:10860  _approve(owner, spender, currentAllowance - value, false) */\n      jump\t// in\n    tag_168:\n        /* \"@openzeppelin/contracts/token/ERC20/ERC20.sol\":10576:10885  if (currentAllowance < type(uint256).max) {... */\n    tag_164:\n        /* \"@openzeppelin/contracts/token/ERC20/ERC20.sol\":10504:10891  {... */\n      pop\n        /* \"@openzeppelin/contracts/token/ERC20/ERC20.sol\":10415:10891  function _spendAllowance(address owner, address spender, uint256 value) internal virtual {... */\n      pop\n      pop\n      pop\n      jump\t// out\n        /* \"@openzeppelin/contracts/token/ERC20/ERC20.sol\":5393:5693  function _transfer(address from, address to, uint256 value) internal {... */\n    tag_105:\n        /* \"@openzeppelin/contracts/token/ERC20/ERC20.sol\":5492:5493  0 */\n      0x00\n        /* \"@openzeppelin/contracts/token/ERC20/ERC20.sol\":5476:5494  from == address(0) */\n      0xffffffffffffffffffffffffffffffffffffffff\n      and\n        /* \"@openzeppelin/contracts/token/ERC20/ERC20.sol\":5476:5480  from */\n      dup4\n        /* \"@openzeppelin/contracts/token/ERC20/ERC20.sol\":5476:5494  from == address(0) */\n      0xffffffffffffffffffffffffffffffffffffffff\n      and\n      sub\n        /* \"@openzeppelin/contracts/token/ERC20/ERC20.sol\":5472:5558  if (from == address(0)) {... */\n      tag_170\n      jumpi\n        /* \"@openzeppelin/contracts/token/ERC20/ERC20.sol\":5544:5545  0 */\n      0x00\n        /* \"@openzeppelin/contracts/token/ERC20/ERC20.sol\":5517:5547  ERC20InvalidSender(address(0)) */\n      mload(0x40)\n      0x96c6fd1e00000000000000000000000000000000000000000000000000000000\n      dup2\n      mstore\n      0x04\n      add\n      tag_171\n      swap2\n      swap1\n      tag_75\n      jump\t// in\n    tag_171:\n      mload(0x40)\n      dup1\n      swap2\n      sub\n      swap1\n      revert\n        /* \"@openzeppelin/contracts/token/ERC20/ERC20.sol\":5472:5558  if (from == address(0)) {... */\n    tag_170:\n        /* \"@openzeppelin/contracts/token/ERC20/ERC20.sol\":5585:5586  0 */\n      0x00\n        /* \"@openzeppelin/contracts/token/ERC20/ERC20.sol\":5571:5587  to == address(0) */\n      0xffffffffffffffffffffffffffffffffffffffff\n      and\n        /* \"@openzeppelin/contracts/token/ERC20/ERC20.sol\":5571:5573  to */\n      dup3\n        /* \"@openzeppelin/contracts/token/ERC20/ERC20.sol\":5571:5587  to == address(0) */\n      0xffffffffffffffffffffffffffffffffffffffff\n      and\n      sub\n        /* \"@openzeppelin/contracts/token/ERC20/ERC20.sol\":5567:5653  if (to == address(0)) {... */\n      tag_172\n      jumpi\n        /* \"@openzeppelin/contracts/token/ERC20/ERC20.sol\":5639:5640  0 */\n      0x00\n        /* \"@openzeppelin/contracts/token/ERC20/ERC20.sol\":5610:5642  ERC20InvalidReceiver(address(0)) */\n      mload(0x40)\n      0xec442f0500000000000000000000000000000000000000000000000000000000\n      dup2\n      mstore\n      0x04\n      add\n      tag_173\n      swap2\n      swap1\n      tag_75\n      jump\t// in\n    tag_173:\n      mload(0x40)\n      dup1\n      swap2\n      sub\n      swap1\n      revert\n        /* \"@openzeppelin/contracts/token/ERC20/ERC20.sol\":5567:5653  if (to == address(0)) {... */\n    tag_172:\n        /* \"@openzeppelin/contracts/token/ERC20/ERC20.sol\":5662:5686  _update(from, to, value) */\n      tag_174\n        /* \"@openzeppelin/contracts/token/ERC20/ERC20.sol\":5670:5674  from */\n      dup4\n        /* \"@openzeppelin/contracts/token/ERC20/ERC20.sol\":5676:5678  to */\n      dup4\n        /* \"@openzeppelin/contracts/token/ERC20/ERC20.sol\":5680:5685  value */\n      dup4\n        /* \"@openzeppelin/contracts/token/ERC20/ERC20.sol\":5662:5669  _update */\n      tag_175\n        /* \"@openzeppelin/contracts/token/ERC20/ERC20.sol\":5662:5686  _update(from, to, value) */\n      jump\t// in\n    tag_174:\n        /* \"@openzeppelin/contracts/token/ERC20/ERC20.sol\":5393:5693  function _transfer(address from, address to, uint256 value) internal {... */\n      pop\n      pop\n      pop\n      jump\t// out\n        /* \"@openzeppelin/contracts/token/ERC20/ERC20.sol\":7458:7666  function _mint(address account, uint256 value) internal {... */\n    tag_136:\n        /* \"@openzeppelin/contracts/token/ERC20/ERC20.sol\":7547:7548  0 */\n      0x00\n        /* \"@openzeppelin/contracts/token/ERC20/ERC20.sol\":7528:7549  account == address(0) */\n      0xffffffffffffffffffffffffffffffffffffffff\n      and\n        /* \"@openzeppelin/contracts/token/ERC20/ERC20.sol\":7528:7535  account */\n      dup3\n        /* \"@openzeppelin/contracts/token/ERC20/ERC20.sol\":7528:7549  account == address(0) */\n      0xffffffffffffffffffffffffffffffffffffffff\n      and\n      sub\n        /* \"@openzeppelin/contracts/token/ERC20/ERC20.sol\":7524:7615  if (account == address(0)) {... */\n      tag_177\n      jumpi\n        /* \"@openzeppelin/contracts/token/ERC20/ERC20.sol\":7601:7602  0 */\n      0x00\n        /* \"@openzeppelin/contracts/token/ERC20/ERC20.sol\":7572:7604  ERC20InvalidReceiver(address(0)) */\n      mload(0x40)\n      0xec442f0500000000000000000000000000000000000000000000000000000000\n      dup2\n      mstore\n      0x04\n      add\n      tag_178\n      swap2\n      swap1\n      tag_75\n      jump\t// in\n    tag_178:\n      mload(0x40)\n      dup1\n      swap2\n      sub\n      swap1\n      revert\n        /* \"@openzeppelin/contracts/token/ERC20/ERC20.sol\":7524:7615  if (account == address(0)) {... */\n    tag_177:\n        /* \"@openzeppelin/contracts/token/ERC20/ERC20.sol\":7624:7659  _update(address(0), account, value) */\n      tag_179\n        /* \"@openzeppelin/contracts/token/ERC20/ERC20.sol\":7640:7641  0 */\n      0x00\n        /* \"@openzeppelin/contracts/token/ERC20/ERC20.sol\":7644:7651  account */\n      dup4\n        /* \"@openzeppelin/contracts/token/ERC20/ERC20.sol\":7653:7658  value */\n      dup4\n        /* \"@openzeppelin/contracts/token/ERC20/ERC20.sol\":7624:7631  _update */\n      tag_175\n        /* \"@openzeppelin/contracts/token/ERC20/ERC20.sol\":7624:7659  _update(address(0), account, value) */\n      jump\t// in\n    tag_179:\n        /* \"@openzeppelin/contracts/token/ERC20/ERC20.sol\":7458:7666  function _mint(address account, uint256 value) internal {... */\n      pop\n      pop\n      jump\t// out\n        /* \"@openzeppelin/contracts/token/ERC20/ERC20.sol\":7984:8190  function _burn(address account, uint256 value) internal {... */\n    tag_146:\n        /* \"@openzeppelin/contracts/token/ERC20/ERC20.sol\":8073:8074  0 */\n      0x00\n        /* \"@openzeppelin/contracts/token/ERC20/ERC20.sol\":8054:8075  account == address(0) */\n      0xffffffffffffffffffffffffffffffffffffffff\n      and\n        /* \"@openzeppelin/contracts/token/ERC20/ERC20.sol\":8054:8061  account */\n      dup3\n        /* \"@openzeppelin/contracts/token/ERC20/ERC20.sol\":8054:8075  account == address(0) */\n      0xffffffffffffffffffffffffffffffffffffffff\n      and\n      sub\n        /* \"@openzeppelin/contracts/token/ERC20/ERC20.sol\":8050:8139  if (account == address(0)) {... */\n      tag_181\n      jumpi\n        /* \"@openzeppelin/contracts/token/ERC20/ERC20.sol\":8125:8126  0 */\n      0x00\n        /* \"@openzeppelin/contracts/token/ERC20/ERC20.sol\":8098:8128  ERC20InvalidSender(address(0)) */\n      mload(0x40)\n      0x96c6fd1e00000000000000000000000000000000000000000000000000000000\n      dup2\n      mstore\n      0x04\n      add\n      tag_182\n      swap2\n      swap1\n      tag_75\n      jump\t// in\n    tag_182:\n      mload(0x40)\n      dup1\n      swap2\n      sub\n      swap1\n      revert\n        /* \"@openzeppelin/contracts/token/ERC20/ERC20.sol\":8050:8139  if (account == address(0)) {... */\n    tag_181:\n        /* \"@openzeppelin/contracts/token/ERC20/ERC20.sol\":8148:8183  _update(account, address(0), value) */\n      tag_183\n        /* \"@openzeppelin/contracts/token/ERC20/ERC20.sol\":8156:8163  account */\n      dup3\n        /* \"@openzeppelin/contracts/token/ERC20/ERC20.sol\":8173:8174  0 */\n      0x00\n        /* \"@openzeppelin/contracts/token/ERC20/ERC20.sol\":8177:8182  value */\n      dup4\n        /* \"@openzeppelin/contracts/token/ERC20/ERC20.sol\":8148:8155  _update */\n      tag_175\n        /* \"@openzeppelin/contracts/token/ERC20/ERC20.sol\":8148:8183  _update(account, address(0), value) */\n      jump\t// in\n    tag_183:\n        /* \"@openzeppelin/contracts/token/ERC20/ERC20.sol\":7984:8190  function _burn(address account, uint256 value) internal {... */\n      pop\n      pop\n      jump\t// out\n        /* \"@openzeppelin/contracts/token/ERC20/ERC20.sol\":9701:10133  function _approve(address owner, address spender, uint256 value, bool emitEvent) internal virtual {... */\n    tag_161:\n        /* \"@openzeppelin/contracts/token/ERC20/ERC20.sol\":9830:9831  0 */\n      0x00\n        /* \"@openzeppelin/contracts/token/ERC20/ERC20.sol\":9813:9832  owner == address(0) */\n      0xffffffffffffffffffffffffffffffffffffffff\n      and\n        /* \"@openzeppelin/contracts/token/ERC20/ERC20.sol\":9813:9818  owner */\n      dup5\n        /* \"@openzeppelin/contracts/token/ERC20/ERC20.sol\":9813:9832  owner == address(0) */\n      0xffffffffffffffffffffffffffffffffffffffff\n      and\n      sub\n        /* \"@openzeppelin/contracts/token/ERC20/ERC20.sol\":9809:9898  if (owner == address(0)) {... */\n      tag_185\n      jumpi\n        /* \"@openzeppelin/contracts/token/ERC20/ERC20.sol\":9884:9885  0 */\n      0x00\n        /* \"@openzeppelin/contracts/token/ERC20/ERC20.sol\":9855:9887  ERC20InvalidApprover(address(0)) */\n      mload(0x40)\n      0xe602df0500000000000000000000000000000000000000000000000000000000\n      dup2\n      mstore\n      0x04\n      add\n      tag_186\n      swap2\n      swap1\n      tag_75\n      jump\t// in\n    tag_186:\n      mload(0x40)\n      dup1\n      swap2\n      sub\n      swap1\n      revert\n        /* \"@openzeppelin/contracts/token/ERC20/ERC20.sol\":9809:9898  if (owner == address(0)) {... */\n    tag_185:\n        /* \"@openzeppelin/contracts/token/ERC20/ERC20.sol\":9930:9931  0 */\n      0x00\n        /* \"@openzeppelin/contracts/token/ERC20/ERC20.sol\":9911:9932  spender == address(0) */\n      0xffffffffffffffffffffffffffffffffffffffff\n      and\n        /* \"@openzeppelin/contracts/token/ERC20/ERC20.sol\":9911:9918  spender */\n      dup4\n        /* \"@openzeppelin/contracts/token/ERC20/ERC20.sol\":9911:9932  spender == address(0) */\n      0xffffffffffffffffffffffffffffffffffffffff\n      and\n      sub\n        /* \"@openzeppelin/contracts/token/ERC20/ERC20.sol\":9907:9997  if (spender == address(0)) {... */\n      tag_187\n      jumpi\n        /* \"@openzeppelin/contracts/token/ERC20/ERC20.sol\":9983:9984  0 */\n      0x00\n        /* \"@openzeppelin/contracts/token/ERC20/ERC20.sol\":9955:9986  ERC20InvalidSpender(address(0)) */\n      mload(0x40)\n      0x94280d6200000000000000000000000000000000000000000000000000000000\n      dup2\n      mstore\n      0x04\n      add\n      tag_188\n      swap2\n      swap1\n      tag_75\n      jump\t// in\n    tag_188:\n      mload(0x40)\n      dup1\n      swap2\n      sub\n      swap1\n      revert\n        /* \"@openzeppelin/contracts/token/ERC20/ERC20.sol\":9907:9997  if (spender == address(0)) {... */\n    tag_187:\n        /* \"@openzeppelin/contracts/token/ERC20/ERC20.sol\":10036:10041  value */\n      dup2\n        /* \"@openzeppelin/contracts/token/ERC20/ERC20.sol\":10006:10017  _allowances */\n      0x01\n        /* \"@openzeppelin/contracts/token/ERC20/ERC20.sol\":10006:10024  _allowances[owner] */\n      0x00\n        /* \"@openzeppelin/contracts/token/ERC20/ERC20.sol\":10018:10023  owner */\n      dup7\n        /* \"@openzeppelin/contracts/token/ERC20/ERC20.sol\":10006:10024  _allowances[owner] */\n      0xffffffffffffffffffffffffffffffffffffffff\n      and\n      0xffffffffffffffffffffffffffffffffffffffff\n      and\n      dup2\n      mstore\n      0x20\n      add\n      swap1\n      dup2\n      mstore\n      0x20\n      add\n      0x00\n      keccak256\n        /* \"@openzeppelin/contracts/token/ERC20/ERC20.sol\":10006:10033  _allowances[owner][spender] */\n      0x00\n        /* \"@openzeppelin/contracts/token/ERC20/ERC20.sol\":10025:10032  spender */\n      dup6\n        /* \"@openzeppelin/contracts/token/ERC20/ERC20.sol\":10006:10033  _allowances[owner][spender] */\n      0xffffffffffffffffffffffffffffffffffffffff\n      and\n      0xffffffffffffffffffffffffffffffffffffffff\n      and\n      dup2\n      mstore\n      0x20\n      add\n      swap1\n      dup2\n      mstore\n      0x20\n      add\n      0x00\n      keccak256\n        /* \"@openzeppelin/contracts/token/ERC20/ERC20.sol\":10006:10041  _allowances[owner][spender] = value */\n      dup2\n      swap1\n      sstore\n      pop\n        /* \"@openzeppelin/contracts/token/ERC20/ERC20.sol\":10055:10064  emitEvent */\n      dup1\n        /* \"@openzeppelin/contracts/token/ERC20/ERC20.sol\":10051:10127  if (emitEvent) {... */\n      iszero\n      tag_189\n      jumpi\n        /* \"@openzeppelin/contracts/token/ERC20/ERC20.sol\":10101:10108  spender */\n      dup3\n        /* \"@openzeppelin/contracts/token/ERC20/ERC20.sol\":10085:10116  Approval(owner, spender, value) */\n      0xffffffffffffffffffffffffffffffffffffffff\n      and\n        /* \"@openzeppelin/contracts/token/ERC20/ERC20.sol\":10094:10099  owner */\n      dup5\n        /* \"@openzeppelin/contracts/token/ERC20/ERC20.sol\":10085:10116  Approval(owner, spender, value) */\n      0xffffffffffffffffffffffffffffffffffffffff\n      and\n      0x8c5be1e5ebec7d5bd14f71427d1e84f3dd0314c0f7b2291e5b200ac8c7c3b925\n        /* \"@openzeppelin/contracts/token/ERC20/ERC20.sol\":10110:10115  value */\n      dup5\n        /* \"@openzeppelin/contracts/token/ERC20/ERC20.sol\":10085:10116  Approval(owner, spender, value) */\n      mload(0x40)\n      tag_190\n      swap2\n      swap1\n      tag_35\n      jump\t// in\n    tag_190:\n      mload(0x40)\n      dup1\n      swap2\n      sub\n      swap1\n      log3\n        /* \"@openzeppelin/contracts/token/ERC20/ERC20.sol\":10051:10127  if (emitEvent) {... */\n    tag_189:\n        /* \"@openzeppelin/contracts/token/ERC20/ERC20.sol\":9701:10133  function _approve(address owner, address spender, uint256 value, bool emitEvent) internal virtual {... */\n      pop\n      pop\n      pop\n      pop\n      jump\t// out\n        /* \"@openzeppelin/contracts/token/ERC20/ERC20.sol\":6008:7115  function _update(address from, address to, uint256 value) internal virtual {... */\n    tag_175:\n        /* \"@openzeppelin/contracts/token/ERC20/ERC20.sol\":6113:6114  0 */\n      0x00\n        /* \"@openzeppelin/contracts/token/ERC20/ERC20.sol\":6097:6115  from == address(0) */\n      0xffffffffffffffffffffffffffffffffffffffff\n      and\n        /* \"@openzeppelin/contracts/token/ERC20/ERC20.sol\":6097:6101  from */\n      dup4\n        /* \"@openzeppelin/contracts/token/ERC20/ERC20.sol\":6097:6115  from == address(0) */\n      0xffffffffffffffffffffffffffffffffffffffff\n      and\n      sub\n        /* \"@openzeppelin/contracts/token/ERC20/ERC20.sol\":6093:6633  if (from == address(0)) {... */\n      tag_192\n      jumpi\n        /* \"@openzeppelin/contracts/token/ERC20/ERC20.sol\":6249:6254  value */\n      dup1\n        /* \"@openzeppelin/contracts/token/ERC20/ERC20.sol\":6233:6245  _totalSupply */\n      0x02\n      0x00\n        /* \"@openzeppelin/contracts/token/ERC20/ERC20.sol\":6233:6254  _totalSupply += value */\n      dup3\n      dup3\n      sload\n      tag_193\n      swap2\n      swap1\n      tag_194\n      jump\t// in\n    tag_193:\n      swap3\n      pop\n      pop\n      dup2\n      swap1\n      sstore\n      pop\n        /* \"@openzeppelin/contracts/token/ERC20/ERC20.sol\":6093:6633  if (from == address(0)) {... */\n      jump(tag_195)\n    tag_192:\n        /* \"@openzeppelin/contracts/token/ERC20/ERC20.sol\":6285:6304  uint256 fromBalance */\n      0x00\n        /* \"@openzeppelin/contracts/token/ERC20/ERC20.sol\":6307:6316  _balances */\n      dup1\n        /* \"@openzeppelin/contracts/token/ERC20/ERC20.sol\":6307:6322  _balances[from] */\n      0x00\n        /* \"@openzeppelin/contracts/token/ERC20/ERC20.sol\":6317:6321  from */\n      dup6\n        /* \"@openzeppelin/contracts/token/ERC20/ERC20.sol\":6307:6322  _balances[from] */\n      0xffffffffffffffffffffffffffffffffffffffff\n      and\n      0xffffffffffffffffffffffffffffffffffffffff\n      and\n      dup2\n      mstore\n      0x20\n      add\n      swap1\n      dup2\n      mstore\n      0x20\n      add\n      0x00\n      keccak256\n      sload\n        /* \"@openzeppelin/contracts/token/ERC20/ERC20.sol\":6285:6322  uint256 fromBalance = _balances[from] */\n      swap1\n      pop\n        /* \"@openzeppelin/contracts/token/ERC20/ERC20.sol\":6354:6359  value */\n      dup2\n        /* \"@openzeppelin/contracts/token/ERC20/ERC20.sol\":6340:6351  fromBalance */\n      dup2\n        /* \"@openzeppelin/contracts/token/ERC20/ERC20.sol\":6340:6359  fromBalance < value */\n      lt\n        /* \"@openzeppelin/contracts/token/ERC20/ERC20.sol\":6336:6451  if (fromBalance < value) {... */\n      iszero\n      tag_196\n      jumpi\n        /* \"@openzeppelin/contracts/token/ERC20/ERC20.sol\":6411:6415  from */\n      dup4\n        /* \"@openzeppelin/contracts/token/ERC20/ERC20.sol\":6417:6428  fromBalance */\n      dup2\n        /* \"@openzeppelin/contracts/token/ERC20/ERC20.sol\":6430:6435  value */\n      dup4\n        /* \"@openzeppelin/contracts/token/ERC20/ERC20.sol\":6386:6436  ERC20InsufficientBalance(from, fromBalance, value) */\n      mload(0x40)\n      0xe450d38c00000000000000000000000000000000000000000000000000000000\n      dup2\n      mstore\n      0x04\n      add\n      tag_197\n      swap4\n      swap3\n      swap2\n      swap1\n      tag_167\n      jump\t// in\n    tag_197:\n      mload(0x40)\n      dup1\n      swap2\n      sub\n      swap1\n      revert\n        /* \"@openzeppelin/contracts/token/ERC20/ERC20.sol\":6336:6451  if (fromBalance < value) {... */\n    tag_196:\n        /* \"@openzeppelin/contracts/token/ERC20/ERC20.sol\":6603:6608  value */\n      dup2\n        /* \"@openzeppelin/contracts/token/ERC20/ERC20.sol\":6589:6600  fromBalance */\n      dup2\n        /* \"@openzeppelin/contracts/token/ERC20/ERC20.sol\":6589:6608  fromBalance - value */\n      sub\n        /* \"@openzeppelin/contracts/token/ERC20/ERC20.sol\":6571:6580  _balances */\n      0x00\n        /* \"@openzeppelin/contracts/token/ERC20/ERC20.sol\":6571:6586  _balances[from] */\n      dup1\n        /* \"@openzeppelin/contracts/token/ERC20/ERC20.sol\":6581:6585  from */\n      dup7\n        /* \"@openzeppelin/contracts/token/ERC20/ERC20.sol\":6571:6586  _balances[from] */\n      0xffffffffffffffffffffffffffffffffffffffff\n      and\n      0xffffffffffffffffffffffffffffffffffffffff\n      and\n      dup2\n      mstore\n      0x20\n      add\n      swap1\n      dup2\n      mstore\n      0x20\n      add\n      0x00\n      keccak256\n        /* \"@openzeppelin/contracts/token/ERC20/ERC20.sol\":6571:6608  _balances[from] = fromBalance - value */\n      dup2\n      swap1\n      sstore\n      pop\n        /* \"@openzeppelin/contracts/token/ERC20/ERC20.sol\":6271:6633  {... */\n      pop\n        /* \"@openzeppelin/contracts/token/ERC20/ERC20.sol\":6093:6633  if (from == address(0)) {... */\n    tag_195:\n        /* \"@openzeppelin/contracts/token/ERC20/ERC20.sol\":6661:6662  0 */\n      0x00\n        /* \"@openzeppelin/contracts/token/ERC20/ERC20.sol\":6647:6663  to == address(0) */\n      0xffffffffffffffffffffffffffffffffffffffff\n      and\n        /* \"@openzeppelin/contracts/token/ERC20/ERC20.sol\":6647:6649  to */\n      dup3\n        /* \"@openzeppelin/contracts/token/ERC20/ERC20.sol\":6647:6663  to == address(0) */\n      0xffffffffffffffffffffffffffffffffffffffff\n      and\n      sub\n        /* \"@openzeppelin/contracts/token/ERC20/ERC20.sol\":6643:7068  if (to == address(0)) {... */\n      tag_198\n      jumpi\n        /* \"@openzeppelin/contracts/token/ERC20/ERC20.sol\":6826:6831  value */\n      dup1\n        /* \"@openzeppelin/contracts/token/ERC20/ERC20.sol\":6810:6822  _totalSupply */\n      0x02\n      0x00\n        /* \"@openzeppelin/contracts/token/ERC20/ERC20.sol\":6810:6831  _totalSupply -= value */\n      dup3\n      dup3\n      sload\n      sub\n      swap3\n      pop\n      pop\n      dup2\n      swap1\n      sstore\n      pop\n        /* \"@openzeppelin/contracts/token/ERC20/ERC20.sol\":6643:7068  if (to == address(0)) {... */\n      jump(tag_199)\n    tag_198:\n        /* \"@openzeppelin/contracts/token/ERC20/ERC20.sol\":7038:7043  value */\n      dup1\n        /* \"@openzeppelin/contracts/token/ERC20/ERC20.sol\":7021:7030  _balances */\n      0x00\n        /* \"@openzeppelin/contracts/token/ERC20/ERC20.sol\":7021:7034  _balances[to] */\n      dup1\n        /* \"@openzeppelin/contracts/token/ERC20/ERC20.sol\":7031:7033  to */\n      dup5\n        /* \"@openzeppelin/contracts/token/ERC20/ERC20.sol\":7021:7034  _balances[to] */\n      0xffffffffffffffffffffffffffffffffffffffff\n      and\n      0xffffffffffffffffffffffffffffffffffffffff\n      and\n      dup2\n      mstore\n      0x20\n      add\n      swap1\n      dup2\n      mstore\n      0x20\n      add\n      0x00\n      keccak256\n      0x00\n        /* \"@openzeppelin/contracts/token/ERC20/ERC20.sol\":7021:7043  _balances[to] += value */\n      dup3\n      dup3\n      sload\n      add\n      swap3\n      pop\n      pop\n      dup2\n      swap1\n      sstore\n      pop\n        /* \"@openzeppelin/contracts/token/ERC20/ERC20.sol\":6643:7068  if (to == address(0)) {... */\n    tag_199:\n        /* \"@openzeppelin/contracts/token/ERC20/ERC20.sol\":7098:7100  to */\n      dup2\n        /* \"@openzeppelin/contracts/token/ERC20/ERC20.sol\":7083:7108  Transfer(from, to, value) */\n      0xffffffffffffffffffffffffffffffffffffffff\n      and\n        /* \"@openzeppelin/contracts/token/ERC20/ERC20.sol\":7092:7096  from */\n      dup4\n        /* \"@openzeppelin/contracts/token/ERC20/ERC20.sol\":7083:7108  Transfer(from, to, value) */\n      0xffffffffffffffffffffffffffffffffffffffff\n      and\n      0xddf252ad1be2c89b69c2b068fc378daa952ba7f163c4a11628f55a4df523b3ef\n        /* \"@openzeppelin/contracts/token/ERC20/ERC20.sol\":7102:7107  value */\n      dup4\n        /* \"@openzeppelin/contracts/token/ERC20/ERC20.sol\":7083:7108  Transfer(from, to, value) */\n      mload(0x40)\n      tag_200\n      swap2\n      swap1\n      tag_35\n      jump\t// in\n    tag_200:\n      mload(0x40)\n      dup1\n      swap2\n      sub\n      swap1\n      log3\n        /* \"@openzeppelin/contracts/token/ERC20/ERC20.sol\":6008:7115  function _update(address from, address to, uint256 value) internal virtual {... */\n      pop\n      pop\n      pop\n      jump\t// out\n        /* \"#utility.yul\":7:106   */\n    tag_201:\n        /* \"#utility.yul\":59:65   */\n      0x00\n        /* \"#utility.yul\":93:98   */\n      dup2\n        /* \"#utility.yul\":87:99   */\n      mload\n        /* \"#utility.yul\":77:99   */\n      swap1\n      pop\n        /* \"#utility.yul\":7:106   */\n      swap2\n      swap1\n      pop\n      jump\t// out\n        /* \"#utility.yul\":112:281   */\n    tag_202:\n        /* \"#utility.yul\":196:207   */\n      0x00\n        /* \"#utility.yul\":230:236   */\n      dup3\n        /* \"#utility.yul\":225:228   */\n      dup3\n        /* \"#utility.yul\":218:237   */\n      mstore\n        /* \"#utility.yul\":270:274   */\n      0x20\n        /* \"#utility.yul\":265:268   */\n      dup3\n        /* \"#utility.yul\":261:275   */\n      add\n        /* \"#utility.yul\":246:275   */\n      swap1\n      pop\n        /* \"#utility.yul\":112:281   */\n      swap3\n      swap2\n      pop\n      pop\n      jump\t// out\n        /* \"#utility.yul\":287:426   */\n    tag_203:\n        /* \"#utility.yul\":376:382   */\n      dup3\n        /* \"#utility.yul\":371:374   */\n      dup2\n        /* \"#utility.yul\":366:369   */\n      dup4\n        /* \"#utility.yul\":360:383   */\n      mcopy\n        /* \"#utility.yul\":417:418   */\n      0x00\n        /* \"#utility.yul\":408:414   */\n      dup4\n        /* \"#utility.yul\":403:406   */\n      dup4\n        /* \"#utility.yul\":399:415   */\n      add\n        /* \"#utility.yul\":392:419   */\n      mstore\n        /* \"#utility.yul\":287:426   */\n      pop\n      pop\n      pop\n      jump\t// out\n        /* \"#utility.yul\":432:534   */\n    tag_204:\n        /* \"#utility.yul\":473:479   */\n      0x00\n        /* \"#utility.yul\":524:526   */\n      0x1f\n        /* \"#utility.yul\":520:527   */\n      not\n        /* \"#utility.yul\":515:517   */\n      0x1f\n        /* \"#utility.yul\":508:513   */\n      dup4\n        /* \"#utility.yul\":504:518   */\n      add\n        /* \"#utility.yul\":500:528   */\n      and\n        /* \"#utility.yul\":490:528   */\n      swap1\n      pop\n        /* \"#utility.yul\":432:534   */\n      swap2\n      swap1\n      pop\n      jump\t// out\n        /* \"#utility.yul\":540:917   */\n    tag_205:\n        /* \"#utility.yul\":628:631   */\n      0x00\n        /* \"#utility.yul\":656:695   */\n      tag_235\n        /* \"#utility.yul\":689:694   */\n      dup3\n        /* \"#utility.yul\":656:695   */\n      tag_201\n      jump\t// in\n    tag_235:\n        /* \"#utility.yul\":711:782   */\n      tag_236\n        /* \"#utility.yul\":775:781   */\n      dup2\n        /* \"#utility.yul\":770:773   */\n      dup6\n        /* \"#utility.yul\":711:782   */\n      tag_202\n      jump\t// in\n    tag_236:\n        /* \"#utility.yul\":704:782   */\n      swap4\n      pop\n        /* \"#utility.yul\":791:856   */\n      tag_237\n        /* \"#utility.yul\":849:855   */\n      dup2\n        /* \"#utility.yul\":844:847   */\n      dup6\n        /* \"#utility.yul\":837:841   */\n      0x20\n        /* \"#utility.yul\":830:835   */\n      dup7\n        /* \"#utility.yul\":826:842   */\n      add\n        /* \"#utility.yul\":791:856   */\n      tag_203\n      jump\t// in\n    tag_237:\n        /* \"#utility.yul\":881:910   */\n      tag_238\n        /* \"#utility.yul\":903:909   */\n      dup2\n        /* \"#utility.yul\":881:910   */\n      tag_204\n      jump\t// in\n    tag_238:\n        /* \"#utility.yul\":876:879   */\n      dup5\n        /* \"#utility.yul\":872:911   */\n      add\n        /* \"#utility.yul\":865:911   */\n      swap2\n      pop\n        /* \"#utility.yul\":632:917   */\n      pop\n        /* \"#utility.yul\":540:917   */\n      swap3\n      swap2\n      pop\n      pop\n      jump\t// out\n        /* \"#utility.yul\":923:1236   */\n    tag_23:\n        /* \"#utility.yul\":1036:1040   */\n      0x00\n        /* \"#utility.yul\":1074:1076   */\n      0x20\n        /* \"#utility.yul\":1063:1072   */\n      dup3\n        /* \"#utility.yul\":1059:1077   */\n      add\n        /* \"#utility.yul\":1051:1077   */\n      swap1\n      pop\n        /* \"#utility.yul\":1123:1132   */\n      dup2\n        /* \"#utility.yul\":1117:1121   */\n      dup2\n        /* \"#utility.yul\":1113:1133   */\n      sub\n        /* \"#utility.yul\":1109:1110   */\n      0x00\n        /* \"#utility.yul\":1098:1107   */\n      dup4\n        /* \"#utility.yul\":1094:1111   */\n      add\n        /* \"#utility.yul\":1087:1134   */\n      mstore\n        /* \"#utility.yul\":1151:1229   */\n      tag_240\n        /* \"#utility.yul\":1224:1228   */\n      dup2\n        /* \"#utility.yul\":1215:1221   */\n      dup5\n        /* \"#utility.yul\":1151:1229   */\n      tag_205\n      jump\t// in\n    tag_240:\n        /* \"#utility.yul\":1143:1229   */\n      swap1\n      pop\n        /* \"#utility.yul\":923:1236   */\n      swap3\n      swap2\n      pop\n      pop\n      jump\t// out\n        /* \"#utility.yul\":1323:1440   */\n    tag_207:\n        /* \"#utility.yul\":1432:1433   */\n      0x00\n        /* \"#utility.yul\":1429:1430   */\n      dup1\n        /* \"#utility.yul\":1422:1434   */\n      revert\n        /* \"#utility.yul\":1569:1695   */\n    tag_209:\n        /* \"#utility.yul\":1606:1613   */\n      0x00\n        /* \"#utility.yul\":1646:1688   */\n      0xffffffffffffffffffffffffffffffffffffffff\n        /* \"#utility.yul\":1639:1644   */\n      dup3\n        /* \"#utility.yul\":1635:1689   */\n      and\n        /* \"#utility.yul\":1624:1689   */\n      swap1\n      pop\n        /* \"#utility.yul\":1569:1695   */\n      swap2\n      swap1\n      pop\n      jump\t// out\n        /* \"#utility.yul\":1701:1797   */\n    tag_210:\n        /* \"#utility.yul\":1738:1745   */\n      0x00\n        /* \"#utility.yul\":1767:1791   */\n      tag_246\n        /* \"#utility.yul\":1785:1790   */\n      dup3\n        /* \"#utility.yul\":1767:1791   */\n      tag_209\n      jump\t// in\n    tag_246:\n        /* \"#utility.yul\":1756:1791   */\n      swap1\n      pop\n        /* \"#utility.yul\":1701:1797   */\n      swap2\n      swap1\n      pop\n      jump\t// out\n        /* \"#utility.yul\":1803:1925   */\n    tag_211:\n        /* \"#utility.yul\":1876:1900   */\n      tag_248\n        /* \"#utility.yul\":1894:1899   */\n      dup2\n        /* \"#utility.yul\":1876:1900   */\n      tag_210\n      jump\t// in\n    tag_248:\n        /* \"#utility.yul\":1869:1874   */\n      dup2\n        /* \"#utility.yul\":1866:1901   */\n      eq\n        /* \"#utility.yul\":1856:1919   */\n      tag_249\n      jumpi\n        /* \"#utility.yul\":1915:1916   */\n      0x00\n        /* \"#utility.yul\":1912:1913   */\n      dup1\n        /* \"#utility.yul\":1905:1917   */\n      revert\n        /* \"#utility.yul\":1856:1919   */\n    tag_249:\n        /* \"#utility.yul\":1803:1925   */\n      pop\n      jump\t// out\n        /* \"#utility.yul\":1931:2070   */\n    tag_212:\n        /* \"#utility.yul\":1977:1982   */\n      0x00\n        /* \"#utility.yul\":2015:2021   */\n      dup2\n        /* \"#utility.yul\":2002:2022   */\n      calldataload\n        /* \"#utility.yul\":1993:2022   */\n      swap1\n      pop\n        /* \"#utility.yul\":2031:2064   */\n      tag_251\n        /* \"#utility.yul\":2058:2063   */\n      dup2\n        /* \"#utility.yul\":2031:2064   */\n      tag_211\n      jump\t// in\n    tag_251:\n        /* \"#utility.yul\":1931:2070   */\n      swap3\n      swap2\n      pop\n      pop\n      jump\t// out\n        /* \"#utility.yul\":2076:2153   */\n    tag_213:\n        /* \"#utility.yul\":2113:2120   */\n      0x00\n        /* \"#utility.yul\":2142:2147   */\n      dup2\n        /* \"#utility.yul\":2131:2147   */\n      swap1\n      pop\n        /* \"#utility.yul\":2076:2153   */\n      swap2\n      swap1\n      pop\n      jump\t// out\n        /* \"#utility.yul\":2159:2281   */\n    tag_214:\n        /* \"#utility.yul\":2232:2256   */\n      tag_254\n        /* \"#utility.yul\":2250:2255   */\n      dup2\n        /* \"#utility.yul\":2232:2256   */\n      tag_213\n      jump\t// in\n    tag_254:\n        /* \"#utility.yul\":2225:2230   */\n      dup2\n        /* \"#utility.yul\":2222:2257   */\n      eq\n        /* \"#utility.yul\":2212:2275   */\n      tag_255\n      jumpi\n        /* \"#utility.yul\":2271:2272   */\n      0x00\n        /* \"#utility.yul\":2268:2269   */\n      dup1\n        /* \"#utility.yul\":2261:2273   */\n      revert\n        /* \"#utility.yul\":2212:2275   */\n    tag_255:\n        /* \"#utility.yul\":2159:2281   */\n      pop\n      jump\t// out\n        /* \"#utility.yul\":2287:2426   */\n    tag_215:\n        /* \"#utility.yul\":2333:2338   */\n      0x00\n        /* \"#utility.yul\":2371:2377   */\n      dup2\n        /* \"#utility.yul\":2358:2378   */\n      calldataload\n        /* \"#utility.yul\":2349:2378   */\n      swap1\n      pop\n        /* \"#utility.yul\":2387:2420   */\n      tag_257\n        /* \"#utility.yul\":2414:2419   */\n      dup2\n        /* \"#utility.yul\":2387:2420   */\n      tag_214\n      jump\t// in\n    tag_257:\n        /* \"#utility.yul\":2287:2426   */\n      swap3\n      swap2\n      pop\n      pop\n      jump\t// out\n        /* \"#utility.yul\":2432:2906   */\n    tag_27:\n        /* \"#utility.yul\":2500:2506   */\n      0x00\n        /* \"#utility.yul\":2508:2514   */\n      dup1\n        /* \"#utility.yul\":2557:2559   */\n      0x40\n        /* \"#utility.yul\":2545:2554   */\n      dup4\n        /* \"#utility.yul\":2536:2543   */\n      dup6\n        /* \"#utility.yul\":2532:2555   */\n      sub\n        /* \"#utility.yul\":2528:2560   */\n      slt\n        /* \"#utility.yul\":2525:2644   */\n      iszero\n      tag_259\n      jumpi\n        /* \"#utility.yul\":2563:2642   */\n      tag_260\n      tag_207\n      jump\t// in\n    tag_260:\n        /* \"#utility.yul\":2525:2644   */\n    tag_259:\n        /* \"#utility.yul\":2683:2684   */\n      0x00\n        /* \"#utility.yul\":2708:2761   */\n      tag_261\n        /* \"#utility.yul\":2753:2760   */\n      dup6\n        /* \"#utility.yul\":2744:2750   */\n      dup3\n        /* \"#utility.yul\":2733:2742   */\n      dup7\n        /* \"#utility.yul\":2729:2751   */\n      add\n        /* \"#utility.yul\":2708:2761   */\n      tag_212\n      jump\t// in\n    tag_261:\n        /* \"#utility.yul\":2698:2761   */\n      swap3\n      pop\n        /* \"#utility.yul\":2654:2771   */\n      pop\n        /* \"#utility.yul\":2810:2812   */\n      0x20\n        /* \"#utility.yul\":2836:2889   */\n      tag_262\n        /* \"#utility.yul\":2881:2888   */\n      dup6\n        /* \"#utility.yul\":2872:2878   */\n      dup3\n        /* \"#utility.yul\":2861:2870   */\n      dup7\n        /* \"#utility.yul\":2857:2879   */\n      add\n        /* \"#utility.yul\":2836:2889   */\n      tag_215\n      jump\t// in\n    tag_262:\n        /* \"#utility.yul\":2826:2889   */\n      swap2\n      pop\n        /* \"#utility.yul\":2781:2899   */\n      pop\n        /* \"#utility.yul\":2432:2906   */\n      swap3\n      pop\n      swap3\n      swap1\n      pop\n      jump\t// out\n        /* \"#utility.yul\":2912:3002   */\n    tag_216:\n        /* \"#utility.yul\":2946:2953   */\n      0x00\n        /* \"#utility.yul\":2989:2994   */\n      dup2\n        /* \"#utility.yul\":2982:2995   */\n      iszero\n        /* \"#utility.yul\":2975:2996   */\n      iszero\n        /* \"#utility.yul\":2964:2996   */\n      swap1\n      pop\n        /* \"#utility.yul\":2912:3002   */\n      swap2\n      swap1\n      pop\n      jump\t// out\n        /* \"#utility.yul\":3008:3117   */\n    tag_217:\n        /* \"#utility.yul\":3089:3110   */\n      tag_265\n        /* \"#utility.yul\":3104:3109   */\n      dup2\n        /* \"#utility.yul\":3089:3110   */\n      tag_216\n      jump\t// in\n    tag_265:\n        /* \"#utility.yul\":3084:3087   */\n      dup3\n        /* \"#utility.yul\":3077:3111   */\n      mstore\n        /* \"#utility.yul\":3008:3117   */\n      pop\n      pop\n      jump\t// out\n        /* \"#utility.yul\":3123:3333   */\n    tag_30:\n        /* \"#utility.yul\":3210:3214   */\n      0x00\n        /* \"#utility.yul\":3248:3250   */\n      0x20\n        /* \"#utility.yul\":3237:3246   */\n      dup3\n        /* \"#utility.yul\":3233:3251   */\n      add\n        /* \"#utility.yul\":3225:3251   */\n      swap1\n      pop\n        /* \"#utility.yul\":3261:3326   */\n      tag_267\n        /* \"#utility.yul\":3323:3324   */\n      0x00\n        /* \"#utility.yul\":3312:3321   */\n      dup4\n        /* \"#utility.yul\":3308:3325   */\n      add\n        /* \"#utility.yul\":3299:3305   */\n      dup5\n        /* \"#utility.yul\":3261:3326   */\n      tag_217\n      jump\t// in\n    tag_267:\n        /* \"#utility.yul\":3123:3333   */\n      swap3\n      swap2\n      pop\n      pop\n      jump\t// out\n        /* \"#utility.yul\":3339:3457   */\n    tag_218:\n        /* \"#utility.yul\":3426:3450   */\n      tag_269\n        /* \"#utility.yul\":3444:3449   */\n      dup2\n        /* \"#utility.yul\":3426:3450   */\n      tag_213\n      jump\t// in\n    tag_269:\n        /* \"#utility.yul\":3421:3424   */\n      dup3\n        /* \"#utility.yul\":3414:3451   */\n      mstore\n        /* \"#utility.yul\":3339:3457   */\n      pop\n      pop\n      jump\t// out\n        /* \"#utility.yul\":3463:3685   */\n    tag_35:\n        /* \"#utility.yul\":3556:3560   */\n      0x00\n        /* \"#utility.yul\":3594:3596   */\n      0x20\n        /* \"#utility.yul\":3583:3592   */\n      dup3\n        /* \"#utility.yul\":3579:3597   */\n      add\n        /* \"#utility.yul\":3571:3597   */\n      swap1\n      pop\n        /* \"#utility.yul\":3607:3678   */\n      tag_271\n        /* \"#utility.yul\":3675:3676   */\n      0x00\n        /* \"#utility.yul\":3664:3673   */\n      dup4\n        /* \"#utility.yul\":3660:3677   */\n      add\n        /* \"#utility.yul\":3651:3657   */\n      dup5\n        /* \"#utility.yul\":3607:3678   */\n      tag_218\n      jump\t// in\n    tag_271:\n        /* \"#utility.yul\":3463:3685   */\n      swap3\n      swap2\n      pop\n      pop\n      jump\t// out\n        /* \"#utility.yul\":3691:4310   */\n    tag_39:\n        /* \"#utility.yul\":3768:3774   */\n      0x00\n        /* \"#utility.yul\":3776:3782   */\n      dup1\n        /* \"#utility.yul\":3784:3790   */\n      0x00\n        /* \"#utility.yul\":3833:3835   */\n      0x60\n        /* \"#utility.yul\":3821:3830   */\n      dup5\n        /* \"#utility.yul\":3812:3819   */\n      dup7\n        /* \"#utility.yul\":3808:3831   */\n      sub\n        /* \"#utility.yul\":3804:3836   */\n      slt\n        /* \"#utility.yul\":3801:3920   */\n      iszero\n      tag_273\n      jumpi\n        /* \"#utility.yul\":3839:3918   */\n      tag_274\n      tag_207\n      jump\t// in\n    tag_274:\n        /* \"#utility.yul\":3801:3920   */\n    tag_273:\n        /* \"#utility.yul\":3959:3960   */\n      0x00\n        /* \"#utility.yul\":3984:4037   */\n      tag_275\n        /* \"#utility.yul\":4029:4036   */\n      dup7\n        /* \"#utility.yul\":4020:4026   */\n      dup3\n        /* \"#utility.yul\":4009:4018   */\n      dup8\n        /* \"#utility.yul\":4005:4027   */\n      add\n        /* \"#utility.yul\":3984:4037   */\n      tag_212\n      jump\t// in\n    tag_275:\n        /* \"#utility.yul\":3974:4037   */\n      swap4\n      pop\n        /* \"#utility.yul\":3930:4047   */\n      pop\n        /* \"#utility.yul\":4086:4088   */\n      0x20\n        /* \"#utility.yul\":4112:4165   */\n      tag_276\n        /* \"#utility.yul\":4157:4164   */\n      dup7\n        /* \"#utility.yul\":4148:4154   */\n      dup3\n        /* \"#utility.yul\":4137:4146   */\n      dup8\n        /* \"#utility.yul\":4133:4155   */\n      add\n        /* \"#utility.yul\":4112:4165   */\n      tag_212\n      jump\t// in\n    tag_276:\n        /* \"#utility.yul\":4102:4165   */\n      swap3\n      pop\n        /* \"#utility.yul\":4057:4175   */\n      pop\n        /* \"#utility.yul\":4214:4216   */\n      0x40\n        /* \"#utility.yul\":4240:4293   */\n      tag_277\n        /* \"#utility.yul\":4285:4292   */\n      dup7\n        /* \"#utility.yul\":4276:4282   */\n      dup3\n        /* \"#utility.yul\":4265:4274   */\n      dup8\n        /* \"#utility.yul\":4261:4283   */\n      add\n        /* \"#utility.yul\":4240:4293   */\n      tag_215\n      jump\t// in\n    tag_277:\n        /* \"#utility.yul\":4230:4293   */\n      swap2\n      pop\n        /* \"#utility.yul\":4185:4303   */\n      pop\n        /* \"#utility.yul\":3691:4310   */\n      swap3\n      pop\n      swap3\n      pop\n      swap3\n      jump\t// out\n        /* \"#utility.yul\":4316:4645   */\n    tag_45:\n        /* \"#utility.yul\":4375:4381   */\n      0x00\n        /* \"#utility.yul\":4424:4426   */\n      0x20\n        /* \"#utility.yul\":4412:4421   */\n      dup3\n        /* \"#utility.yul\":4403:4410   */\n      dup5\n        /* \"#utility.yul\":4399:4422   */\n      sub\n        /* \"#utility.yul\":4395:4427   */\n      slt\n        /* \"#utility.yul\":4392:4511   */\n      iszero\n      tag_279\n      jumpi\n        /* \"#utility.yul\":4430:4509   */\n      tag_280\n      tag_207\n      jump\t// in\n    tag_280:\n        /* \"#utility.yul\":4392:4511   */\n    tag_279:\n        /* \"#utility.yul\":4550:4551   */\n      0x00\n        /* \"#utility.yul\":4575:4628   */\n      tag_281\n        /* \"#utility.yul\":4620:4627   */\n      dup5\n        /* \"#utility.yul\":4611:4617   */\n      dup3\n        /* \"#utility.yul\":4600:4609   */\n      dup6\n        /* \"#utility.yul\":4596:4618   */\n      add\n        /* \"#utility.yul\":4575:4628   */\n      tag_215\n      jump\t// in\n    tag_281:\n        /* \"#utility.yul\":4565:4628   */\n      swap2\n      pop\n        /* \"#utility.yul\":4521:4638   */\n      pop\n        /* \"#utility.yul\":4316:4645   */\n      swap3\n      swap2\n      pop\n      pop\n      jump\t// out\n        /* \"#utility.yul\":4651:4737   */\n    tag_219:\n        /* \"#utility.yul\":4686:4693   */\n      0x00\n        /* \"#utility.yul\":4726:4730   */\n      0xff\n        /* \"#utility.yul\":4719:4724   */\n      dup3\n        /* \"#utility.yul\":4715:4731   */\n      and\n        /* \"#utility.yul\":4704:4731   */\n      swap1\n      pop\n        /* \"#utility.yul\":4651:4737   */\n      swap2\n      swap1\n      pop\n      jump\t// out\n        /* \"#utility.yul\":4743:4855   */\n    tag_220:\n        /* \"#utility.yul\":4826:4848   */\n      tag_284\n        /* \"#utility.yul\":4842:4847   */\n      dup2\n        /* \"#utility.yul\":4826:4848   */\n      tag_219\n      jump\t// in\n    tag_284:\n        /* \"#utility.yul\":4821:4824   */\n      dup3\n        /* \"#utility.yul\":4814:4849   */\n      mstore\n        /* \"#utility.yul\":4743:4855   */\n      pop\n      pop\n      jump\t// out\n        /* \"#utility.yul\":4861:5075   */\n    tag_51:\n        /* \"#utility.yul\":4950:4954   */\n      0x00\n        /* \"#utility.yul\":4988:4990   */\n      0x20\n        /* \"#utility.yul\":4977:4986   */\n      dup3\n        /* \"#utility.yul\":4973:4991   */\n      add\n        /* \"#utility.yul\":4965:4991   */\n      swap1\n      pop\n        /* \"#utility.yul\":5001:5068   */\n      tag_286\n        /* \"#utility.yul\":5065:5066   */\n      0x00\n        /* \"#utility.yul\":5054:5063   */\n      dup4\n        /* \"#utility.yul\":5050:5067   */\n      add\n        /* \"#utility.yul\":5041:5047   */\n      dup5\n        /* \"#utility.yul\":5001:5068   */\n      tag_220\n      jump\t// in\n    tag_286:\n        /* \"#utility.yul\":4861:5075   */\n      swap3\n      swap2\n      pop\n      pop\n      jump\t// out\n        /* \"#utility.yul\":5081:5410   */\n    tag_60:\n        /* \"#utility.yul\":5140:5146   */\n      0x00\n        /* \"#utility.yul\":5189:5191   */\n      0x20\n        /* \"#utility.yul\":5177:5186   */\n      dup3\n        /* \"#utility.yul\":5168:5175   */\n      dup5\n        /* \"#utility.yul\":5164:5187   */\n      sub\n        /* \"#utility.yul\":5160:5192   */\n      slt\n        /* \"#utility.yul\":5157:5276   */\n      iszero\n      tag_288\n      jumpi\n        /* \"#utility.yul\":5195:5274   */\n      tag_289\n      tag_207\n      jump\t// in\n    tag_289:\n        /* \"#utility.yul\":5157:5276   */\n    tag_288:\n        /* \"#utility.yul\":5315:5316   */\n      0x00\n        /* \"#utility.yul\":5340:5393   */\n      tag_290\n        /* \"#utility.yul\":5385:5392   */\n      dup5\n        /* \"#utility.yul\":5376:5382   */\n      dup3\n        /* \"#utility.yul\":5365:5374   */\n      dup6\n        /* \"#utility.yul\":5361:5383   */\n      add\n        /* \"#utility.yul\":5340:5393   */\n      tag_212\n      jump\t// in\n    tag_290:\n        /* \"#utility.yul\":5330:5393   */\n      swap2\n      pop\n        /* \"#utility.yul\":5286:5403   */\n      pop\n        /* \"#utility.yul\":5081:5410   */\n      swap3\n      swap2\n      pop\n      pop\n      jump\t// out\n        /* \"#utility.yul\":5416:5534   */\n    tag_221:\n        /* \"#utility.yul\":5503:5527   */\n      tag_292\n        /* \"#utility.yul\":5521:5526   */\n      dup2\n        /* \"#utility.yul\":5503:5527   */\n      tag_210\n      jump\t// in\n    tag_292:\n        /* \"#utility.yul\":5498:5501   */\n      dup3\n        /* \"#utility.yul\":5491:5528   */\n      mstore\n        /* \"#utility.yul\":5416:5534   */\n      pop\n      pop\n      jump\t// out\n        /* \"#utility.yul\":5540:5762   */\n    tag_75:\n        /* \"#utility.yul\":5633:5637   */\n      0x00\n        /* \"#utility.yul\":5671:5673   */\n      0x20\n        /* \"#utility.yul\":5660:5669   */\n      dup3\n        /* \"#utility.yul\":5656:5674   */\n      add\n        /* \"#utility.yul\":5648:5674   */\n      swap1\n      pop\n        /* \"#utility.yul\":5684:5755   */\n      tag_294\n        /* \"#utility.yul\":5752:5753   */\n      0x00\n        /* \"#utility.yul\":5741:5750   */\n      dup4\n        /* \"#utility.yul\":5737:5754   */\n      add\n        /* \"#utility.yul\":5728:5734   */\n      dup5\n        /* \"#utility.yul\":5684:5755   */\n      tag_221\n      jump\t// in\n    tag_294:\n        /* \"#utility.yul\":5540:5762   */\n      swap3\n      swap2\n      pop\n      pop\n      jump\t// out\n        /* \"#utility.yul\":5768:6242   */\n    tag_84:\n        /* \"#utility.yul\":5836:5842   */\n      0x00\n        /* \"#utility.yul\":5844:5850   */\n      dup1\n        /* \"#utility.yul\":5893:5895   */\n      0x40\n        /* \"#utility.yul\":5881:5890   */\n      dup4\n        /* \"#utility.yul\":5872:5879   */\n      dup6\n        /* \"#utility.yul\":5868:5891   */\n      sub\n        /* \"#utility.yul\":5864:5896   */\n      slt\n        /* \"#utility.yul\":5861:5980   */\n      iszero\n      tag_296\n      jumpi\n        /* \"#utility.yul\":5899:5978   */\n      tag_297\n      tag_207\n      jump\t// in\n    tag_297:\n        /* \"#utility.yul\":5861:5980   */\n    tag_296:\n        /* \"#utility.yul\":6019:6020   */\n      0x00\n        /* \"#utility.yul\":6044:6097   */\n      tag_298\n        /* \"#utility.yul\":6089:6096   */\n      dup6\n        /* \"#utility.yul\":6080:6086   */\n      dup3\n        /* \"#utility.yul\":6069:6078   */\n      dup7\n        /* \"#utility.yul\":6065:6087   */\n      add\n        /* \"#utility.yul\":6044:6097   */\n      tag_212\n      jump\t// in\n    tag_298:\n        /* \"#utility.yul\":6034:6097   */\n      swap3\n      pop\n        /* \"#utility.yul\":5990:6107   */\n      pop\n        /* \"#utility.yul\":6146:6148   */\n      0x20\n        /* \"#utility.yul\":6172:6225   */\n      tag_299\n        /* \"#utility.yul\":6217:6224   */\n      dup6\n        /* \"#utility.yul\":6208:6214   */\n      dup3\n        /* \"#utility.yul\":6197:6206   */\n      dup7\n        /* \"#utility.yul\":6193:6215   */\n      add\n        /* \"#utility.yul\":6172:6225   */\n      tag_212\n      jump\t// in\n    tag_299:\n        /* \"#utility.yul\":6162:6225   */\n      swap2\n      pop\n        /* \"#utility.yul\":6117:6235   */\n      pop\n        /* \"#utility.yul\":5768:6242   */\n      swap3\n      pop\n      swap3\n      swap1\n      pop\n      jump\t// out\n        /* \"#utility.yul\":6248:6428   */\n    tag_222:\n        /* \"#utility.yul\":6296:6373   */\n      0x4e487b7100000000000000000000000000000000000000000000000000000000\n        /* \"#utility.yul\":6293:6294   */\n      0x00\n        /* \"#utility.yul\":6286:6374   */\n      mstore\n        /* \"#utility.yul\":6393:6397   */\n      0x22\n        /* \"#utility.yul\":6390:6391   */\n      0x04\n        /* \"#utility.yul\":6383:6398   */\n      mstore\n        /* \"#utility.yul\":6417:6421   */\n      0x24\n        /* \"#utility.yul\":6414:6415   */\n      0x00\n        /* \"#utility.yul\":6407:6422   */\n      revert\n        /* \"#utility.yul\":6434:6754   */\n    tag_89:\n        /* \"#utility.yul\":6478:6484   */\n      0x00\n        /* \"#utility.yul\":6515:6516   */\n      0x02\n        /* \"#utility.yul\":6509:6513   */\n      dup3\n        /* \"#utility.yul\":6505:6517   */\n      div\n        /* \"#utility.yul\":6495:6517   */\n      swap1\n      pop\n        /* \"#utility.yul\":6562:6563   */\n      0x01\n        /* \"#utility.yul\":6556:6560   */\n      dup3\n        /* \"#utility.yul\":6552:6564   */\n      and\n        /* \"#utility.yul\":6583:6601   */\n      dup1\n        /* \"#utility.yul\":6573:6654   */\n      tag_302\n      jumpi\n        /* \"#utility.yul\":6639:6643   */\n      0x7f\n        /* \"#utility.yul\":6631:6637   */\n      dup3\n        /* \"#utility.yul\":6627:6644   */\n      and\n        /* \"#utility.yul\":6617:6644   */\n      swap2\n      pop\n        /* \"#utility.yul\":6573:6654   */\n    tag_302:\n        /* \"#utility.yul\":6701:6703   */\n      0x20\n        /* \"#utility.yul\":6693:6699   */\n      dup3\n        /* \"#utility.yul\":6690:6704   */\n      lt\n        /* \"#utility.yul\":6670:6688   */\n      dup2\n        /* \"#utility.yul\":6667:6705   */\n      sub\n        /* \"#utility.yul\":6664:6748   */\n      tag_303\n      jumpi\n        /* \"#utility.yul\":6720:6738   */\n      tag_304\n      tag_222\n      jump\t// in\n    tag_304:\n        /* \"#utility.yul\":6664:6748   */\n    tag_303:\n        /* \"#utility.yul\":6485:6754   */\n      pop\n        /* \"#utility.yul\":6434:6754   */\n      swap2\n      swap1\n      pop\n      jump\t// out\n        /* \"#utility.yul\":6760:6940   */\n    tag_223:\n        /* \"#utility.yul\":6808:6885   */\n      0x4e487b7100000000000000000000000000000000000000000000000000000000\n        /* \"#utility.yul\":6805:6806   */\n      0x00\n        /* \"#utility.yul\":6798:6886   */\n      mstore\n        /* \"#utility.yul\":6905:6909   */\n      0x11\n        /* \"#utility.yul\":6902:6903   */\n      0x04\n        /* \"#utility.yul\":6895:6910   */\n      mstore\n        /* \"#utility.yul\":6929:6933   */\n      0x24\n        /* \"#utility.yul\":6926:6927   */\n      0x00\n        /* \"#utility.yul\":6919:6934   */\n      revert\n        /* \"#utility.yul\":6946:7356   */\n    tag_108:\n        /* \"#utility.yul\":6986:6993   */\n      0x00\n        /* \"#utility.yul\":7009:7029   */\n      tag_307\n        /* \"#utility.yul\":7027:7028   */\n      dup3\n        /* \"#utility.yul\":7009:7029   */\n      tag_213\n      jump\t// in\n    tag_307:\n        /* \"#utility.yul\":7004:7029   */\n      swap2\n      pop\n        /* \"#utility.yul\":7043:7063   */\n      tag_308\n        /* \"#utility.yul\":7061:7062   */\n      dup4\n        /* \"#utility.yul\":7043:7063   */\n      tag_213\n      jump\t// in\n    tag_308:\n        /* \"#utility.yul\":7038:7063   */\n      swap3\n      pop\n        /* \"#utility.yul\":7098:7099   */\n      dup3\n        /* \"#utility.yul\":7095:7096   */\n      dup3\n        /* \"#utility.yul\":7091:7100   */\n      mul\n        /* \"#utility.yul\":7120:7150   */\n      tag_309\n        /* \"#utility.yul\":7138:7149   */\n      dup2\n        /* \"#utility.yul\":7120:7150   */\n      tag_213\n      jump\t// in\n    tag_309:\n        /* \"#utility.yul\":7109:7150   */\n      swap2\n      pop\n        /* \"#utility.yul\":7299:7300   */\n      dup3\n        /* \"#utility.yul\":7290:7297   */\n      dup3\n        /* \"#utility.yul\":7286:7301   */\n      div\n        /* \"#utility.yul\":7283:7284   */\n      dup5\n        /* \"#utility.yul\":7280:7302   */\n      eq\n        /* \"#utility.yul\":7260:7261   */\n      dup4\n        /* \"#utility.yul\":7253:7262   */\n      iszero\n        /* \"#utility.yul\":7233:7316   */\n      or\n        /* \"#utility.yul\":7210:7349   */\n      tag_310\n      jumpi\n        /* \"#utility.yul\":7329:7347   */\n      tag_311\n      tag_223\n      jump\t// in\n    tag_311:\n        /* \"#utility.yul\":7210:7349   */\n    tag_310:\n        /* \"#utility.yul\":6994:7356   */\n      pop\n        /* \"#utility.yul\":6946:7356   */\n      swap3\n      swap2\n      pop\n      pop\n      jump\t// out\n        /* \"#utility.yul\":7362:7804   */\n    tag_110:\n        /* \"#utility.yul\":7511:7515   */\n      0x00\n        /* \"#utility.yul\":7549:7551   */\n      0x60\n        /* \"#utility.yul\":7538:7547   */\n      dup3\n        /* \"#utility.yul\":7534:7552   */\n      add\n        /* \"#utility.yul\":7526:7552   */\n      swap1\n      pop\n        /* \"#utility.yul\":7562:7633   */\n      tag_313\n        /* \"#utility.yul\":7630:7631   */\n      0x00\n        /* \"#utility.yul\":7619:7628   */\n      dup4\n        /* \"#utility.yul\":7615:7632   */\n      add\n        /* \"#utility.yul\":7606:7612   */\n      dup7\n        /* \"#utility.yul\":7562:7633   */\n      tag_221\n      jump\t// in\n    tag_313:\n        /* \"#utility.yul\":7643:7715   */\n      tag_314\n        /* \"#utility.yul\":7711:7713   */\n      0x20\n        /* \"#utility.yul\":7700:7709   */\n      dup4\n        /* \"#utility.yul\":7696:7714   */\n      add\n        /* \"#utility.yul\":7687:7693   */\n      dup6\n        /* \"#utility.yul\":7643:7715   */\n      tag_221\n      jump\t// in\n    tag_314:\n        /* \"#utility.yul\":7725:7797   */\n      tag_315\n        /* \"#utility.yul\":7793:7795   */\n      0x40\n        /* \"#utility.yul\":7782:7791   */\n      dup4\n        /* \"#utility.yul\":7778:7796   */\n      add\n        /* \"#utility.yul\":7769:7775   */\n      dup5\n        /* \"#utility.yul\":7725:7797   */\n      tag_218\n      jump\t// in\n    tag_315:\n        /* \"#utility.yul\":7362:7804   */\n      swap5\n      swap4\n      pop\n      pop\n      pop\n      pop\n      jump\t// out\n        /* \"#utility.yul\":7810:7926   */\n    tag_224:\n        /* \"#utility.yul\":7880:7901   */\n      tag_317\n        /* \"#utility.yul\":7895:7900   */\n      dup2\n        /* \"#utility.yul\":7880:7901   */\n      tag_216\n      jump\t// in\n    tag_317:\n        /* \"#utility.yul\":7873:7878   */\n      dup2\n        /* \"#utility.yul\":7870:7902   */\n      eq\n        /* \"#utility.yul\":7860:7920   */\n      tag_318\n      jumpi\n        /* \"#utility.yul\":7916:7917   */\n      0x00\n        /* \"#utility.yul\":7913:7914   */\n      dup1\n        /* \"#utility.yul\":7906:7918   */\n      revert\n        /* \"#utility.yul\":7860:7920   */\n    tag_318:\n        /* \"#utility.yul\":7810:7926   */\n      pop\n      jump\t// out\n        /* \"#utility.yul\":7932:8069   */\n    tag_225:\n        /* \"#utility.yul\":7986:7991   */\n      0x00\n        /* \"#utility.yul\":8017:8023   */\n      dup2\n        /* \"#utility.yul\":8011:8024   */\n      mload\n        /* \"#utility.yul\":8002:8024   */\n      swap1\n      pop\n        /* \"#utility.yul\":8033:8063   */\n      tag_320\n        /* \"#utility.yul\":8057:8062   */\n      dup2\n        /* \"#utility.yul\":8033:8063   */\n      tag_224\n      jump\t// in\n    tag_320:\n        /* \"#utility.yul\":7932:8069   */\n      swap3\n      swap2\n      pop\n      pop\n      jump\t// out\n        /* \"#utility.yul\":8075:8420   */\n    tag_114:\n        /* \"#utility.yul\":8142:8148   */\n      0x00\n        /* \"#utility.yul\":8191:8193   */\n      0x20\n        /* \"#utility.yul\":8179:8188   */\n      dup3\n        /* \"#utility.yul\":8170:8177   */\n      dup5\n        /* \"#utility.yul\":8166:8189   */\n      sub\n        /* \"#utility.yul\":8162:8194   */\n      slt\n        /* \"#utility.yul\":8159:8278   */\n      iszero\n      tag_322\n      jumpi\n        /* \"#utility.yul\":8197:8276   */\n      tag_323\n      tag_207\n      jump\t// in\n    tag_323:\n        /* \"#utility.yul\":8159:8278   */\n    tag_322:\n        /* \"#utility.yul\":8317:8318   */\n      0x00\n        /* \"#utility.yul\":8342:8403   */\n      tag_324\n        /* \"#utility.yul\":8395:8402   */\n      dup5\n        /* \"#utility.yul\":8386:8392   */\n      dup3\n        /* \"#utility.yul\":8375:8384   */\n      dup6\n        /* \"#utility.yul\":8371:8393   */\n      add\n        /* \"#utility.yul\":8342:8403   */\n      tag_225\n      jump\t// in\n    tag_324:\n        /* \"#utility.yul\":8332:8403   */\n      swap2\n      pop\n        /* \"#utility.yul\":8288:8413   */\n      pop\n        /* \"#utility.yul\":8075:8420   */\n      swap3\n      swap2\n      pop\n      pop\n      jump\t// out\n        /* \"#utility.yul\":8426:8606   */\n    tag_226:\n        /* \"#utility.yul\":8474:8551   */\n      0x4e487b7100000000000000000000000000000000000000000000000000000000\n        /* \"#utility.yul\":8471:8472   */\n      0x00\n        /* \"#utility.yul\":8464:8552   */\n      mstore\n        /* \"#utility.yul\":8571:8575   */\n      0x12\n        /* \"#utility.yul\":8568:8569   */\n      0x04\n        /* \"#utility.yul\":8561:8576   */\n      mstore\n        /* \"#utility.yul\":8595:8599   */\n      0x24\n        /* \"#utility.yul\":8592:8593   */\n      0x00\n        /* \"#utility.yul\":8585:8600   */\n      revert\n        /* \"#utility.yul\":8612:8797   */\n    tag_120:\n        /* \"#utility.yul\":8652:8653   */\n      0x00\n        /* \"#utility.yul\":8669:8689   */\n      tag_327\n        /* \"#utility.yul\":8687:8688   */\n      dup3\n        /* \"#utility.yul\":8669:8689   */\n      tag_213\n      jump\t// in\n    tag_327:\n        /* \"#utility.yul\":8664:8689   */\n      swap2\n      pop\n        /* \"#utility.yul\":8703:8723   */\n      tag_328\n        /* \"#utility.yul\":8721:8722   */\n      dup4\n        /* \"#utility.yul\":8703:8723   */\n      tag_213\n      jump\t// in\n    tag_328:\n        /* \"#utility.yul\":8698:8723   */\n      swap3\n      pop\n        /* \"#utility.yul\":8742:8743   */\n      dup3\n        /* \"#utility.yul\":8732:8767   */\n      tag_329\n      jumpi\n        /* \"#utility.yul\":8747:8765   */\n      tag_330\n      tag_226\n      jump\t// in\n    tag_330:\n        /* \"#utility.yul\":8732:8767   */\n    tag_329:\n        /* \"#utility.yul\":8789:8790   */\n      dup3\n        /* \"#utility.yul\":8786:8787   */\n      dup3\n        /* \"#utility.yul\":8782:8791   */\n      div\n        /* \"#utility.yul\":8777:8791   */\n      swap1\n      pop\n        /* \"#utility.yul\":8612:8797   */\n      swap3\n      swap2\n      pop\n      pop\n      jump\t// out\n        /* \"#utility.yul\":8803:9135   */\n    tag_122:\n        /* \"#utility.yul\":8924:8928   */\n      0x00\n        /* \"#utility.yul\":8962:8964   */\n      0x40\n        /* \"#utility.yul\":8951:8960   */\n      dup3\n        /* \"#utility.yul\":8947:8965   */\n      add\n        /* \"#utility.yul\":8939:8965   */\n      swap1\n      pop\n        /* \"#utility.yul\":8975:9046   */\n      tag_332\n        /* \"#utility.yul\":9043:9044   */\n      0x00\n        /* \"#utility.yul\":9032:9041   */\n      dup4\n        /* \"#utility.yul\":9028:9045   */\n      add\n        /* \"#utility.yul\":9019:9025   */\n      dup6\n        /* \"#utility.yul\":8975:9046   */\n      tag_221\n      jump\t// in\n    tag_332:\n        /* \"#utility.yul\":9056:9128   */\n      tag_333\n        /* \"#utility.yul\":9124:9126   */\n      0x20\n        /* \"#utility.yul\":9113:9122   */\n      dup4\n        /* \"#utility.yul\":9109:9127   */\n      add\n        /* \"#utility.yul\":9100:9106   */\n      dup5\n        /* \"#utility.yul\":9056:9128   */\n      tag_218\n      jump\t// in\n    tag_333:\n        /* \"#utility.yul\":8803:9135   */\n      swap4\n      swap3\n      pop\n      pop\n      pop\n      jump\t// out\n        /* \"#utility.yul\":9141:9312   */\n    tag_227:\n        /* \"#utility.yul\":9281:9304   */\n      0x53686f756c64204574686572203d20546f6b656e410000000000000000000000\n        /* \"#utility.yul\":9277:9278   */\n      0x00\n        /* \"#utility.yul\":9269:9275   */\n      dup3\n        /* \"#utility.yul\":9265:9279   */\n      add\n        /* \"#utility.yul\":9258:9305   */\n      mstore\n        /* \"#utility.yul\":9141:9312   */\n      pop\n      jump\t// out\n        /* \"#utility.yul\":9318:9684   */\n    tag_228:\n        /* \"#utility.yul\":9460:9463   */\n      0x00\n        /* \"#utility.yul\":9481:9548   */\n      tag_336\n        /* \"#utility.yul\":9545:9547   */\n      0x15\n        /* \"#utility.yul\":9540:9543   */\n      dup4\n        /* \"#utility.yul\":9481:9548   */\n      tag_202\n      jump\t// in\n    tag_336:\n        /* \"#utility.yul\":9474:9548   */\n      swap2\n      pop\n        /* \"#utility.yul\":9557:9650   */\n      tag_337\n        /* \"#utility.yul\":9646:9649   */\n      dup3\n        /* \"#utility.yul\":9557:9650   */\n      tag_227\n      jump\t// in\n    tag_337:\n        /* \"#utility.yul\":9675:9677   */\n      0x20\n        /* \"#utility.yul\":9670:9673   */\n      dup3\n        /* \"#utility.yul\":9666:9678   */\n      add\n        /* \"#utility.yul\":9659:9678   */\n      swap1\n      pop\n        /* \"#utility.yul\":9318:9684   */\n      swap2\n      swap1\n      pop\n      jump\t// out\n        /* \"#utility.yul\":9690:10109   */\n    tag_130:\n        /* \"#utility.yul\":9856:9860   */\n      0x00\n        /* \"#utility.yul\":9894:9896   */\n      0x20\n        /* \"#utility.yul\":9883:9892   */\n      dup3\n        /* \"#utility.yul\":9879:9897   */\n      add\n        /* \"#utility.yul\":9871:9897   */\n      swap1\n      pop\n        /* \"#utility.yul\":9943:9952   */\n      dup2\n        /* \"#utility.yul\":9937:9941   */\n      dup2\n        /* \"#utility.yul\":9933:9953   */\n      sub\n        /* \"#utility.yul\":9929:9930   */\n      0x00\n        /* \"#utility.yul\":9918:9927   */\n      dup4\n        /* \"#utility.yul\":9914:9931   */\n      add\n        /* \"#utility.yul\":9907:9954   */\n      mstore\n        /* \"#utility.yul\":9971:10102   */\n      tag_339\n        /* \"#utility.yul\":10097:10101   */\n      dup2\n        /* \"#utility.yul\":9971:10102   */\n      tag_228\n      jump\t// in\n    tag_339:\n        /* \"#utility.yul\":9963:10102   */\n      swap1\n      pop\n        /* \"#utility.yul\":9690:10109   */\n      swap2\n      swap1\n      pop\n      jump\t// out\n        /* \"#utility.yul\":10115:10557   */\n    tag_167:\n        /* \"#utility.yul\":10264:10268   */\n      0x00\n        /* \"#utility.yul\":10302:10304   */\n      0x60\n        /* \"#utility.yul\":10291:10300   */\n      dup3\n        /* \"#utility.yul\":10287:10305   */\n      add\n        /* \"#utility.yul\":10279:10305   */\n      swap1\n      pop\n        /* \"#utility.yul\":10315:10386   */\n      tag_341\n        /* \"#utility.yul\":10383:10384   */\n      0x00\n        /* \"#utility.yul\":10372:10381   */\n      dup4\n        /* \"#utility.yul\":10368:10385   */\n      add\n        /* \"#utility.yul\":10359:10365   */\n      dup7\n        /* \"#utility.yul\":10315:10386   */\n      tag_221\n      jump\t// in\n    tag_341:\n        /* \"#utility.yul\":10396:10468   */\n      tag_342\n        /* \"#utility.yul\":10464:10466   */\n      0x20\n        /* \"#utility.yul\":10453:10462   */\n      dup4\n        /* \"#utility.yul\":10449:10467   */\n      add\n        /* \"#utility.yul\":10440:10446   */\n      dup6\n        /* \"#utility.yul\":10396:10468   */\n      tag_218\n      jump\t// in\n    tag_342:\n        /* \"#utility.yul\":10478:10550   */\n      tag_343\n        /* \"#utility.yul\":10546:10548   */\n      0x40\n        /* \"#utility.yul\":10535:10544   */\n      dup4\n        /* \"#utility.yul\":10531:10549   */\n      add\n        /* \"#utility.yul\":10522:10528   */\n      dup5\n        /* \"#utility.yul\":10478:10550   */\n      tag_218\n      jump\t// in\n    tag_343:\n        /* \"#utility.yul\":10115:10557   */\n      swap5\n      swap4\n      pop\n      pop\n      pop\n      pop\n      jump\t// out\n        /* \"#utility.yul\":10563:10754   */\n    tag_194:\n        /* \"#utility.yul\":10603:10606   */\n      0x00\n        /* \"#utility.yul\":10622:10642   */\n      tag_345\n        /* \"#utility.yul\":10640:10641   */\n      dup3\n        /* \"#utility.yul\":10622:10642   */\n      tag_213\n      jump\t// in\n    tag_345:\n        /* \"#utility.yul\":10617:10642   */\n      swap2\n      pop\n        /* \"#utility.yul\":10656:10676   */\n      tag_346\n        /* \"#utility.yul\":10674:10675   */\n      dup4\n        /* \"#utility.yul\":10656:10676   */\n      tag_213\n      jump\t// in\n    tag_346:\n        /* \"#utility.yul\":10651:10676   */\n      swap3\n      pop\n        /* \"#utility.yul\":10699:10700   */\n      dup3\n        /* \"#utility.yul\":10696:10697   */\n      dup3\n        /* \"#utility.yul\":10692:10701   */\n      add\n        /* \"#utility.yul\":10685:10701   */\n      swap1\n      pop\n        /* \"#utility.yul\":10720:10723   */\n      dup1\n        /* \"#utility.yul\":10717:10718   */\n      dup3\n        /* \"#utility.yul\":10714:10724   */\n      gt\n        /* \"#utility.yul\":10711:10747   */\n      iszero\n      tag_347\n      jumpi\n        /* \"#utility.yul\":10727:10745   */\n      tag_348\n      tag_223\n      jump\t// in\n    tag_348:\n        /* \"#utility.yul\":10711:10747   */\n    tag_347:\n        /* \"#utility.yul\":10563:10754   */\n      swap3\n      swap2\n      pop\n      pop\n      jump\t// out\n\n    auxdata: 0xa26469706673582212209ad955acc2d11255cf4ab197c564f12091e05c380ec0b97dd0b6c839741d0ad764736f6c634300081a0033\n}\n",
				"bytecode": {
					"linkReferences": {},
					"object": "608060405234801561000f575f80fd5b50604051611b27380380611b27833981810160405281019061003191906101c4565b6040518060400160405280600881526020017f45786368616e67650000000000000000000000000000000000000000000000008152506040518060400160405280600381526020017f584348000000000000000000000000000000000000000000000000000000000081525081600390816100ac9190610429565b5080600490816100bc9190610429565b5050508060055f6101000a81548173ffffffffffffffffffffffffffffffffffffffff021916908373ffffffffffffffffffffffffffffffffffffffff16021790555060055f9054906101000a900473ffffffffffffffffffffffffffffffffffffffff1660065f6101000a81548173ffffffffffffffffffffffffffffffffffffffff021916908373ffffffffffffffffffffffffffffffffffffffff160217905550506104f8565b5f80fd5b5f73ffffffffffffffffffffffffffffffffffffffff82169050919050565b5f6101938261016a565b9050919050565b6101a381610189565b81146101ad575f80fd5b50565b5f815190506101be8161019a565b92915050565b5f602082840312156101d9576101d8610166565b5b5f6101e6848285016101b0565b91505092915050565b5f81519050919050565b7f4e487b71000000000000000000000000000000000000000000000000000000005f52604160045260245ffd5b7f4e487b71000000000000000000000000000000000000000000000000000000005f52602260045260245ffd5b5f600282049050600182168061026a57607f821691505b60208210810361027d5761027c610226565b5b50919050565b5f819050815f5260205f209050919050565b5f6020601f8301049050919050565b5f82821b905092915050565b5f600883026102df7fffffffffffffffffffffffffffffffffffffffffffffffffffffffffffffffff826102a4565b6102e986836102a4565b95508019841693508086168417925050509392505050565b5f819050919050565b5f819050919050565b5f61032d61032861032384610301565b61030a565b610301565b9050919050565b5f819050919050565b61034683610313565b61035a61035282610334565b8484546102b0565b825550505050565b5f90565b61036e610362565b61037981848461033d565b505050565b5b8181101561039c576103915f82610366565b60018101905061037f565b5050565b601f8211156103e1576103b281610283565b6103bb84610295565b810160208510156103ca578190505b6103de6103d685610295565b83018261037e565b50505b505050565b5f82821c905092915050565b5f6104015f19846008026103e6565b1980831691505092915050565b5f61041983836103f2565b9150826002028217905092915050565b610432826101ef565b67ffffffffffffffff81111561044b5761044a6101f9565b5b6104558254610253565b6104608282856103a0565b5f60209050601f831160018114610491575f841561047f578287015190505b610489858261040e565b8655506104f0565b601f19841661049f86610283565b5f5b828110156104c6578489015182556001820191506020850194506020810190506104a1565b868310156104e357848901516104df601f8916826103f2565b8355505b6001600288020188555050505b505050505050565b611622806105055f395ff3fe6080604052600436106100dc575f3560e01c806351c6590a1161007e5780639c8f9f23116100585780639c8f9f231461028a5780639d76ea58146102b2578063a9059cbb146102dc578063dd62ed3e14610318576100dc565b806351c6590a1461020857806370a082311461022457806395d89b4114610260576100dc565b806323b872dd116100ba57806323b872dd146101705780632f80e48c146101ac578063313ce567146101d45780634e2a43d9146101fe576100dc565b806306fdde03146100e0578063095ea7b31461010a57806318160ddd14610146575b5f80fd5b3480156100eb575f80fd5b506100f4610354565b60405161010191906110b9565b60405180910390f35b348015610115575f80fd5b50610130600480360381019061012b919061116a565b6103e4565b60405161013d91906111c2565b60405180910390f35b348015610151575f80fd5b5061015a610406565b60405161016791906111ea565b60405180910390f35b34801561017b575f80fd5b5061019660048036038101906101919190611203565b61040f565b6040516101a391906111c2565b60405180910390f35b3480156101b7575f80fd5b506101d260048036038101906101cd9190611253565b61043d565b005b3480156101df575f80fd5b506101e8610540565b6040516101f59190611299565b60405180910390f35b610206610548565b005b610222600480360381019061021d9190611253565b610609565b005b34801561022f575f80fd5b5061024a600480360381019061024591906112b2565b610719565b60405161025791906111ea565b60405180910390f35b34801561026b575f80fd5b5061027461075e565b60405161028191906110b9565b60405180910390f35b348015610295575f80fd5b506102b060048036038101906102ab9190611253565b6107ee565b005b3480156102bd575f80fd5b506102c66108fe565b6040516102d391906112ec565b60405180910390f35b3480156102e7575f80fd5b5061030260048036038101906102fd919061116a565b610923565b60405161030f91906111c2565b60405180910390f35b348015610323575f80fd5b5061033e60048036038101906103399190611305565b610945565b60405161034b91906111ea565b60405180910390f35b60606003805461036390611370565b80601f016020809104026020016040519081016040528092919081815260200182805461038f90611370565b80156103da5780601f106103b1576101008083540402835291602001916103da565b820191905f5260205f20905b8154815290600101906020018083116103bd57829003601f168201915b5050505050905090565b5f806103ee6109c7565b90506103fb8185856109ce565b600191505092915050565b5f600254905090565b5f806104196109c7565b90506104268582856109e0565b610431858585610a73565b60019150509392505050565b5f3390505f670de0b6b3a76400008361045691906113cd565b905060065f9054906101000a900473ffffffffffffffffffffffffffffffffffffffff1673ffffffffffffffffffffffffffffffffffffffff166323b872dd8330866040518463ffffffff1660e01b81526004016104b69392919061140e565b6020604051808303815f875af11580156104d2573d5f803e3d5ffd5b505050506040513d601f19601f820116820180604052508101906104f6919061146d565b508173ffffffffffffffffffffffffffffffffffffffff166108fc8290811502906040515f60405180830381858888f1935050505015801561053a573d5f803e3d5ffd5b50505050565b5f6012905090565b5f3390505f670de0b6b3a76400003461056191906114c5565b90505f81905060065f9054906101000a900473ffffffffffffffffffffffffffffffffffffffff1673ffffffffffffffffffffffffffffffffffffffff1663a9059cbb84836040518363ffffffff1660e01b81526004016105c39291906114f5565b6020604051808303815f875af11580156105df573d5f803e3d5ffd5b505050506040513d601f19601f82011682018060405250810190610603919061146d565b50505050565b5f349050670de0b6b3a76400008261062191906113cd565b8114610662576040517f08c379a000000000000000000000000000000000000000000000000000000000815260040161065990611566565b60405180910390fd5b5f33905060065f9054906101000a900473ffffffffffffffffffffffffffffffffffffffff1673ffffffffffffffffffffffffffffffffffffffff166323b872dd8230866040518463ffffffff1660e01b81526004016106c49392919061140e565b6020604051808303815f875af11580156106e0573d5f803e3d5ffd5b505050506040513d601f19601f82011682018060405250810190610704919061146d565b505f8390506107138282610b63565b50505050565b5f805f8373ffffffffffffffffffffffffffffffffffffffff1673ffffffffffffffffffffffffffffffffffffffff1681526020019081526020015f20549050919050565b60606004805461076d90611370565b80601f016020809104026020016040519081016040528092919081815260200182805461079990611370565b80156107e45780601f106107bb576101008083540402835291602001916107e4565b820191905f5260205f20905b8154815290600101906020018083116107c757829003601f168201915b5050505050905090565b5f3390506107fc8183610be2565b5f8290505f670de0b6b3a76400008461081591906113cd565b90508273ffffffffffffffffffffffffffffffffffffffff166108fc8290811502906040515f60405180830381858888f1935050505015801561085a573d5f803e3d5ffd5b5060065f9054906101000a900473ffffffffffffffffffffffffffffffffffffffff1673ffffffffffffffffffffffffffffffffffffffff1663a9059cbb84846040518363ffffffff1660e01b81526004016108b79291906114f5565b6020604051808303815f875af11580156108d3573d5f803e3d5ffd5b505050506040513d601f19601f820116820180604052508101906108f7919061146d565b5050505050565b60055f9054906101000a900473ffffffffffffffffffffffffffffffffffffffff1681565b5f8061092d6109c7565b905061093a818585610a73565b600191505092915050565b5f60015f8473ffffffffffffffffffffffffffffffffffffffff1673ffffffffffffffffffffffffffffffffffffffff1681526020019081526020015f205f8373ffffffffffffffffffffffffffffffffffffffff1673ffffffffffffffffffffffffffffffffffffffff1681526020019081526020015f2054905092915050565b5f33905090565b6109db8383836001610c61565b505050565b5f6109eb8484610945565b90507fffffffffffffffffffffffffffffffffffffffffffffffffffffffffffffffff811015610a6d5781811015610a5e578281836040517ffb8f41b2000000000000000000000000000000000000000000000000000000008152600401610a5593929190611584565b60405180910390fd5b610a6c84848484035f610c61565b5b50505050565b5f73ffffffffffffffffffffffffffffffffffffffff168373ffffffffffffffffffffffffffffffffffffffff1603610ae3575f6040517f96c6fd1e000000000000000000000000000000000000000000000000000000008152600401610ada91906112ec565b60405180910390fd5b5f73ffffffffffffffffffffffffffffffffffffffff168273ffffffffffffffffffffffffffffffffffffffff1603610b53575f6040517fec442f05000000000000000000000000000000000000000000000000000000008152600401610b4a91906112ec565b60405180910390fd5b610b5e838383610e30565b505050565b5f73ffffffffffffffffffffffffffffffffffffffff168273ffffffffffffffffffffffffffffffffffffffff1603610bd3575f6040517fec442f05000000000000000000000000000000000000000000000000000000008152600401610bca91906112ec565b60405180910390fd5b610bde5f8383610e30565b5050565b5f73ffffffffffffffffffffffffffffffffffffffff168273ffffffffffffffffffffffffffffffffffffffff1603610c52575f6040517f96c6fd1e000000000000000000000000000000000000000000000000000000008152600401610c4991906112ec565b60405180910390fd5b610c5d825f83610e30565b5050565b5f73ffffffffffffffffffffffffffffffffffffffff168473ffffffffffffffffffffffffffffffffffffffff1603610cd1575f6040517fe602df05000000000000000000000000000000000000000000000000000000008152600401610cc891906112ec565b60405180910390fd5b5f73ffffffffffffffffffffffffffffffffffffffff168373ffffffffffffffffffffffffffffffffffffffff1603610d41575f6040517f94280d62000000000000000000000000000000000000000000000000000000008152600401610d3891906112ec565b60405180910390fd5b8160015f8673ffffffffffffffffffffffffffffffffffffffff1673ffffffffffffffffffffffffffffffffffffffff1681526020019081526020015f205f8573ffffffffffffffffffffffffffffffffffffffff1673ffffffffffffffffffffffffffffffffffffffff1681526020019081526020015f20819055508015610e2a578273ffffffffffffffffffffffffffffffffffffffff168473ffffffffffffffffffffffffffffffffffffffff167f8c5be1e5ebec7d5bd14f71427d1e84f3dd0314c0f7b2291e5b200ac8c7c3b92584604051610e2191906111ea565b60405180910390a35b50505050565b5f73ffffffffffffffffffffffffffffffffffffffff168373ffffffffffffffffffffffffffffffffffffffff1603610e80578060025f828254610e7491906115b9565b92505081905550610f4e565b5f805f8573ffffffffffffffffffffffffffffffffffffffff1673ffffffffffffffffffffffffffffffffffffffff1681526020019081526020015f2054905081811015610f09578381836040517fe450d38c000000000000000000000000000000000000000000000000000000008152600401610f0093929190611584565b60405180910390fd5b8181035f808673ffffffffffffffffffffffffffffffffffffffff1673ffffffffffffffffffffffffffffffffffffffff1681526020019081526020015f2081905550505b5f73ffffffffffffffffffffffffffffffffffffffff168273ffffffffffffffffffffffffffffffffffffffff1603610f95578060025f8282540392505081905550610fdf565b805f808473ffffffffffffffffffffffffffffffffffffffff1673ffffffffffffffffffffffffffffffffffffffff1681526020019081526020015f205f82825401925050819055505b8173ffffffffffffffffffffffffffffffffffffffff168373ffffffffffffffffffffffffffffffffffffffff167fddf252ad1be2c89b69c2b068fc378daa952ba7f163c4a11628f55a4df523b3ef8360405161103c91906111ea565b60405180910390a3505050565b5f81519050919050565b5f82825260208201905092915050565b8281835e5f83830152505050565b5f601f19601f8301169050919050565b5f61108b82611049565b6110958185611053565b93506110a5818560208601611063565b6110ae81611071565b840191505092915050565b5f6020820190508181035f8301526110d18184611081565b905092915050565b5f80fd5b5f73ffffffffffffffffffffffffffffffffffffffff82169050919050565b5f611106826110dd565b9050919050565b611116816110fc565b8114611120575f80fd5b50565b5f813590506111318161110d565b92915050565b5f819050919050565b61114981611137565b8114611153575f80fd5b50565b5f8135905061116481611140565b92915050565b5f80604083850312156111805761117f6110d9565b5b5f61118d85828601611123565b925050602061119e85828601611156565b9150509250929050565b5f8115159050919050565b6111bc816111a8565b82525050565b5f6020820190506111d55f8301846111b3565b92915050565b6111e481611137565b82525050565b5f6020820190506111fd5f8301846111db565b92915050565b5f805f6060848603121561121a576112196110d9565b5b5f61122786828701611123565b935050602061123886828701611123565b925050604061124986828701611156565b9150509250925092565b5f60208284031215611268576112676110d9565b5b5f61127584828501611156565b91505092915050565b5f60ff82169050919050565b6112938161127e565b82525050565b5f6020820190506112ac5f83018461128a565b92915050565b5f602082840312156112c7576112c66110d9565b5b5f6112d484828501611123565b91505092915050565b6112e6816110fc565b82525050565b5f6020820190506112ff5f8301846112dd565b92915050565b5f806040838503121561131b5761131a6110d9565b5b5f61132885828601611123565b925050602061133985828601611123565b9150509250929050565b7f4e487b71000000000000000000000000000000000000000000000000000000005f52602260045260245ffd5b5f600282049050600182168061138757607f821691505b60208210810361139a57611399611343565b5b50919050565b7f4e487b71000000000000000000000000000000000000000000000000000000005f52601160045260245ffd5b5f6113d782611137565b91506113e283611137565b92508282026113f081611137565b91508282048414831517611407576114066113a0565b5b5092915050565b5f6060820190506114215f8301866112dd565b61142e60208301856112dd565b61143b60408301846111db565b949350505050565b61144c816111a8565b8114611456575f80fd5b50565b5f8151905061146781611443565b92915050565b5f60208284031215611482576114816110d9565b5b5f61148f84828501611459565b91505092915050565b7f4e487b71000000000000000000000000000000000000000000000000000000005f52601260045260245ffd5b5f6114cf82611137565b91506114da83611137565b9250826114ea576114e9611498565b5b828204905092915050565b5f6040820190506115085f8301856112dd565b61151560208301846111db565b9392505050565b7f53686f756c64204574686572203d20546f6b656e4100000000000000000000005f82015250565b5f611550601583611053565b915061155b8261151c565b602082019050919050565b5f6020820190508181035f83015261157d81611544565b9050919050565b5f6060820190506115975f8301866112dd565b6115a460208301856111db565b6115b160408301846111db565b949350505050565b5f6115c382611137565b91506115ce83611137565b92508282019050808211156115e6576115e56113a0565b5b9291505056fea26469706673582212209ad955acc2d11255cf4ab197c564f12091e05c380ec0b97dd0b6c839741d0ad764736f6c634300081a0033",
					"opcodes": "PUSH1 0x80 PUSH1 0x40 MSTORE CALLVALUE DUP1 ISZERO PUSH2 0xF JUMPI PUSH0 DUP1 REVERT JUMPDEST POP PUSH1 0x40 MLOAD PUSH2 0x1B27 CODESIZE SUB DUP1 PUSH2 0x1B27 DUP4 CODECOPY DUP2 DUP2 ADD PUSH1 0x40 MSTORE DUP2 ADD SWAP1 PUSH2 0x31 SWAP2 SWAP1 PUSH2 0x1C4 JUMP JUMPDEST PUSH1 0x40 MLOAD DUP1 PUSH1 0x40 ADD PUSH1 0x40 MSTORE DUP1 PUSH1 0x8 DUP2 MSTORE PUSH1 0x20 ADD PUSH32 0x45786368616E6765000000000000000000000000000000000000000000000000 DUP2 MSTORE POP PUSH1 0x40 MLOAD DUP1 PUSH1 0x40 ADD PUSH1 0x40 MSTORE DUP1 PUSH1 0x3 DUP2 MSTORE PUSH1 0x20 ADD PUSH32 0x5843480000000000000000000000000000000000000000000000000000000000 DUP2 MSTORE POP DUP2 PUSH1 0x3 SWAP1 DUP2 PUSH2 0xAC SWAP2 SWAP1 PUSH2 0x429 JUMP JUMPDEST POP DUP1 PUSH1 0x4 SWAP1 DUP2 PUSH2 0xBC SWAP2 SWAP1 PUSH2 0x429 JUMP JUMPDEST POP POP POP DUP1 PUSH1 0x5 PUSH0 PUSH2 0x100 EXP DUP2 SLOAD DUP2 PUSH20 0xFFFFFFFFFFFFFFFFFFFFFFFFFFFFFFFFFFFFFFFF MUL NOT AND SWAP1 DUP4 PUSH20 0xFFFFFFFFFFFFFFFFFFFFFFFFFFFFFFFFFFFFFFFF AND MUL OR SWAP1 SSTORE POP PUSH1 0x5 PUSH0 SWAP1 SLOAD SWAP1 PUSH2 0x100 EXP SWAP1 DIV PUSH20 0xFFFFFFFFFFFFFFFFFFFFFFFFFFFFFFFFFFFFFFFF AND PUSH1 0x6 PUSH0 PUSH2 0x100 EXP DUP2 SLOAD DUP2 PUSH20 0xFFFFFFFFFFFFFFFFFFFFFFFFFFFFFFFFFFFFFFFF MUL NOT AND SWAP1 DUP4 PUSH20 0xFFFFFFFFFFFFFFFFFFFFFFFFFFFFFFFFFFFFFFFF AND MUL OR SWAP1 SSTORE POP POP PUSH2 0x4F8 JUMP JUMPDEST PUSH0 DUP1 REVERT JUMPDEST PUSH0 PUSH20 0xFFFFFFFFFFFFFFFFFFFFFFFFFFFFFFFFFFFFFFFF DUP3 AND SWAP1 POP SWAP2 SWAP1 POP JUMP JUMPDEST PUSH0 PUSH2 0x193 DUP3 PUSH2 0x16A JUMP JUMPDEST SWAP1 POP SWAP2 SWAP1 POP JUMP JUMPDEST PUSH2 0x1A3 DUP2 PUSH2 0x189 JUMP JUMPDEST DUP2 EQ PUSH2 0x1AD JUMPI PUSH0 DUP1 REVERT JUMPDEST POP JUMP JUMPDEST PUSH0 DUP2 MLOAD SWAP1 POP PUSH2 0x1BE DUP2 PUSH2 0x19A JUMP JUMPDEST SWAP3 SWAP2 POP POP JUMP JUMPDEST PUSH0 PUSH1 0x20 DUP3 DUP5 SUB SLT ISZERO PUSH2 0x1D9 JUMPI PUSH2 0x1D8 PUSH2 0x166 JUMP JUMPDEST JUMPDEST PUSH0 PUSH2 0x1E6 DUP5 DUP3 DUP6 ADD PUSH2 0x1B0 JUMP JUMPDEST SWAP2 POP POP SWAP3 SWAP2 POP POP JUMP JUMPDEST PUSH0 DUP2 MLOAD SWAP1 POP SWAP2 SWAP1 POP JUMP JUMPDEST PUSH32 0x4E487B7100000000000000000000000000000000000000000000000000000000 PUSH0 MSTORE PUSH1 0x41 PUSH1 0x4 MSTORE PUSH1 0x24 PUSH0 REVERT JUMPDEST PUSH32 0x4E487B7100000000000000000000000000000000000000000000000000000000 PUSH0 MSTORE PUSH1 0x22 PUSH1 0x4 MSTORE PUSH1 0x24 PUSH0 REVERT JUMPDEST PUSH0 PUSH1 0x2 DUP3 DIV SWAP1 POP PUSH1 0x1 DUP3 AND DUP1 PUSH2 0x26A JUMPI PUSH1 0x7F DUP3 AND SWAP2 POP JUMPDEST PUSH1 0x20 DUP3 LT DUP2 SUB PUSH2 0x27D JUMPI PUSH2 0x27C PUSH2 0x226 JUMP JUMPDEST JUMPDEST POP SWAP2 SWAP1 POP JUMP JUMPDEST PUSH0 DUP2 SWAP1 POP DUP2 PUSH0 MSTORE PUSH1 0x20 PUSH0 KECCAK256 SWAP1 POP SWAP2 SWAP1 POP JUMP JUMPDEST PUSH0 PUSH1 0x20 PUSH1 0x1F DUP4 ADD DIV SWAP1 POP SWAP2 SWAP1 POP JUMP JUMPDEST PUSH0 DUP3 DUP3 SHL SWAP1 POP SWAP3 SWAP2 POP POP JUMP JUMPDEST PUSH0 PUSH1 0x8 DUP4 MUL PUSH2 0x2DF PUSH32 0xFFFFFFFFFFFFFFFFFFFFFFFFFFFFFFFFFFFFFFFFFFFFFFFFFFFFFFFFFFFFFFFF DUP3 PUSH2 0x2A4 JUMP JUMPDEST PUSH2 0x2E9 DUP7 DUP4 PUSH2 0x2A4 JUMP JUMPDEST SWAP6 POP DUP1 NOT DUP5 AND SWAP4 POP DUP1 DUP7 AND DUP5 OR SWAP3 POP POP POP SWAP4 SWAP3 POP POP POP JUMP JUMPDEST PUSH0 DUP2 SWAP1 POP SWAP2 SWAP1 POP JUMP JUMPDEST PUSH0 DUP2 SWAP1 POP SWAP2 SWAP1 POP JUMP JUMPDEST PUSH0 PUSH2 0x32D PUSH2 0x328 PUSH2 0x323 DUP5 PUSH2 0x301 JUMP JUMPDEST PUSH2 0x30A JUMP JUMPDEST PUSH2 0x301 JUMP JUMPDEST SWAP1 POP SWAP2 SWAP1 POP JUMP JUMPDEST PUSH0 DUP2 SWAP1 POP SWAP2 SWAP1 POP JUMP JUMPDEST PUSH2 0x346 DUP4 PUSH2 0x313 JUMP JUMPDEST PUSH2 0x35A PUSH2 0x352 DUP3 PUSH2 0x334 JUMP JUMPDEST DUP5 DUP5 SLOAD PUSH2 0x2B0 JUMP JUMPDEST DUP3 SSTORE POP POP POP POP JUMP JUMPDEST PUSH0 SWAP1 JUMP JUMPDEST PUSH2 0x36E PUSH2 0x362 JUMP JUMPDEST PUSH2 0x379 DUP2 DUP5 DUP5 PUSH2 0x33D JUMP JUMPDEST POP POP POP JUMP JUMPDEST JUMPDEST DUP2 DUP2 LT ISZERO PUSH2 0x39C JUMPI PUSH2 0x391 PUSH0 DUP3 PUSH2 0x366 JUMP JUMPDEST PUSH1 0x1 DUP2 ADD SWAP1 POP PUSH2 0x37F JUMP JUMPDEST POP POP JUMP JUMPDEST PUSH1 0x1F DUP3 GT ISZERO PUSH2 0x3E1 JUMPI PUSH2 0x3B2 DUP2 PUSH2 0x283 JUMP JUMPDEST PUSH2 0x3BB DUP5 PUSH2 0x295 JUMP JUMPDEST DUP2 ADD PUSH1 0x20 DUP6 LT ISZERO PUSH2 0x3CA JUMPI DUP2 SWAP1 POP JUMPDEST PUSH2 0x3DE PUSH2 0x3D6 DUP6 PUSH2 0x295 JUMP JUMPDEST DUP4 ADD DUP3 PUSH2 0x37E JUMP JUMPDEST POP POP JUMPDEST POP POP POP JUMP JUMPDEST PUSH0 DUP3 DUP3 SHR SWAP1 POP SWAP3 SWAP2 POP POP JUMP JUMPDEST PUSH0 PUSH2 0x401 PUSH0 NOT DUP5 PUSH1 0x8 MUL PUSH2 0x3E6 JUMP JUMPDEST NOT DUP1 DUP4 AND SWAP2 POP POP SWAP3 SWAP2 POP POP JUMP JUMPDEST PUSH0 PUSH2 0x419 DUP4 DUP4 PUSH2 0x3F2 JUMP JUMPDEST SWAP2 POP DUP3 PUSH1 0x2 MUL DUP3 OR SWAP1 POP SWAP3 SWAP2 POP POP JUMP JUMPDEST PUSH2 0x432 DUP3 PUSH2 0x1EF JUMP JUMPDEST PUSH8 0xFFFFFFFFFFFFFFFF DUP2 GT ISZERO PUSH2 0x44B JUMPI PUSH2 0x44A PUSH2 0x1F9 JUMP JUMPDEST JUMPDEST PUSH2 0x455 DUP3 SLOAD PUSH2 0x253 JUMP JUMPDEST PUSH2 0x460 DUP3 DUP3 DUP6 PUSH2 0x3A0 JUMP JUMPDEST PUSH0 PUSH1 0x20 SWAP1 POP PUSH1 0x1F DUP4 GT PUSH1 0x1 DUP2 EQ PUSH2 0x491 JUMPI PUSH0 DUP5 ISZERO PUSH2 0x47F JUMPI DUP3 DUP8 ADD MLOAD SWAP1 POP JUMPDEST PUSH2 0x489 DUP6 DUP3 PUSH2 0x40E JUMP JUMPDEST DUP7 SSTORE POP PUSH2 0x4F0 JUMP JUMPDEST PUSH1 0x1F NOT DUP5 AND PUSH2 0x49F DUP7 PUSH2 0x283 JUMP JUMPDEST PUSH0 JUMPDEST DUP3 DUP2 LT ISZERO PUSH2 0x4C6 JUMPI DUP5 DUP10 ADD MLOAD DUP3 SSTORE PUSH1 0x1 DUP3 ADD SWAP2 POP PUSH1 0x20 DUP6 ADD SWAP5 POP PUSH1 0x20 DUP2 ADD SWAP1 POP PUSH2 0x4A1 JUMP JUMPDEST DUP7 DUP4 LT ISZERO PUSH2 0x4E3 JUMPI DUP5 DUP10 ADD MLOAD PUSH2 0x4DF PUSH1 0x1F DUP10 AND DUP3 PUSH2 0x3F2 JUMP JUMPDEST DUP4 SSTORE POP JUMPDEST PUSH1 0x1 PUSH1 0x2 DUP9 MUL ADD DUP9 SSTORE POP POP POP JUMPDEST POP POP POP POP POP POP JUMP JUMPDEST PUSH2 0x1622 DUP1 PUSH2 0x505 PUSH0 CODECOPY PUSH0 RETURN INVALID PUSH1 0x80 PUSH1 0x40 MSTORE PUSH1 0x4 CALLDATASIZE LT PUSH2 0xDC JUMPI PUSH0 CALLDATALOAD PUSH1 0xE0 SHR DUP1 PUSH4 0x51C6590A GT PUSH2 0x7E JUMPI DUP1 PUSH4 0x9C8F9F23 GT PUSH2 0x58 JUMPI DUP1 PUSH4 0x9C8F9F23 EQ PUSH2 0x28A JUMPI DUP1 PUSH4 0x9D76EA58 EQ PUSH2 0x2B2 JUMPI DUP1 PUSH4 0xA9059CBB EQ PUSH2 0x2DC JUMPI DUP1 PUSH4 0xDD62ED3E EQ PUSH2 0x318 JUMPI PUSH2 0xDC JUMP JUMPDEST DUP1 PUSH4 0x51C6590A EQ PUSH2 0x208 JUMPI DUP1 PUSH4 0x70A08231 EQ PUSH2 0x224 JUMPI DUP1 PUSH4 0x95D89B41 EQ PUSH2 0x260 JUMPI PUSH2 0xDC JUMP JUMPDEST DUP1 PUSH4 0x23B872DD GT PUSH2 0xBA JUMPI DUP1 PUSH4 0x23B872DD EQ PUSH2 0x170 JUMPI DUP1 PUSH4 0x2F80E48C EQ PUSH2 0x1AC JUMPI DUP1 PUSH4 0x313CE567 EQ PUSH2 0x1D4 JUMPI DUP1 PUSH4 0x4E2A43D9 EQ PUSH2 0x1FE JUMPI PUSH2 0xDC JUMP JUMPDEST DUP1 PUSH4 0x6FDDE03 EQ PUSH2 0xE0 JUMPI DUP1 PUSH4 0x95EA7B3 EQ PUSH2 0x10A JUMPI DUP1 PUSH4 0x18160DDD EQ PUSH2 0x146 JUMPI JUMPDEST PUSH0 DUP1 REVERT JUMPDEST CALLVALUE DUP1 ISZERO PUSH2 0xEB JUMPI PUSH0 DUP1 REVERT JUMPDEST POP PUSH2 0xF4 PUSH2 0x354 JUMP JUMPDEST PUSH1 0x40 MLOAD PUSH2 0x101 SWAP2 SWAP1 PUSH2 0x10B9 JUMP JUMPDEST PUSH1 0x40 MLOAD DUP1 SWAP2 SUB SWAP1 RETURN JUMPDEST CALLVALUE DUP1 ISZERO PUSH2 0x115 JUMPI PUSH0 DUP1 REVERT JUMPDEST POP PUSH2 0x130 PUSH1 0x4 DUP1 CALLDATASIZE SUB DUP2 ADD SWAP1 PUSH2 0x12B SWAP2 SWAP1 PUSH2 0x116A JUMP JUMPDEST PUSH2 0x3E4 JUMP JUMPDEST PUSH1 0x40 MLOAD PUSH2 0x13D SWAP2 SWAP1 PUSH2 0x11C2 JUMP JUMPDEST PUSH1 0x40 MLOAD DUP1 SWAP2 SUB SWAP1 RETURN JUMPDEST CALLVALUE DUP1 ISZERO PUSH2 0x151 JUMPI PUSH0 DUP1 REVERT JUMPDEST POP PUSH2 0x15A PUSH2 0x406 JUMP JUMPDEST PUSH1 0x40 MLOAD PUSH2 0x167 SWAP2 SWAP1 PUSH2 0x11EA JUMP JUMPDEST PUSH1 0x40 MLOAD DUP1 SWAP2 SUB SWAP1 RETURN JUMPDEST CALLVALUE DUP1 ISZERO PUSH2 0x17B JUMPI PUSH0 DUP1 REVERT JUMPDEST POP PUSH2 0x196 PUSH1 0x4 DUP1 CALLDATASIZE SUB DUP2 ADD SWAP1 PUSH2 0x191 SWAP2 SWAP1 PUSH2 0x1203 JUMP JUMPDEST PUSH2 0x40F JUMP JUMPDEST PUSH1 0x40 MLOAD PUSH2 0x1A3 SWAP2 SWAP1 PUSH2 0x11C2 JUMP JUMPDEST PUSH1 0x40 MLOAD DUP1 SWAP2 SUB SWAP1 RETURN JUMPDEST CALLVALUE DUP1 ISZERO PUSH2 0x1B7 JUMPI PUSH0 DUP1 REVERT JUMPDEST POP PUSH2 0x1D2 PUSH1 0x4 DUP1 CALLDATASIZE SUB DUP2 ADD SWAP1 PUSH2 0x1CD SWAP2 SWAP1 PUSH2 0x1253 JUMP JUMPDEST PUSH2 0x43D JUMP JUMPDEST STOP JUMPDEST CALLVALUE DUP1 ISZERO PUSH2 0x1DF JUMPI PUSH0 DUP1 REVERT JUMPDEST POP PUSH2 0x1E8 PUSH2 0x540 JUMP JUMPDEST PUSH1 0x40 MLOAD PUSH2 0x1F5 SWAP2 SWAP1 PUSH2 0x1299 JUMP JUMPDEST PUSH1 0x40 MLOAD DUP1 SWAP2 SUB SWAP1 RETURN JUMPDEST PUSH2 0x206 PUSH2 0x548 JUMP JUMPDEST STOP JUMPDEST PUSH2 0x222 PUSH1 0x4 DUP1 CALLDATASIZE SUB DUP2 ADD SWAP1 PUSH2 0x21D SWAP2 SWAP1 PUSH2 0x1253 JUMP JUMPDEST PUSH2 0x609 JUMP JUMPDEST STOP JUMPDEST CALLVALUE DUP1 ISZERO PUSH2 0x22F JUMPI PUSH0 DUP1 REVERT JUMPDEST POP PUSH2 0x24A PUSH1 0x4 DUP1 CALLDATASIZE SUB DUP2 ADD SWAP1 PUSH2 0x245 SWAP2 SWAP1 PUSH2 0x12B2 JUMP JUMPDEST PUSH2 0x719 JUMP JUMPDEST PUSH1 0x40 MLOAD PUSH2 0x257 SWAP2 SWAP1 PUSH2 0x11EA JUMP JUMPDEST PUSH1 0x40 MLOAD DUP1 SWAP2 SUB SWAP1 RETURN JUMPDEST CALLVALUE DUP1 ISZERO PUSH2 0x26B JUMPI PUSH0 DUP1 REVERT JUMPDEST POP PUSH2 0x274 PUSH2 0x75E JUMP JUMPDEST PUSH1 0x40 MLOAD PUSH2 0x281 SWAP2 SWAP1 PUSH2 0x10B9 JUMP JUMPDEST PUSH1 0x40 MLOAD DUP1 SWAP2 SUB SWAP1 RETURN JUMPDEST CALLVALUE DUP1 ISZERO PUSH2 0x295 JUMPI PUSH0 DUP1 REVERT JUMPDEST POP PUSH2 0x2B0 PUSH1 0x4 DUP1 CALLDATASIZE SUB DUP2 ADD SWAP1 PUSH2 0x2AB SWAP2 SWAP1 PUSH2 0x1253 JUMP JUMPDEST PUSH2 0x7EE JUMP JUMPDEST STOP JUMPDEST CALLVALUE DUP1 ISZERO PUSH2 0x2BD JUMPI PUSH0 DUP1 REVERT JUMPDEST POP PUSH2 0x2C6 PUSH2 0x8FE JUMP JUMPDEST PUSH1 0x40 MLOAD PUSH2 0x2D3 SWAP2 SWAP1 PUSH2 0x12EC JUMP JUMPDEST PUSH1 0x40 MLOAD DUP1 SWAP2 SUB SWAP1 RETURN JUMPDEST CALLVALUE DUP1 ISZERO PUSH2 0x2E7 JUMPI PUSH0 DUP1 REVERT JUMPDEST POP PUSH2 0x302 PUSH1 0x4 DUP1 CALLDATASIZE SUB DUP2 ADD SWAP1 PUSH2 0x2FD SWAP2 SWAP1 PUSH2 0x116A JUMP JUMPDEST PUSH2 0x923 JUMP JUMPDEST PUSH1 0x40 MLOAD PUSH2 0x30F SWAP2 SWAP1 PUSH2 0x11C2 JUMP JUMPDEST PUSH1 0x40 MLOAD DUP1 SWAP2 SUB SWAP1 RETURN JUMPDEST CALLVALUE DUP1 ISZERO PUSH2 0x323 JUMPI PUSH0 DUP1 REVERT JUMPDEST POP PUSH2 0x33E PUSH1 0x4 DUP1 CALLDATASIZE SUB DUP2 ADD SWAP1 PUSH2 0x339 SWAP2 SWAP1 PUSH2 0x1305 JUMP JUMPDEST PUSH2 0x945 JUMP JUMPDEST PUSH1 0x40 MLOAD PUSH2 0x34B SWAP2 SWAP1 PUSH2 0x11EA JUMP JUMPDEST PUSH1 0x40 MLOAD DUP1 SWAP2 SUB SWAP1 RETURN JUMPDEST PUSH1 0x60 PUSH1 0x3 DUP1 SLOAD PUSH2 0x363 SWAP1 PUSH2 0x1370 JUMP JUMPDEST DUP1 PUSH1 0x1F ADD PUSH1 0x20 DUP1 SWAP2 DIV MUL PUSH1 0x20 ADD PUSH1 0x40 MLOAD SWAP1 DUP2 ADD PUSH1 0x40 MSTORE DUP1 SWAP3 SWAP2 SWAP1 DUP2 DUP2 MSTORE PUSH1 0x20 ADD DUP3 DUP1 SLOAD PUSH2 0x38F SWAP1 PUSH2 0x1370 JUMP JUMPDEST DUP1 ISZERO PUSH2 0x3DA JUMPI DUP1 PUSH1 0x1F LT PUSH2 0x3B1 JUMPI PUSH2 0x100 DUP1 DUP4 SLOAD DIV MUL DUP4 MSTORE SWAP2 PUSH1 0x20 ADD SWAP2 PUSH2 0x3DA JUMP JUMPDEST DUP3 ADD SWAP2 SWAP1 PUSH0 MSTORE PUSH1 0x20 PUSH0 KECCAK256 SWAP1 JUMPDEST DUP2 SLOAD DUP2 MSTORE SWAP1 PUSH1 0x1 ADD SWAP1 PUSH1 0x20 ADD DUP1 DUP4 GT PUSH2 0x3BD JUMPI DUP3 SWAP1 SUB PUSH1 0x1F AND DUP3 ADD SWAP2 JUMPDEST POP POP POP POP POP SWAP1 POP SWAP1 JUMP JUMPDEST PUSH0 DUP1 PUSH2 0x3EE PUSH2 0x9C7 JUMP JUMPDEST SWAP1 POP PUSH2 0x3FB DUP2 DUP6 DUP6 PUSH2 0x9CE JUMP JUMPDEST PUSH1 0x1 SWAP2 POP POP SWAP3 SWAP2 POP POP JUMP JUMPDEST PUSH0 PUSH1 0x2 SLOAD SWAP1 POP SWAP1 JUMP JUMPDEST PUSH0 DUP1 PUSH2 0x419 PUSH2 0x9C7 JUMP JUMPDEST SWAP1 POP PUSH2 0x426 DUP6 DUP3 DUP6 PUSH2 0x9E0 JUMP JUMPDEST PUSH2 0x431 DUP6 DUP6 DUP6 PUSH2 0xA73 JUMP JUMPDEST PUSH1 0x1 SWAP2 POP POP SWAP4 SWAP3 POP POP POP JUMP JUMPDEST PUSH0 CALLER SWAP1 POP PUSH0 PUSH8 0xDE0B6B3A7640000 DUP4 PUSH2 0x456 SWAP2 SWAP1 PUSH2 0x13CD JUMP JUMPDEST SWAP1 POP PUSH1 0x6 PUSH0 SWAP1 SLOAD SWAP1 PUSH2 0x100 EXP SWAP1 DIV PUSH20 0xFFFFFFFFFFFFFFFFFFFFFFFFFFFFFFFFFFFFFFFF AND PUSH20 0xFFFFFFFFFFFFFFFFFFFFFFFFFFFFFFFFFFFFFFFF AND PUSH4 0x23B872DD DUP4 ADDRESS DUP7 PUSH1 0x40 MLOAD DUP5 PUSH4 0xFFFFFFFF AND PUSH1 0xE0 SHL DUP2 MSTORE PUSH1 0x4 ADD PUSH2 0x4B6 SWAP4 SWAP3 SWAP2 SWAP1 PUSH2 0x140E JUMP JUMPDEST PUSH1 0x20 PUSH1 0x40 MLOAD DUP1 DUP4 SUB DUP2 PUSH0 DUP8 GAS CALL ISZERO DUP1 ISZERO PUSH2 0x4D2 JUMPI RETURNDATASIZE PUSH0 DUP1 RETURNDATACOPY RETURNDATASIZE PUSH0 REVERT JUMPDEST POP POP POP POP PUSH1 0x40 MLOAD RETURNDATASIZE PUSH1 0x1F NOT PUSH1 0x1F DUP3 ADD AND DUP3 ADD DUP1 PUSH1 0x40 MSTORE POP DUP2 ADD SWAP1 PUSH2 0x4F6 SWAP2 SWAP1 PUSH2 0x146D JUMP JUMPDEST POP DUP2 PUSH20 0xFFFFFFFFFFFFFFFFFFFFFFFFFFFFFFFFFFFFFFFF AND PUSH2 0x8FC DUP3 SWAP1 DUP2 ISZERO MUL SWAP1 PUSH1 0x40 MLOAD PUSH0 PUSH1 0x40 MLOAD DUP1 DUP4 SUB DUP2 DUP6 DUP9 DUP9 CALL SWAP4 POP POP POP POP ISZERO DUP1 ISZERO PUSH2 0x53A JUMPI RETURNDATASIZE PUSH0 DUP1 RETURNDATACOPY RETURNDATASIZE PUSH0 REVERT JUMPDEST POP POP POP POP JUMP JUMPDEST PUSH0 PUSH1 0x12 SWAP1 POP SWAP1 JUMP JUMPDEST PUSH0 CALLER SWAP1 POP PUSH0 PUSH8 0xDE0B6B3A7640000 CALLVALUE PUSH2 0x561 SWAP2 SWAP1 PUSH2 0x14C5 JUMP JUMPDEST SWAP1 POP PUSH0 DUP2 SWAP1 POP PUSH1 0x6 PUSH0 SWAP1 SLOAD SWAP1 PUSH2 0x100 EXP SWAP1 DIV PUSH20 0xFFFFFFFFFFFFFFFFFFFFFFFFFFFFFFFFFFFFFFFF AND PUSH20 0xFFFFFFFFFFFFFFFFFFFFFFFFFFFFFFFFFFFFFFFF AND PUSH4 0xA9059CBB DUP5 DUP4 PUSH1 0x40 MLOAD DUP4 PUSH4 0xFFFFFFFF AND PUSH1 0xE0 SHL DUP2 MSTORE PUSH1 0x4 ADD PUSH2 0x5C3 SWAP3 SWAP2 SWAP1 PUSH2 0x14F5 JUMP JUMPDEST PUSH1 0x20 PUSH1 0x40 MLOAD DUP1 DUP4 SUB DUP2 PUSH0 DUP8 GAS CALL ISZERO DUP1 ISZERO PUSH2 0x5DF JUMPI RETURNDATASIZE PUSH0 DUP1 RETURNDATACOPY RETURNDATASIZE PUSH0 REVERT JUMPDEST POP POP POP POP PUSH1 0x40 MLOAD RETURNDATASIZE PUSH1 0x1F NOT PUSH1 0x1F DUP3 ADD AND DUP3 ADD DUP1 PUSH1 0x40 MSTORE POP DUP2 ADD SWAP1 PUSH2 0x603 SWAP2 SWAP1 PUSH2 0x146D JUMP JUMPDEST POP POP POP POP JUMP JUMPDEST PUSH0 CALLVALUE SWAP1 POP PUSH8 0xDE0B6B3A7640000 DUP3 PUSH2 0x621 SWAP2 SWAP1 PUSH2 0x13CD JUMP JUMPDEST DUP2 EQ PUSH2 0x662 JUMPI PUSH1 0x40 MLOAD PUSH32 0x8C379A000000000000000000000000000000000000000000000000000000000 DUP2 MSTORE PUSH1 0x4 ADD PUSH2 0x659 SWAP1 PUSH2 0x1566 JUMP JUMPDEST PUSH1 0x40 MLOAD DUP1 SWAP2 SUB SWAP1 REVERT JUMPDEST PUSH0 CALLER SWAP1 POP PUSH1 0x6 PUSH0 SWAP1 SLOAD SWAP1 PUSH2 0x100 EXP SWAP1 DIV PUSH20 0xFFFFFFFFFFFFFFFFFFFFFFFFFFFFFFFFFFFFFFFF AND PUSH20 0xFFFFFFFFFFFFFFFFFFFFFFFFFFFFFFFFFFFFFFFF AND PUSH4 0x23B872DD DUP3 ADDRESS DUP7 PUSH1 0x40 MLOAD DUP5 PUSH4 0xFFFFFFFF AND PUSH1 0xE0 SHL DUP2 MSTORE PUSH1 0x4 ADD PUSH2 0x6C4 SWAP4 SWAP3 SWAP2 SWAP1 PUSH2 0x140E JUMP JUMPDEST PUSH1 0x20 PUSH1 0x40 MLOAD DUP1 DUP4 SUB DUP2 PUSH0 DUP8 GAS CALL ISZERO DUP1 ISZERO PUSH2 0x6E0 JUMPI RETURNDATASIZE PUSH0 DUP1 RETURNDATACOPY RETURNDATASIZE PUSH0 REVERT JUMPDEST POP POP POP POP PUSH1 0x40 MLOAD RETURNDATASIZE PUSH1 0x1F NOT PUSH1 0x1F DUP3 ADD AND DUP3 ADD DUP1 PUSH1 0x40 MSTORE POP DUP2 ADD SWAP1 PUSH2 0x704 SWAP2 SWAP1 PUSH2 0x146D JUMP JUMPDEST POP PUSH0 DUP4 SWAP1 POP PUSH2 0x713 DUP3 DUP3 PUSH2 0xB63 JUMP JUMPDEST POP POP POP POP JUMP JUMPDEST PUSH0 DUP1 PUSH0 DUP4 PUSH20 0xFFFFFFFFFFFFFFFFFFFFFFFFFFFFFFFFFFFFFFFF AND PUSH20 0xFFFFFFFFFFFFFFFFFFFFFFFFFFFFFFFFFFFFFFFF AND DUP2 MSTORE PUSH1 0x20 ADD SWAP1 DUP2 MSTORE PUSH1 0x20 ADD PUSH0 KECCAK256 SLOAD SWAP1 POP SWAP2 SWAP1 POP JUMP JUMPDEST PUSH1 0x60 PUSH1 0x4 DUP1 SLOAD PUSH2 0x76D SWAP1 PUSH2 0x1370 JUMP JUMPDEST DUP1 PUSH1 0x1F ADD PUSH1 0x20 DUP1 SWAP2 DIV MUL PUSH1 0x20 ADD PUSH1 0x40 MLOAD SWAP1 DUP2 ADD PUSH1 0x40 MSTORE DUP1 SWAP3 SWAP2 SWAP1 DUP2 DUP2 MSTORE PUSH1 0x20 ADD DUP3 DUP1 SLOAD PUSH2 0x799 SWAP1 PUSH2 0x1370 JUMP JUMPDEST DUP1 ISZERO PUSH2 0x7E4 JUMPI DUP1 PUSH1 0x1F LT PUSH2 0x7BB JUMPI PUSH2 0x100 DUP1 DUP4 SLOAD DIV MUL DUP4 MSTORE SWAP2 PUSH1 0x20 ADD SWAP2 PUSH2 0x7E4 JUMP JUMPDEST DUP3 ADD SWAP2 SWAP1 PUSH0 MSTORE PUSH1 0x20 PUSH0 KECCAK256 SWAP1 JUMPDEST DUP2 SLOAD DUP2 MSTORE SWAP1 PUSH1 0x1 ADD SWAP1 PUSH1 0x20 ADD DUP1 DUP4 GT PUSH2 0x7C7 JUMPI DUP3 SWAP1 SUB PUSH1 0x1F AND DUP3 ADD SWAP2 JUMPDEST POP POP POP POP POP SWAP1 POP SWAP1 JUMP JUMPDEST PUSH0 CALLER SWAP1 POP PUSH2 0x7FC DUP2 DUP4 PUSH2 0xBE2 JUMP JUMPDEST PUSH0 DUP3 SWAP1 POP PUSH0 PUSH8 0xDE0B6B3A7640000 DUP5 PUSH2 0x815 SWAP2 SWAP1 PUSH2 0x13CD JUMP JUMPDEST SWAP1 POP DUP3 PUSH20 0xFFFFFFFFFFFFFFFFFFFFFFFFFFFFFFFFFFFFFFFF AND PUSH2 0x8FC DUP3 SWAP1 DUP2 ISZERO MUL SWAP1 PUSH1 0x40 MLOAD PUSH0 PUSH1 0x40 MLOAD DUP1 DUP4 SUB DUP2 DUP6 DUP9 DUP9 CALL SWAP4 POP POP POP POP ISZERO DUP1 ISZERO PUSH2 0x85A JUMPI RETURNDATASIZE PUSH0 DUP1 RETURNDATACOPY RETURNDATASIZE PUSH0 REVERT JUMPDEST POP PUSH1 0x6 PUSH0 SWAP1 SLOAD SWAP1 PUSH2 0x100 EXP SWAP1 DIV PUSH20 0xFFFFFFFFFFFFFFFFFFFFFFFFFFFFFFFFFFFFFFFF AND PUSH20 0xFFFFFFFFFFFFFFFFFFFFFFFFFFFFFFFFFFFFFFFF AND PUSH4 0xA9059CBB DUP5 DUP5 PUSH1 0x40 MLOAD DUP4 PUSH4 0xFFFFFFFF AND PUSH1 0xE0 SHL DUP2 MSTORE PUSH1 0x4 ADD PUSH2 0x8B7 SWAP3 SWAP2 SWAP1 PUSH2 0x14F5 JUMP JUMPDEST PUSH1 0x20 PUSH1 0x40 MLOAD DUP1 DUP4 SUB DUP2 PUSH0 DUP8 GAS CALL ISZERO DUP1 ISZERO PUSH2 0x8D3 JUMPI RETURNDATASIZE PUSH0 DUP1 RETURNDATACOPY RETURNDATASIZE PUSH0 REVERT JUMPDEST POP POP POP POP PUSH1 0x40 MLOAD RETURNDATASIZE PUSH1 0x1F NOT PUSH1 0x1F DUP3 ADD AND DUP3 ADD DUP1 PUSH1 0x40 MSTORE POP DUP2 ADD SWAP1 PUSH2 0x8F7 SWAP2 SWAP1 PUSH2 0x146D JUMP JUMPDEST POP POP POP POP POP JUMP JUMPDEST PUSH1 0x5 PUSH0 SWAP1 SLOAD SWAP1 PUSH2 0x100 EXP SWAP1 DIV PUSH20 0xFFFFFFFFFFFFFFFFFFFFFFFFFFFFFFFFFFFFFFFF AND DUP2 JUMP JUMPDEST PUSH0 DUP1 PUSH2 0x92D PUSH2 0x9C7 JUMP JUMPDEST SWAP1 POP PUSH2 0x93A DUP2 DUP6 DUP6 PUSH2 0xA73 JUMP JUMPDEST PUSH1 0x1 SWAP2 POP POP SWAP3 SWAP2 POP POP JUMP JUMPDEST PUSH0 PUSH1 0x1 PUSH0 DUP5 PUSH20 0xFFFFFFFFFFFFFFFFFFFFFFFFFFFFFFFFFFFFFFFF AND PUSH20 0xFFFFFFFFFFFFFFFFFFFFFFFFFFFFFFFFFFFFFFFF AND DUP2 MSTORE PUSH1 0x20 ADD SWAP1 DUP2 MSTORE PUSH1 0x20 ADD PUSH0 KECCAK256 PUSH0 DUP4 PUSH20 0xFFFFFFFFFFFFFFFFFFFFFFFFFFFFFFFFFFFFFFFF AND PUSH20 0xFFFFFFFFFFFFFFFFFFFFFFFFFFFFFFFFFFFFFFFF AND DUP2 MSTORE PUSH1 0x20 ADD SWAP1 DUP2 MSTORE PUSH1 0x20 ADD PUSH0 KECCAK256 SLOAD SWAP1 POP SWAP3 SWAP2 POP POP JUMP JUMPDEST PUSH0 CALLER SWAP1 POP SWAP1 JUMP JUMPDEST PUSH2 0x9DB DUP4 DUP4 DUP4 PUSH1 0x1 PUSH2 0xC61 JUMP JUMPDEST POP POP POP JUMP JUMPDEST PUSH0 PUSH2 0x9EB DUP5 DUP5 PUSH2 0x945 JUMP JUMPDEST SWAP1 POP PUSH32 0xFFFFFFFFFFFFFFFFFFFFFFFFFFFFFFFFFFFFFFFFFFFFFFFFFFFFFFFFFFFFFFFF DUP2 LT ISZERO PUSH2 0xA6D JUMPI DUP2 DUP2 LT ISZERO PUSH2 0xA5E JUMPI DUP3 DUP2 DUP4 PUSH1 0x40 MLOAD PUSH32 0xFB8F41B200000000000000000000000000000000000000000000000000000000 DUP2 MSTORE PUSH1 0x4 ADD PUSH2 0xA55 SWAP4 SWAP3 SWAP2 SWAP1 PUSH2 0x1584 JUMP JUMPDEST PUSH1 0x40 MLOAD DUP1 SWAP2 SUB SWAP1 REVERT JUMPDEST PUSH2 0xA6C DUP5 DUP5 DUP5 DUP5 SUB PUSH0 PUSH2 0xC61 JUMP JUMPDEST JUMPDEST POP POP POP POP JUMP JUMPDEST PUSH0 PUSH20 0xFFFFFFFFFFFFFFFFFFFFFFFFFFFFFFFFFFFFFFFF AND DUP4 PUSH20 0xFFFFFFFFFFFFFFFFFFFFFFFFFFFFFFFFFFFFFFFF AND SUB PUSH2 0xAE3 JUMPI PUSH0 PUSH1 0x40 MLOAD PUSH32 0x96C6FD1E00000000000000000000000000000000000000000000000000000000 DUP2 MSTORE PUSH1 0x4 ADD PUSH2 0xADA SWAP2 SWAP1 PUSH2 0x12EC JUMP JUMPDEST PUSH1 0x40 MLOAD DUP1 SWAP2 SUB SWAP1 REVERT JUMPDEST PUSH0 PUSH20 0xFFFFFFFFFFFFFFFFFFFFFFFFFFFFFFFFFFFFFFFF AND DUP3 PUSH20 0xFFFFFFFFFFFFFFFFFFFFFFFFFFFFFFFFFFFFFFFF AND SUB PUSH2 0xB53 JUMPI PUSH0 PUSH1 0x40 MLOAD PUSH32 0xEC442F0500000000000000000000000000000000000000000000000000000000 DUP2 MSTORE PUSH1 0x4 ADD PUSH2 0xB4A SWAP2 SWAP1 PUSH2 0x12EC JUMP JUMPDEST PUSH1 0x40 MLOAD DUP1 SWAP2 SUB SWAP1 REVERT JUMPDEST PUSH2 0xB5E DUP4 DUP4 DUP4 PUSH2 0xE30 JUMP JUMPDEST POP POP POP JUMP JUMPDEST PUSH0 PUSH20 0xFFFFFFFFFFFFFFFFFFFFFFFFFFFFFFFFFFFFFFFF AND DUP3 PUSH20 0xFFFFFFFFFFFFFFFFFFFFFFFFFFFFFFFFFFFFFFFF AND SUB PUSH2 0xBD3 JUMPI PUSH0 PUSH1 0x40 MLOAD PUSH32 0xEC442F0500000000000000000000000000000000000000000000000000000000 DUP2 MSTORE PUSH1 0x4 ADD PUSH2 0xBCA SWAP2 SWAP1 PUSH2 0x12EC JUMP JUMPDEST PUSH1 0x40 MLOAD DUP1 SWAP2 SUB SWAP1 REVERT JUMPDEST PUSH2 0xBDE PUSH0 DUP4 DUP4 PUSH2 0xE30 JUMP JUMPDEST POP POP JUMP JUMPDEST PUSH0 PUSH20 0xFFFFFFFFFFFFFFFFFFFFFFFFFFFFFFFFFFFFFFFF AND DUP3 PUSH20 0xFFFFFFFFFFFFFFFFFFFFFFFFFFFFFFFFFFFFFFFF AND SUB PUSH2 0xC52 JUMPI PUSH0 PUSH1 0x40 MLOAD PUSH32 0x96C6FD1E00000000000000000000000000000000000000000000000000000000 DUP2 MSTORE PUSH1 0x4 ADD PUSH2 0xC49 SWAP2 SWAP1 PUSH2 0x12EC JUMP JUMPDEST PUSH1 0x40 MLOAD DUP1 SWAP2 SUB SWAP1 REVERT JUMPDEST PUSH2 0xC5D DUP3 PUSH0 DUP4 PUSH2 0xE30 JUMP JUMPDEST POP POP JUMP JUMPDEST PUSH0 PUSH20 0xFFFFFFFFFFFFFFFFFFFFFFFFFFFFFFFFFFFFFFFF AND DUP5 PUSH20 0xFFFFFFFFFFFFFFFFFFFFFFFFFFFFFFFFFFFFFFFF AND SUB PUSH2 0xCD1 JUMPI PUSH0 PUSH1 0x40 MLOAD PUSH32 0xE602DF0500000000000000000000000000000000000000000000000000000000 DUP2 MSTORE PUSH1 0x4 ADD PUSH2 0xCC8 SWAP2 SWAP1 PUSH2 0x12EC JUMP JUMPDEST PUSH1 0x40 MLOAD DUP1 SWAP2 SUB SWAP1 REVERT JUMPDEST PUSH0 PUSH20 0xFFFFFFFFFFFFFFFFFFFFFFFFFFFFFFFFFFFFFFFF AND DUP4 PUSH20 0xFFFFFFFFFFFFFFFFFFFFFFFFFFFFFFFFFFFFFFFF AND SUB PUSH2 0xD41 JUMPI PUSH0 PUSH1 0x40 MLOAD PUSH32 0x94280D6200000000000000000000000000000000000000000000000000000000 DUP2 MSTORE PUSH1 0x4 ADD PUSH2 0xD38 SWAP2 SWAP1 PUSH2 0x12EC JUMP JUMPDEST PUSH1 0x40 MLOAD DUP1 SWAP2 SUB SWAP1 REVERT JUMPDEST DUP2 PUSH1 0x1 PUSH0 DUP7 PUSH20 0xFFFFFFFFFFFFFFFFFFFFFFFFFFFFFFFFFFFFFFFF AND PUSH20 0xFFFFFFFFFFFFFFFFFFFFFFFFFFFFFFFFFFFFFFFF AND DUP2 MSTORE PUSH1 0x20 ADD SWAP1 DUP2 MSTORE PUSH1 0x20 ADD PUSH0 KECCAK256 PUSH0 DUP6 PUSH20 0xFFFFFFFFFFFFFFFFFFFFFFFFFFFFFFFFFFFFFFFF AND PUSH20 0xFFFFFFFFFFFFFFFFFFFFFFFFFFFFFFFFFFFFFFFF AND DUP2 MSTORE PUSH1 0x20 ADD SWAP1 DUP2 MSTORE PUSH1 0x20 ADD PUSH0 KECCAK256 DUP2 SWAP1 SSTORE POP DUP1 ISZERO PUSH2 0xE2A JUMPI DUP3 PUSH20 0xFFFFFFFFFFFFFFFFFFFFFFFFFFFFFFFFFFFFFFFF AND DUP5 PUSH20 0xFFFFFFFFFFFFFFFFFFFFFFFFFFFFFFFFFFFFFFFF AND PUSH32 0x8C5BE1E5EBEC7D5BD14F71427D1E84F3DD0314C0F7B2291E5B200AC8C7C3B925 DUP5 PUSH1 0x40 MLOAD PUSH2 0xE21 SWAP2 SWAP1 PUSH2 0x11EA JUMP JUMPDEST PUSH1 0x40 MLOAD DUP1 SWAP2 SUB SWAP1 LOG3 JUMPDEST POP POP POP POP JUMP JUMPDEST PUSH0 PUSH20 0xFFFFFFFFFFFFFFFFFFFFFFFFFFFFFFFFFFFFFFFF AND DUP4 PUSH20 0xFFFFFFFFFFFFFFFFFFFFFFFFFFFFFFFFFFFFFFFF AND SUB PUSH2 0xE80 JUMPI DUP1 PUSH1 0x2 PUSH0 DUP3 DUP3 SLOAD PUSH2 0xE74 SWAP2 SWAP1 PUSH2 0x15B9 JUMP JUMPDEST SWAP3 POP POP DUP2 SWAP1 SSTORE POP PUSH2 0xF4E JUMP JUMPDEST PUSH0 DUP1 PUSH0 DUP6 PUSH20 0xFFFFFFFFFFFFFFFFFFFFFFFFFFFFFFFFFFFFFFFF AND PUSH20 0xFFFFFFFFFFFFFFFFFFFFFFFFFFFFFFFFFFFFFFFF AND DUP2 MSTORE PUSH1 0x20 ADD SWAP1 DUP2 MSTORE PUSH1 0x20 ADD PUSH0 KECCAK256 SLOAD SWAP1 POP DUP2 DUP2 LT ISZERO PUSH2 0xF09 JUMPI DUP4 DUP2 DUP4 PUSH1 0x40 MLOAD PUSH32 0xE450D38C00000000000000000000000000000000000000000000000000000000 DUP2 MSTORE PUSH1 0x4 ADD PUSH2 0xF00 SWAP4 SWAP3 SWAP2 SWAP1 PUSH2 0x1584 JUMP JUMPDEST PUSH1 0x40 MLOAD DUP1 SWAP2 SUB SWAP1 REVERT JUMPDEST DUP2 DUP2 SUB PUSH0 DUP1 DUP7 PUSH20 0xFFFFFFFFFFFFFFFFFFFFFFFFFFFFFFFFFFFFFFFF AND PUSH20 0xFFFFFFFFFFFFFFFFFFFFFFFFFFFFFFFFFFFFFFFF AND DUP2 MSTORE PUSH1 0x20 ADD SWAP1 DUP2 MSTORE PUSH1 0x20 ADD PUSH0 KECCAK256 DUP2 SWAP1 SSTORE POP POP JUMPDEST PUSH0 PUSH20 0xFFFFFFFFFFFFFFFFFFFFFFFFFFFFFFFFFFFFFFFF AND DUP3 PUSH20 0xFFFFFFFFFFFFFFFFFFFFFFFFFFFFFFFFFFFFFFFF AND SUB PUSH2 0xF95 JUMPI DUP1 PUSH1 0x2 PUSH0 DUP3 DUP3 SLOAD SUB SWAP3 POP POP DUP2 SWAP1 SSTORE POP PUSH2 0xFDF JUMP JUMPDEST DUP1 PUSH0 DUP1 DUP5 PUSH20 0xFFFFFFFFFFFFFFFFFFFFFFFFFFFFFFFFFFFFFFFF AND PUSH20 0xFFFFFFFFFFFFFFFFFFFFFFFFFFFFFFFFFFFFFFFF AND DUP2 MSTORE PUSH1 0x20 ADD SWAP1 DUP2 MSTORE PUSH1 0x20 ADD PUSH0 KECCAK256 PUSH0 DUP3 DUP3 SLOAD ADD SWAP3 POP POP DUP2 SWAP1 SSTORE POP JUMPDEST DUP2 PUSH20 0xFFFFFFFFFFFFFFFFFFFFFFFFFFFFFFFFFFFFFFFF AND DUP4 PUSH20 0xFFFFFFFFFFFFFFFFFFFFFFFFFFFFFFFFFFFFFFFF AND PUSH32 0xDDF252AD1BE2C89B69C2B068FC378DAA952BA7F163C4A11628F55A4DF523B3EF DUP4 PUSH1 0x40 MLOAD PUSH2 0x103C SWAP2 SWAP1 PUSH2 0x11EA JUMP JUMPDEST PUSH1 0x40 MLOAD DUP1 SWAP2 SUB SWAP1 LOG3 POP POP POP JUMP JUMPDEST PUSH0 DUP2 MLOAD SWAP1 POP SWAP2 SWAP1 POP JUMP JUMPDEST PUSH0 DUP3 DUP3 MSTORE PUSH1 0x20 DUP3 ADD SWAP1 POP SWAP3 SWAP2 POP POP JUMP JUMPDEST DUP3 DUP2 DUP4 MCOPY PUSH0 DUP4 DUP4 ADD MSTORE POP POP POP JUMP JUMPDEST PUSH0 PUSH1 0x1F NOT PUSH1 0x1F DUP4 ADD AND SWAP1 POP SWAP2 SWAP1 POP JUMP JUMPDEST PUSH0 PUSH2 0x108B DUP3 PUSH2 0x1049 JUMP JUMPDEST PUSH2 0x1095 DUP2 DUP6 PUSH2 0x1053 JUMP JUMPDEST SWAP4 POP PUSH2 0x10A5 DUP2 DUP6 PUSH1 0x20 DUP7 ADD PUSH2 0x1063 JUMP JUMPDEST PUSH2 0x10AE DUP2 PUSH2 0x1071 JUMP JUMPDEST DUP5 ADD SWAP2 POP POP SWAP3 SWAP2 POP POP JUMP JUMPDEST PUSH0 PUSH1 0x20 DUP3 ADD SWAP1 POP DUP2 DUP2 SUB PUSH0 DUP4 ADD MSTORE PUSH2 0x10D1 DUP2 DUP5 PUSH2 0x1081 JUMP JUMPDEST SWAP1 POP SWAP3 SWAP2 POP POP JUMP JUMPDEST PUSH0 DUP1 REVERT JUMPDEST PUSH0 PUSH20 0xFFFFFFFFFFFFFFFFFFFFFFFFFFFFFFFFFFFFFFFF DUP3 AND SWAP1 POP SWAP2 SWAP1 POP JUMP JUMPDEST PUSH0 PUSH2 0x1106 DUP3 PUSH2 0x10DD JUMP JUMPDEST SWAP1 POP SWAP2 SWAP1 POP JUMP JUMPDEST PUSH2 0x1116 DUP2 PUSH2 0x10FC JUMP JUMPDEST DUP2 EQ PUSH2 0x1120 JUMPI PUSH0 DUP1 REVERT JUMPDEST POP JUMP JUMPDEST PUSH0 DUP2 CALLDATALOAD SWAP1 POP PUSH2 0x1131 DUP2 PUSH2 0x110D JUMP JUMPDEST SWAP3 SWAP2 POP POP JUMP JUMPDEST PUSH0 DUP2 SWAP1 POP SWAP2 SWAP1 POP JUMP JUMPDEST PUSH2 0x1149 DUP2 PUSH2 0x1137 JUMP JUMPDEST DUP2 EQ PUSH2 0x1153 JUMPI PUSH0 DUP1 REVERT JUMPDEST POP JUMP JUMPDEST PUSH0 DUP2 CALLDATALOAD SWAP1 POP PUSH2 0x1164 DUP2 PUSH2 0x1140 JUMP JUMPDEST SWAP3 SWAP2 POP POP JUMP JUMPDEST PUSH0 DUP1 PUSH1 0x40 DUP4 DUP6 SUB SLT ISZERO PUSH2 0x1180 JUMPI PUSH2 0x117F PUSH2 0x10D9 JUMP JUMPDEST JUMPDEST PUSH0 PUSH2 0x118D DUP6 DUP3 DUP7 ADD PUSH2 0x1123 JUMP JUMPDEST SWAP3 POP POP PUSH1 0x20 PUSH2 0x119E DUP6 DUP3 DUP7 ADD PUSH2 0x1156 JUMP JUMPDEST SWAP2 POP POP SWAP3 POP SWAP3 SWAP1 POP JUMP JUMPDEST PUSH0 DUP2 ISZERO ISZERO SWAP1 POP SWAP2 SWAP1 POP JUMP JUMPDEST PUSH2 0x11BC DUP2 PUSH2 0x11A8 JUMP JUMPDEST DUP3 MSTORE POP POP JUMP JUMPDEST PUSH0 PUSH1 0x20 DUP3 ADD SWAP1 POP PUSH2 0x11D5 PUSH0 DUP4 ADD DUP5 PUSH2 0x11B3 JUMP JUMPDEST SWAP3 SWAP2 POP POP JUMP JUMPDEST PUSH2 0x11E4 DUP2 PUSH2 0x1137 JUMP JUMPDEST DUP3 MSTORE POP POP JUMP JUMPDEST PUSH0 PUSH1 0x20 DUP3 ADD SWAP1 POP PUSH2 0x11FD PUSH0 DUP4 ADD DUP5 PUSH2 0x11DB JUMP JUMPDEST SWAP3 SWAP2 POP POP JUMP JUMPDEST PUSH0 DUP1 PUSH0 PUSH1 0x60 DUP5 DUP7 SUB SLT ISZERO PUSH2 0x121A JUMPI PUSH2 0x1219 PUSH2 0x10D9 JUMP JUMPDEST JUMPDEST PUSH0 PUSH2 0x1227 DUP7 DUP3 DUP8 ADD PUSH2 0x1123 JUMP JUMPDEST SWAP4 POP POP PUSH1 0x20 PUSH2 0x1238 DUP7 DUP3 DUP8 ADD PUSH2 0x1123 JUMP JUMPDEST SWAP3 POP POP PUSH1 0x40 PUSH2 0x1249 DUP7 DUP3 DUP8 ADD PUSH2 0x1156 JUMP JUMPDEST SWAP2 POP POP SWAP3 POP SWAP3 POP SWAP3 JUMP JUMPDEST PUSH0 PUSH1 0x20 DUP3 DUP5 SUB SLT ISZERO PUSH2 0x1268 JUMPI PUSH2 0x1267 PUSH2 0x10D9 JUMP JUMPDEST JUMPDEST PUSH0 PUSH2 0x1275 DUP5 DUP3 DUP6 ADD PUSH2 0x1156 JUMP JUMPDEST SWAP2 POP POP SWAP3 SWAP2 POP POP JUMP JUMPDEST PUSH0 PUSH1 0xFF DUP3 AND SWAP1 POP SWAP2 SWAP1 POP JUMP JUMPDEST PUSH2 0x1293 DUP2 PUSH2 0x127E JUMP JUMPDEST DUP3 MSTORE POP POP JUMP JUMPDEST PUSH0 PUSH1 0x20 DUP3 ADD SWAP1 POP PUSH2 0x12AC PUSH0 DUP4 ADD DUP5 PUSH2 0x128A JUMP JUMPDEST SWAP3 SWAP2 POP POP JUMP JUMPDEST PUSH0 PUSH1 0x20 DUP3 DUP5 SUB SLT ISZERO PUSH2 0x12C7 JUMPI PUSH2 0x12C6 PUSH2 0x10D9 JUMP JUMPDEST JUMPDEST PUSH0 PUSH2 0x12D4 DUP5 DUP3 DUP6 ADD PUSH2 0x1123 JUMP JUMPDEST SWAP2 POP POP SWAP3 SWAP2 POP POP JUMP JUMPDEST PUSH2 0x12E6 DUP2 PUSH2 0x10FC JUMP JUMPDEST DUP3 MSTORE POP POP JUMP JUMPDEST PUSH0 PUSH1 0x20 DUP3 ADD SWAP1 POP PUSH2 0x12FF PUSH0 DUP4 ADD DUP5 PUSH2 0x12DD JUMP JUMPDEST SWAP3 SWAP2 POP POP JUMP JUMPDEST PUSH0 DUP1 PUSH1 0x40 DUP4 DUP6 SUB SLT ISZERO PUSH2 0x131B JUMPI PUSH2 0x131A PUSH2 0x10D9 JUMP JUMPDEST JUMPDEST PUSH0 PUSH2 0x1328 DUP6 DUP3 DUP7 ADD PUSH2 0x1123 JUMP JUMPDEST SWAP3 POP POP PUSH1 0x20 PUSH2 0x1339 DUP6 DUP3 DUP7 ADD PUSH2 0x1123 JUMP JUMPDEST SWAP2 POP POP SWAP3 POP SWAP3 SWAP1 POP JUMP JUMPDEST PUSH32 0x4E487B7100000000000000000000000000000000000000000000000000000000 PUSH0 MSTORE PUSH1 0x22 PUSH1 0x4 MSTORE PUSH1 0x24 PUSH0 REVERT JUMPDEST PUSH0 PUSH1 0x2 DUP3 DIV SWAP1 POP PUSH1 0x1 DUP3 AND DUP1 PUSH2 0x1387 JUMPI PUSH1 0x7F DUP3 AND SWAP2 POP JUMPDEST PUSH1 0x20 DUP3 LT DUP2 SUB PUSH2 0x139A JUMPI PUSH2 0x1399 PUSH2 0x1343 JUMP JUMPDEST JUMPDEST POP SWAP2 SWAP1 POP JUMP JUMPDEST PUSH32 0x4E487B7100000000000000000000000000000000000000000000000000000000 PUSH0 MSTORE PUSH1 0x11 PUSH1 0x4 MSTORE PUSH1 0x24 PUSH0 REVERT JUMPDEST PUSH0 PUSH2 0x13D7 DUP3 PUSH2 0x1137 JUMP JUMPDEST SWAP2 POP PUSH2 0x13E2 DUP4 PUSH2 0x1137 JUMP JUMPDEST SWAP3 POP DUP3 DUP3 MUL PUSH2 0x13F0 DUP2 PUSH2 0x1137 JUMP JUMPDEST SWAP2 POP DUP3 DUP3 DIV DUP5 EQ DUP4 ISZERO OR PUSH2 0x1407 JUMPI PUSH2 0x1406 PUSH2 0x13A0 JUMP JUMPDEST JUMPDEST POP SWAP3 SWAP2 POP POP JUMP JUMPDEST PUSH0 PUSH1 0x60 DUP3 ADD SWAP1 POP PUSH2 0x1421 PUSH0 DUP4 ADD DUP7 PUSH2 0x12DD JUMP JUMPDEST PUSH2 0x142E PUSH1 0x20 DUP4 ADD DUP6 PUSH2 0x12DD JUMP JUMPDEST PUSH2 0x143B PUSH1 0x40 DUP4 ADD DUP5 PUSH2 0x11DB JUMP JUMPDEST SWAP5 SWAP4 POP POP POP POP JUMP JUMPDEST PUSH2 0x144C DUP2 PUSH2 0x11A8 JUMP JUMPDEST DUP2 EQ PUSH2 0x1456 JUMPI PUSH0 DUP1 REVERT JUMPDEST POP JUMP JUMPDEST PUSH0 DUP2 MLOAD SWAP1 POP PUSH2 0x1467 DUP2 PUSH2 0x1443 JUMP JUMPDEST SWAP3 SWAP2 POP POP JUMP JUMPDEST PUSH0 PUSH1 0x20 DUP3 DUP5 SUB SLT ISZERO PUSH2 0x1482 JUMPI PUSH2 0x1481 PUSH2 0x10D9 JUMP JUMPDEST JUMPDEST PUSH0 PUSH2 0x148F DUP5 DUP3 DUP6 ADD PUSH2 0x1459 JUMP JUMPDEST SWAP2 POP POP SWAP3 SWAP2 POP POP JUMP JUMPDEST PUSH32 0x4E487B7100000000000000000000000000000000000000000000000000000000 PUSH0 MSTORE PUSH1 0x12 PUSH1 0x4 MSTORE PUSH1 0x24 PUSH0 REVERT JUMPDEST PUSH0 PUSH2 0x14CF DUP3 PUSH2 0x1137 JUMP JUMPDEST SWAP2 POP PUSH2 0x14DA DUP4 PUSH2 0x1137 JUMP JUMPDEST SWAP3 POP DUP3 PUSH2 0x14EA JUMPI PUSH2 0x14E9 PUSH2 0x1498 JUMP JUMPDEST JUMPDEST DUP3 DUP3 DIV SWAP1 POP SWAP3 SWAP2 POP POP JUMP JUMPDEST PUSH0 PUSH1 0x40 DUP3 ADD SWAP1 POP PUSH2 0x1508 PUSH0 DUP4 ADD DUP6 PUSH2 0x12DD JUMP JUMPDEST PUSH2 0x1515 PUSH1 0x20 DUP4 ADD DUP5 PUSH2 0x11DB JUMP JUMPDEST SWAP4 SWAP3 POP POP POP JUMP JUMPDEST PUSH32 0x53686F756C64204574686572203D20546F6B656E410000000000000000000000 PUSH0 DUP3 ADD MSTORE POP JUMP JUMPDEST PUSH0 PUSH2 0x1550 PUSH1 0x15 DUP4 PUSH2 0x1053 JUMP JUMPDEST SWAP2 POP PUSH2 0x155B DUP3 PUSH2 0x151C JUMP JUMPDEST PUSH1 0x20 DUP3 ADD SWAP1 POP SWAP2 SWAP1 POP JUMP JUMPDEST PUSH0 PUSH1 0x20 DUP3 ADD SWAP1 POP DUP2 DUP2 SUB PUSH0 DUP4 ADD MSTORE PUSH2 0x157D DUP2 PUSH2 0x1544 JUMP JUMPDEST SWAP1 POP SWAP2 SWAP1 POP JUMP JUMPDEST PUSH0 PUSH1 0x60 DUP3 ADD SWAP1 POP PUSH2 0x1597 PUSH0 DUP4 ADD DUP7 PUSH2 0x12DD JUMP JUMPDEST PUSH2 0x15A4 PUSH1 0x20 DUP4 ADD DUP6 PUSH2 0x11DB JUMP JUMPDEST PUSH2 0x15B1 PUSH1 0x40 DUP4 ADD DUP5 PUSH2 0x11DB JUMP JUMPDEST SWAP5 SWAP4 POP POP POP POP JUMP JUMPDEST PUSH0 PUSH2 0x15C3 DUP3 PUSH2 0x1137 JUMP JUMPDEST SWAP2 POP PUSH2 0x15CE DUP4 PUSH2 0x1137 JUMP JUMPDEST SWAP3 POP DUP3 DUP3 ADD SWAP1 POP DUP1 DUP3 GT ISZERO PUSH2 0x15E6 JUMPI PUSH2 0x15E5 PUSH2 0x13A0 JUMP JUMPDEST JUMPDEST SWAP3 SWAP2 POP POP JUMP INVALID LOG2 PUSH5 0x6970667358 0x22 SLT KECCAK256 SWAP11 0xD9 SSTORE 0xAC 0xC2 0xD1 SLT SSTORE 0xCF BLOBBASEFEE 0xB1 SWAP8 0xC5 PUSH5 0xF12091E05C CODESIZE 0xE 0xC0 0xB9 PUSH30 0xD0B6C839741D0AD764736F6C634300081A00330000000000000000000000 "
				},
				"gasEstimates": {
					"creation": {
						"codeDepositCost": "1133200",
						"executionCost": "infinite",
						"totalCost": "infinite"
					},
					"external": {
						"addLiquidity(uint256)": "infinite",
						"allowance(address,address)": "infinite",
						"approve(address,uint256)": "infinite",
						"balanceOf(address)": "2874",
						"decimals()": "405",
						"eitherToToken()": "infinite",
						"name()": "infinite",
						"removeLiquidity(uint256)": "infinite",
						"symbol()": "infinite",
						"tokenAddress()": "2552",
						"tokenToEither(uint256)": "infinite",
						"totalSupply()": "2500",
						"transfer(address,uint256)": "infinite",
						"transferFrom(address,address,uint256)": "infinite"
					}
				},
				"methodIdentifiers": {
					"addLiquidity(uint256)": "51c6590a",
					"allowance(address,address)": "dd62ed3e",
					"approve(address,uint256)": "095ea7b3",
					"balanceOf(address)": "70a08231",
					"decimals()": "313ce567",
					"eitherToToken()": "4e2a43d9",
					"name()": "06fdde03",
					"removeLiquidity(uint256)": "9c8f9f23",
					"symbol()": "95d89b41",
					"tokenAddress()": "9d76ea58",
					"tokenToEither(uint256)": "2f80e48c",
					"totalSupply()": "18160ddd",
					"transfer(address,uint256)": "a9059cbb",
					"transferFrom(address,address,uint256)": "23b872dd"
				}
			},
			"storageLayout": {
				"storage": [
					{
						"astId": 159,
						"contract": "contracts/MyExchange.sol:MyExchange",
						"label": "_balances",
						"offset": 0,
						"slot": "0",
						"type": "t_mapping(t_address,t_uint256)"
					},
					{
						"astId": 165,
						"contract": "contracts/MyExchange.sol:MyExchange",
						"label": "_allowances",
						"offset": 0,
						"slot": "1",
						"type": "t_mapping(t_address,t_mapping(t_address,t_uint256))"
					},
					{
						"astId": 167,
						"contract": "contracts/MyExchange.sol:MyExchange",
						"label": "_totalSupply",
						"offset": 0,
						"slot": "2",
						"type": "t_uint256"
					},
					{
						"astId": 169,
						"contract": "contracts/MyExchange.sol:MyExchange",
						"label": "_name",
						"offset": 0,
						"slot": "3",
						"type": "t_string_storage"
					},
					{
						"astId": 171,
						"contract": "contracts/MyExchange.sol:MyExchange",
						"label": "_symbol",
						"offset": 0,
						"slot": "4",
						"type": "t_string_storage"
					},
					{
						"astId": 811,
						"contract": "contracts/MyExchange.sol:MyExchange",
						"label": "tokenAddress",
						"offset": 0,
						"slot": "5",
						"type": "t_address"
					},
					{
						"astId": 814,
						"contract": "contracts/MyExchange.sol:MyExchange",
						"label": "tokenA",
						"offset": 0,
						"slot": "6",
						"type": "t_contract(TokenA)807"
					}
				],
				"types": {
					"t_address": {
						"encoding": "inplace",
						"label": "address",
						"numberOfBytes": "20"
					},
					"t_contract(TokenA)807": {
						"encoding": "inplace",
						"label": "contract TokenA",
						"numberOfBytes": "20"
					},
					"t_mapping(t_address,t_mapping(t_address,t_uint256))": {
						"encoding": "mapping",
						"key": "t_address",
						"label": "mapping(address => mapping(address => uint256))",
						"numberOfBytes": "32",
						"value": "t_mapping(t_address,t_uint256)"
					},
					"t_mapping(t_address,t_uint256)": {
						"encoding": "mapping",
						"key": "t_address",
						"label": "mapping(address => uint256)",
						"numberOfBytes": "32",
						"value": "t_uint256"
					},
					"t_string_storage": {
						"encoding": "bytes",
						"label": "string",
						"numberOfBytes": "32"
					},
					"t_uint256": {
						"encoding": "inplace",
						"label": "uint256",
						"numberOfBytes": "32"
					}
				}
			},
			"userdoc": {
				"kind": "user",
				"methods": {},
				"version": 1
			}
		}
	}
}